:100000000C94B4070C9403120C9430120C945D12EF
:100010000C94D1070C94D1070C94D1070C94D10700
:100020000C94F6240C94CB180C94D1070C94D7178D
:100030000C949E180C9444180C9471180C94AA17E4
:100040000C9417180C94D1070C9457170C94D107E3
:100050000C94E7190C94D1070C94841A0C94D107D2
:100060000C94FE0D0C94D1070C9495130C94D107AD
:100070000C94C2190C94D1070C945F1A2E14C5135A
:10008000C513C513C513C513C513C513BB13C513BA
:10009000C513C513C513C513C513C513BB13C513AA
:1000A000C513C513C513C513C513C5132714C5132D
:1000B000C513C513C513C513C513C5131E14C51326
:1000C000C513C513C513C513C513C5132714C5130D
:1000D000C513C513C513C513C513C5131E14C51306
:1000E000C513C513C513C513C513C5134014C513D4
:1000F000C513C513C513C513C513C5138014C51384
:10010000C513C513C513C513C513C5131E14C513D5
:10011000C513C513C513C513C513C5135B14C51388
:10012000C513C513C513C513C513C5131214C513C1
:10013000C513C513C513C513C513C5137414C5134F
:10014000C513C513C513C513C513C5137414C5133F
:10015000C513C513C513C513C513C5137414C5132F
:10016000C513C513C513C513C513C5137414C5131F
:10017000C513C513C513C513C513C513D613C513AE
:10018000C513C513C513C513C513C513E513C5138F
:10019000C513C513C513C513C513C513D613C5138E
:1001A000C513C513C513C513C513C513E513C5136F
:1001B000C513C513C513C513C513C5134914C513FA
:1001C000C513C513C513C513C513C513E913C5134B
:1001D000C513C513C513C513C513C513E913C5133B
:1001E000C513C513C513C513C513C513FA13C5131A
:1001F000C513C513C513C513C513C5133714C513CC
:10020000C513C513C513C513C513C5133714636DC3
:10021000643E00636D646C696E653A2000636F6DC7
:100220006D616E64206E6F7420666F756E64000081
:100230000001000800400000010004000001000867
:1002400000200040008000000100041B5B25643B8F
:10025000256448001B5B3F32356C001B5B3F323529
:1002600068001B5B25646D001B5B324A001B63004A
:100270004368617267652043757272656E74204DC4
:100280006F6E69746F723A2025646D412E00776934
:1002900072656C657373206D6F64756C65204F4675
:1002A0004621004C6F77207468726573686F6C64C8
:1002B00020626174746572792E2E2E4E65656420FD
:1002C000746F2070726F746563742E004261747471
:1002D00065727920566F6C746167653A20256C757C
:1002E0006D562E00426174746572792043686172A4
:1002F00067696E6721004261747465727920466196
:10030000756C7479210044656C65746520454550B1
:10031000524F4D2E00566572696679206565707280
:100320006F6D2E00454550524F4D205772697465D0
:1003300020506167652836346279746573292030EE
:100340007835352E0056657269667920656570725C
:100350006F6D2E00454550524F4D205772697465A0
:1003600020506167652836346279746573292030BE
:100370007841412E00454550524F4D204D656D6FDF
:1003800072792053697A653A556E6B6E6F776E2E6F
:1003900000454550524F4D204D656D6F7279205389
:1003A000697A653A36344B622E00454550524F4DBE
:1003B000204D656D6F72792053697A653A33324BFF
:1003C000622E00256400457261736520256420500B
:1003D000616765733A00454E554D5F4545505F4432
:1003E00045564943455F4D454D4F52595F4E4F4E1F
:1003F00045000D0A00253034583A005061676553B6
:10040000697A653A256400454E554D5F4545505F14
:100410004445564943455F4D454D4F52595F4E4FF8
:100420004E4500446562756720536F66747761724C
:10043000652E2E2E52656164792E00220022002244
:100440000022004F4B0041542B434F50533D3F0D72
:10045000004E6574776F726B206163636573732000
:1004600064656E6965642E00475052532061636372
:100470006573732064656E6965642E004E657477DC
:100480006F726B206163636573732064656E696569
:10049000642E004750525320616363657373206478
:1004A000656E6965642E0041542B434F50533D31B6
:1004B0002C322C25730D002C004F4B0041542B4344
:1004C000475245473F0D00475052532052656769D8
:1004D0007374726174696F6E2E004F4B0041542B20
:1004E000435245473F0D000D0A4E6574776F726B9E
:1004F00020526567697374726174696F6E2052650A
:10050000706F72742E0041542B4950523D256C750A
:100510003B26570D004F4B00415445300D004F4BCB
:100520000041540D00536561726368696E673A2536
:100530006C756273700047534D204D6F64656D207C
:10054000506F776572204F46462E0047534D204D21
:100550006F64656D20506F776572204F464620535B
:100560006572696F75732050726F626C656D2121C1
:1005700021006F6666206D6F6465206B6579207061
:10058000726F636564757265004F4B00415423536D
:1005900048444E0D0047534D204D6F64656D20500B
:1005A0006F776572206973204F4E2E0073746172ED
:1005B00074206D6F64656D5077724F666650726F10
:1005C000632E0050726F74656374206D6F64656D87
:1005D0002033472E2E2E204C6F7720626174746575
:1005E00072792E0047534D204D6F64656D20506F1A
:1005F000776572204F4E2E0047534D204D6F646536
:100600006D20506F776572206973204F46462E002B
:100610007374617274206D6F64656D5077724F6E84
:1006200050726F632E006D6F64656D33474877536A
:100630006844776E556E636F6E646974696F6E613E
:100640006C0054696D653A25783A25783A25780D1D
:100650000A00446174653A25782F25782F25782083
:1006600020004D6561737572653A205254435F43B3
:1006700052595354414C5F465251203D20257548F4
:100680007A2E00446573697261626C6520637279C9
:100690007374616C2076616C75652033323736383F
:1006A000487A2F302E35252E0057616974696E67A0
:1006B0002032207365636F6E642E2E2E007374617A
:1006C000727420636861726765725F746573742EFB
:1006D0000067707320706F776572204F4E000D0AAF
:1006E00057656C636F6D6520746F204750532054BD
:1006F0006573742100737461727420726164696F30
:100700002055484620746573742E00536C656570DF
:100710002043757272656E74203C20353075412E11
:10072000005374617274696E6720536C6565702044
:10073000546573742E006D6F64656D2067736D2052
:1007400074657374206661696C65642E005365740A
:10075000206D6F64656D2053756363657373667593
:100760006C2E2E2E005465737420436F6D6D756E64
:1007700069636174696F6E20537563636573736633
:10078000756C2E2E2E005374617274205465737430
:1007900020436F6D6D756E69636174696F6E2E00B5
:1007A0004F4B0041540D004F4B2E2E2E00536574BD
:1007B000206D6F64656D206261756472617465207F
:1007C00031393230306273702E0049676E69746956
:1007D0006F6E206D6F64656D2E2E2E0073746172C6
:1007E00074206D6F64656D2067736D20746573741C
:1007F0002E006565704572617365416C6C2E2E2EFE
:100800006661696C00454570726F6D206973206682
:1008100061696C65642E00454570726F6D20697367
:10082000207375636365737366756C2E0053746112
:1008300072742054657374696E6720454570726FD9
:100840006D3A2032344C4336342F32353600525410
:1008500043206F7363696C6C61746F7220666169A9
:100860006C65642E2E2E2E2E00525443206F73631F
:10087000696C6C61746F7220737563636573736602
:10088000756C2E0053746172742074657374696E94
:100890006720525443206F7363696C6C61746F728C
:1008A0002E2E2E00466F726D61743A2044442F4DF7
:1008B0004D2F59592048483A4D4D3A5353202D2039
:1008C00055706461746564206E6F7420646F6E652A
:1008D0002E003A003A0020002F002F0038202D2053
:1008E0006D6F64656D2064697265637420636F6EFB
:1008F0006E656374696F6E0037202D20736C6565BB
:10090000705F746573740036202D2067736D5F749B
:100910006573740035202D206770735F7465737480
:100920000034202D20726164696F5F7568665F74A2
:100930006573740033202D20636861726765725F90
:10094000746573740032202D20656570726F6D5F61
:10095000746573740031202D207274635F74657345
:10096000740071202D20657869740068202D206442
:100970006973706C61797320617661696C61626C16
:100980006520636F6D6D616E647300417661696CA3
:1009900061626C6520636F6D6D616E64732061725E
:1009A000653A004578697465642070726F6772619A
:1009B0006D2100444154453A4E6F76203232203248
:1009C000303137202054494D453A31343A33363AA4
:1009D00032310050524F4752414D205645522D3131
:1009E0002E302E3100574252443230302D5645526F
:1009F0003220436172642E004C6F67676572205726
:100A00006972656C6573732054657374696E672EC3
:100A1000000D0A000D0A002C002C004F4B00415421
:100A20002B434744434F4E543F0D004F4B0041541E
:100A30002B43474154543D310D003A002B4347416D
:100A400054543A0041542B43474154543F0D004FF6
:100A50004B0041542353483D310D004F4B002B2B8D
:100A60002B00434F4E4E4543540041542353443DC5
:100A7000312C302C313031382C2270726F78792E35
:100A8000706879746563682E636F6D220D00313074
:100A900031382C2270726F78792E706879746563A2
:100AA000682E636F6D22004F4B0041542353474122
:100AB00043543D312C310D004F4B004154235343DF
:100AC00046473D312C312C3530302C36302C3330EC
:100AD000302C31300D004F4B0041542B43474551D2
:100AE0005245513D312C342C302C302C302C302CB4
:100AF000322C302C22304530222C22304530222C12
:100B0000332C302C300D004F4B0041542B434751B8
:100B10005245513D312C302C302C332C302C300DA3
:100B2000004F4B00415423534346473D332C312C57
:100B30003530302C36302C3330302C31300D004FE6
:100B40004B0041542B434745515245513D332C34C2
:100B50002C302C302C302C302C322C302C223045A8
:100B600030222C22304530222C332C302C300D00FA
:100B70004F4B0041542B4347515245513D332C308C
:100B80002C302C332C302C300D004F4B0041542393
:100B90004D4F4E490D00452D555452414E20416355
:100BA0006365737320546563686E6F6C6F6779203B
:100BB00053656C656374656400555452414E2077EB
:100BC0002F485344504120616E6420485355504192
:100BD0002041636365737320546563686E6F6C6F47
:100BE00067792053656C65637465640055545241A0
:100BF0004E20772F485355504120416363657373EE
:100C000020546563686E6F6C6F67792053656C65FF
:100C10006374656400555452414E20772F48534405
:100C200050412041636365737320546563686E6F40
:100C30006C6F67792053656C656374656400475316
:100C40004D20772F4547505253204163636573739E
:100C500020546563686E6F6C6F67792053656C65AF
:100C60006374656400555452414E2833472920412E
:100C7000636365737320546563686E6F6C6F677927
:100C80002053656C65637465640047534D2F47506E
:100C900052532041636365737320546563686E6FBC
:100CA0006C6F67792053656C6563746564002C0014
:100CB0002C002C004F4B0041542B434F50533F0D01
:100CC000004F4B0041542B4353510D002D2D2D2D22
:100CD0002D2D20204E6574776F726B20496E666FE4
:100CE000726D6174696F6E20202D2D2D2D2D2D2D8F
:100CF0002D2D004F4B0041542B434F50533D300D91
:100D00000041542B434744434F4E543D25642C220D
:100D10004950222C25732C22302E302E302E30229A
:100D20002C302C300D004C6F63616C2041504E20F4
:100D3000436F6E66696775726174696F6E2E0052DB
:100D40006F616D696E672041504E20436F6E66691A
:100D50006775726174696F6E2E0041504E3A002DB6
:100D60002D2D2D2D2D2041504E20436F6E6669672D
:100D700075726174696F6E20202D2D2D2D2D2D2DF6
:100D80002D2D00393732003A004F4B004154234398
:100D90004349440D0053696D2063617264206E6F96
:100DA0007420666F756E642E00235153533A2000F1
:100DB0004F4B004154235153533F0D004F4B0041C3
:100DC00054264B303B2644303B2B4943463D333B76
:100DD0002650303B26570D004F4B00415423534CB7
:100DE00045445341560D004F4B00415423534C454D
:100DF000443D322C31300D004F4B004154234750BD
:100E0000494F3D312C302C320D004F4B00415423C3
:100E1000535449413D310D004C6F63616C2053695F
:100E20006D20436172642044657465637465642E4B
:100E300000526F616D696E672053696D2043617266
:100E4000642044657465637465642E002D2D2D2D1A
:100E500020204D6F64656D2053657474696E672042
:100E6000202D2D2D2D004F4B0041542B5753343640
:100E70003F0D004F4B0041542B4347534E0D004F45
:100E80004B0041542B43474D490D004F4B004154FB
:100E90002B43474D520D004D6F64656D2034472044
:100EA000546563686E6F6C6F6779004C45393130FB
:100EB0002D53564C004C45393130004D6F64656DF3
:100EC00020334720546563686E6F6C6F67790055F7
:100ED00045393130004845393130004D6F64656D1A
:100EE00020324720546563686E6F6C6F677920000D
:100EF0004F4B0041542B43474D4D0D002D2D2D2DB3
:100F000020204D6F64656D20496E666F726D61744F
:100F1000696F6E20202D2D2D2D004A5441475F52C0
:100F20005354005741544348444F475F5253540071
:100F300042524F574E4F55545F52535400455854E8
:100F400045524E414C5F52535400504F5745525FEB
:100F500052535400506F776572206F6E2064657431
:100F600065637465642E000011241FBECFEFD0E1CD
:100F7000DEBFCDBF12E0A0E0B1E0ECE9F0E802C0D6
:100F800005900D92AC3CB107D9F717E0ACECB2E09C
:100F900001C01D92AD30B107E1F70E9455390C94A4
:100FA0004C400C940000EF92FF920F931F937B0133
:100FB0008C0120E030E040E05FE40E94A30A882337
:100FC0008CF0C801B70120E030E040E05FE40E940F
:100FD0004B090E94310B9B01AC0120503040404036
:100FE000504806C0C801B7010E94310B9B01AC01FB
:100FF000B901CA011F910F91FF90EF900895A0E0F1
:10100000B0E0E5E0F8E00C94043ADC012B01FA01D1
:101010009C91923008F439C1EB018881823008F448
:1010200033C1943069F4843009F02FC111969C913A
:1010300011978981981709F428C1A6E2B1E025C16A
:10104000843009F421C18230A9F4923009F01DC125
:101050009A01AD0188E0EA010990AE01E901099227
:101060009E018150C1F7E201898111969C918923EB
:10107000818308C1923009F407C112962D903C90EB
:101080001397EB018A819B811496AD90BD90CD9012
:10109000DC901797EC80FD800E811F819101281B49
:1010A000390BB90137FF04C066277727621B730B22
:1010B000603271050CF061C0121613066CF5370131
:1010C0004801062E04C096948794779467940A94F6
:1010D000D2F721E030E040E050E004C0220F331F9F
:1010E000441F551F6A95D2F7215030404040504070
:1010F0002E213F2140235123211531054105510562
:1011000021F021E030E040E050E079018A01E6285A
:10111000F728082919293CC0232BD1F1260E371EA8
:1011200035014601062E04C09694879477946794FF
:101130000A94D2F721E030E040E050E004C0220FF2
:10114000331F441F551F6A95D2F72150304040404D
:1011500050402A213B214C215D21211531054105BB
:10116000510521F021E030E040E050E059016A01F2
:10117000A628B728C828D9280BC0821593052CF0BB
:101180001C01AA24BB24650103C0EE24FF248701AF
:1011900011969C91D20111968C91981709F445C033
:1011A000992339F0A80197012A193B094C095D09D7
:1011B00006C0A60195012E193F09400B510B57FDA2
:1011C00008C0118233822282248335834683578369
:1011D0001DC081E081833382228288279927DC0128
:1011E000821B930BA40BB50B84839583A683B783D3
:1011F0000DC0220F331F441F551F248335834683A0
:1012000057838281938101979383828324813581DF
:1012100046815781DA01C9010197A109B1098F5FA0
:101220009F4FAF4FBF4328F30BC09183338222827D
:10123000EA0CFB1C0C1D1D1DE482F582068317833E
:1012400083E08083248135814681578157FF1AC00E
:10125000C901AA2797FDA095BA2F81709070A07040
:10126000B0705695479537952795822B932BA42BD5
:10127000B52B84839583A683B7838281938101965E
:1012800093838283DF0101C0D201CD01CDB7DEB7E8
:10129000E2E10C94203AA0E2B0E0E1E5F9E00C9440
:1012A000103A69837A838B839C832D833E834F839B
:1012B0005887E9E0EE2EF12CEC0EFD1ECE010196D2
:1012C000B7010E94A90C8E010F5E1F4FCE0105963B
:1012D000B8010E94A90C8A8991E089278A8BC701ED
:1012E000B801AE01475E5F4F0E94FF070E94D40B1A
:1012F000A096E6E00C942C3AA0E2B0E0E2E8F9E037
:101300000C94103A69837A838B839C832D833E836C
:101310004F835887F9E0EF2EF12CEC0EFD1ECE0125
:101320000196B7010E94A90C8E010F5E1F4FCE01DE
:101330000596B8010E94A90CC701B801AE01475E2D
:101340005F4F0E94FF070E94D40BA096E6E00C942A
:101350002C3AA0E2B0E0EFEAF9E00C94043A698399
:101360007A838B839C832D833E834F835887CE0162
:101370000196BE01675F7F4F0E94A90CCE010596C2
:10138000BE016F5E7F4F0E94A90C9985923088F054
:1013900089898230C8F0943019F4823051F404C045
:1013A000843029F4923081F486E291E0C6C0923014
:1013B00049F420E09A858A89981321E02A87CE0192
:1013C0000996BBC0823049F420E09A858A89981337
:1013D00021E02A8BCE014196B0C02D843E844F84FB
:1013E00058886D887E888F88988CEE24FF2487012A
:1013F000AA24BB24650140E050E060E070E0E0E03A
:10140000F0E0C10181709070892BE9F0E60CF71CC7
:10141000081D191D9A01AB012A0D3B1D4C1D5D1DB8
:1014200080E090E0A0E0B0E0E614F70408051905BC
:1014300020F481E090E0A0E0B0E0BA01A901480FFB
:10144000591F6A1F7B1FAA0CBB1CCC1CDD1C97FEFE
:1014500008C081E090E0A0E0B0E0A82AB92ACA2A3A
:10146000DB2A3196E032F10549F0660C771C881CC6
:10147000991C5694479437942794C3CFFA85EA89E8
:101480002B893C898B859C85280F391F2E5F3F4F08
:1014900017C0CA0181709070892B61F0169507956D
:1014A000F794E79480E090E0A0E0B0E8E82AF92A19
:1014B0000A2B1B2B76956795579547952F5F3F4FC6
:1014C00077FDE7CF0CC0440F551F661F771F17FD30
:1014D0004160EE0CFF1C001F111F215030404030B6
:1014E00090E0590790E0690790E4790760F32B8F4B
:1014F0003C8FDB01CA018F779070A070B070803490
:101500009105A105B10561F447FD0AC0E114F1049C
:101510000105110529F0405C5F4F6F4F7F4F407808
:101520001A8EFE1711F081E08A8F4D8F5E8F6F8FBC
:1015300078A383E0898FCE0149960E94D40BA096B0
:10154000E2E10C94203AA8E1B0E0E9EAFAE00C9478
:10155000103A69837A838B839C832D833E834F83E8
:10156000588789E0E82EF12CEC0EFD1ECE01019685
:10157000B7010E94A90C8E010F5E1F4FCE01059688
:10158000B8010E94A90C8985823040F08989823097
:1015900028F0C701B8010E94210D01C08FEF6896A5
:1015A000E6E00C942C3AA8E0B0E0E9EDFAE00C9407
:1015B0000D3A9B01AC0183E08983DA01C9018827D8
:1015C000B7FD83959927AA27BB27B82E211531058A
:1015D0004105510519F482E089833AC08823A9F0B6
:1015E000203080E0380780E0480780E8580729F479
:1015F00060E070E080E09FEC30C0EE24FF248701C3
:10160000E21AF30A040B150B02C079018A018EE17C
:10161000C82ED12CDC82CB82ED82FE820F8318870C
:10162000C801B7010E94850B01971816190684F4AA
:10163000082E04C0EE0CFF1C001F111F0A94D2F7E5
:10164000ED82FE820F831887C81AD90ADC82CB820A
:10165000BA82CE0101960E94D40B2896E9E00C9440
:10166000293AACE0B0E0E7E3FBE00C94143A69837C
:101670007A838B839C83CE010196BE016B5F7F4F83
:101680000E94A90C8D81823061F1823050F184304A
:1016900021F48E81882351F12EC02F81388537FDAA
:1016A00020C06E812F3131051CF06623F9F023C074
:1016B0008EE190E0821B930B29853A854B855C85F2
:1016C00004C056954795379527958A95D2F7662396
:1016D000B1F050954095309521953F4F4F4F5F4F5A
:1016E0000EC020E030E040E050E009C02FEF3FEFB7
:1016F0004FEF5FE704C020E030E040E050E8B90180
:10170000CA012C96E2E00C94303AEF92FF920F93CC
:101710001F937B018C0180E0E81680E0F80681E0F1
:10172000080780E0180788F48FEFE816F104010538
:10173000110531F028F088E090E0A0E0B0E017C09B
:1017400080E090E0A0E0B0E012C080E0E81680E029
:10175000F80680E0080781E0180728F088E190E0AB
:10176000A0E0B0E004C080E190E0A0E0B0E020E2C2
:1017700030E040E050E0281B390B4A0B5B0B04C003
:1017800016950795F794E7948A95D2F7F701E25DED
:10179000FE4F8081281B310941095109C9011F9160
:1017A0000F91FF90EF900895DF92EF92FF920F93C9
:1017B0001F93FC01E480F58006811781D180808130
:1017C000823048F480E090E0A0E1B0E0E82AF92A15
:1017D0000A2B1B2BA5C0843009F49FC0823021F452
:1017E000EE24FF24870105C0E114F1040105110571
:1017F00019F4E0E0F0E096C0628173819FEF6238F7
:1018000079070CF05BC022E83FEF261B370B2A312B
:1018100031052CF020E030E040E050E02AC0B80173
:10182000A701022E04C076956795579547950A94AF
:10183000D2F781E090E0A0E0B0E004C0880F991FEB
:10184000AA1FBB1F2A95D2F70197A109B1098E21C2
:101850009F21A023B1230097A105B10521F081E0CC
:1018600090E0A0E0B0E09A01AB01282B392B4A2B85
:101870005B2BDA01C9018F779070A070B070803453
:101880009105A105B10539F427FF09C0205C3F4F40
:101890004F4F5F4F04C0215C3F4F4F4F5F4FE0E021
:1018A000F0E02030A0E03A07A0E04A07A0E45A07A1
:1018B00010F0E1E0F0E079018A0127C0603871059D
:1018C00064F5FB01E158FF4FD801C7018F77907095
:1018D000A070B07080349105A105B10539F4E7FE20
:1018E0000DC080E490E0A0E0B0E004C08FE390E0A1
:1018F000A0E0B0E0E80EF91E0A1F1B1F17FF05C08D
:1019000016950795F794E794319687E01695079515
:10191000F794E7948A95D1F705C0EE24FF24870158
:10192000EFEFF0E06E2F679566276795902F9F7712
:10193000D794DD24D7948E2F8695492F462B582F88
:101940005D29B701CA011F910F91FF90EF90DF90C1
:101950000895FC01DB01408151812281622F6F7764
:1019600070E0221F2227221F9381892F880F822B4C
:10197000282F30E0991F9927991F11969C93119752
:1019800021153105A9F5411551056105710511F4C0
:1019900082E037C082E89FEF13969C938E93129754
:1019A0009A01AB0167E0220F331F441F551F6A9550
:1019B000D1F783E08C930DC0220F331F441F551FB6
:1019C00012968D919C911397019713969C938E93E9
:1019D0001297203080E0380780E0480780E45807FD
:1019E00058F314962D933D934D935C931797089558
:1019F0002F3F310579F4411551056105710519F441
:101A000084E08C93089564FF03C081E08C9312C03E
:101A10001C9210C02F57304013963C932E93129770
:101A200083E08C9387E0440F551F661F771F8A95CC
:101A3000D1F7706414964D935D936D937C931797D3
:101A400008951F93DC01FB019C91923008F447C07C
:101A50008081823008F443C0943051F411961C9177
:101A6000843099F58181682F70E0611B71093FC056
:101A7000843021F0923031F48230B9F181818823B1
:101A800089F12DC011961C9111978230F1F081815E
:101A90001817D9F412962D913C9113978281938156
:101AA0008217930794F028173907BCF014968D918C
:101AB0009D910D90BC91A02D248135814681578147
:101AC000281739074A075B0718F4112341F00AC0A9
:101AD00082179307A407B50740F4112319F061E0BA
:101AE00070E005C06FEF7FEF02C060E070E0CB01F7
:101AF0001F910895AAE7B0E08C9180688C938C9137
:101B00008F7D8C938C91887F86608C93ECE7F0E0DE
:101B10008081806C808380818F7D80838C918860C0
:101B20008C931092070678940895EAE7F0E080819C
:101B3000877F808380818F7780830895EAE7F0E054
:101B40009081987F982B90830895ECE7F0E0908146
:101B50008295880F880F807C9F73982B90830895BF
:101B6000ECE7F0E090818F71907E892B808308955F
:101B7000EAE7F0E0808180618083808180648083F7
:101B8000089580917A0080740895109207069091CC
:101B90007C008F71907E892B80937C0080917A00ED
:101BA000806180937A004CE550E083B7817F82604A
:101BB00083BF83B7816083BF889583B78E7F83BFE0
:101BC00028E833E1CA010197F1F721503040D1F7FD
:101BD00080910706882349F320917800409179008D
:101BE000942F80E030E0282B392BC90108950E9402
:101BF000C50D969587959695879508951F920F9296
:101C00000FB60F9211248F938FEF809307068F9159
:101C10000F900FBE0F901F901895FC018FB7F8948E
:101C200071836083538342831782168215821482E4
:101C30008FBF0895DC016FB7F89414962D913C91F5
:101C400015972115310531F116968D919C911797B5
:101C5000ED91FC911197E80FF91FE081019617961D
:101C60009C938E93169712964D915C9113978417BF
:101C7000950748F42150304015963C932E931497C5
:101C80006FBF8E2F0895841B950B17969C938E9390
:101C90001697F0CFE0E06FBF8E2F0895FC01AFB72D
:101CA000F8942481358162177307A8F4868197819F
:101CB000860F971F978386834281538184179507E8
:101CC00020F0841B950B97838683261B370B358367
:101CD0002483AFBF089515821482AFBF0895FC011D
:101CE000CB012FB7F8942FBF268137816281738192
:101CF000820F931F0E94CE390190F081E02DE80FF2
:101D0000F91F808108951F93CF93DF93EC01462F35
:101D10001FB7F8942C813D816A817B812617370794
:101D2000B0F48E819F81820F931F0E94CE39E8818B
:101D3000F981E80FF91F40838C819D8101969D8375
:101D40008C831FBF8FEFDF91CF911F9108951FBF2D
:101D500080E0DF91CF911F910895FC018FB7F89437
:101D60008FBF2281338184819581281B390BC90162
:101D70000895FC018FB7F894158214828FBF0895DF
:101D800010920C061092080610920D0610920A0688
:101D90001092090610920B060895CF93DF932EE060
:101DA00032E0F9018491882379F0E9012196F90163
:101DB0006491E0911403F091150381E009959E016F
:101DC000FE018491882391F7DF91CF910895E091EE
:101DD0000906F0910A06309739F0099510920A0623
:101DE000109209060E94CD0E08951F93CF93DF93A2
:101DF000E0911403F091150381E06DE009950E94D4
:101E0000CD0E10910806112359F0CEE0D6E069916D
:101E1000E0911403F091150381E009951150B9F791
:101E2000DF91CF911F910895909315038093140330
:101E30000E94CD0E0895CF93DF9323E132E0F901A4
:101E40008491882379F0E9012196F9016491E09168
:101E50001403F091150381E009959E01FE01849120
:101E6000882391F760910E06662389F0603279F03D
:101E7000CEE0D6E002C0603251F02196E09114032A
:101E8000F091150381E0099568816623A1F7E0913F
:101E90001403F091150381E06AE30995E0911403BE
:101EA000F091150381E060E209952DE132E0F9013E
:101EB0008491882379F0E9012196F9016491E091F8
:101EC0001403F091150381E009959E01FE018491B0
:101ED000882391F7E0911403F091150381E06DE000
:101EE0000995E0911403F091150381E06AE00995EA
:101EF000DF91CF910895582F80910E06803251F5D1
:101F000090E09F5F292F30E0F901E25FF94F808177
:101F10008032B9F3552381F040E005C0E03281F012
:101F20009F5F292F30E0F901E25FF94FE081EE2356
:101F3000A9F74F5F4517B8F3225F394FC9010895DC
:101F40009F5F292F30E0F901E25FF94F80818032F5
:101F5000B9F3EFCF90E020E030E0DCCFDF93CF9318
:101F600000D0CDB7DEB70E947B0FBE016F5F7F4F01
:101F700040E150E00E94A13B0F900F90CF91DF9184
:101F80000895DF93CF9300D0CDB7DEB70E947B0FCB
:101F9000BE016F5F7F4F4AE050E00E94A13B0F906F
:101FA0000F90CF91DF9108950F931F939C018B01A8
:101FB00080910B0690E0880F991F880F991F84531A
:101FC0009D4FB9010E94323D80910B06E82FF0E051
:101FD000EE0FFF1FE450FD4F118300838F5F80934E
:101FE0000B061F910F9108950F931F93882339F4C7
:101FF00080910E068823F1F41F910F91089581308E
:10200000D9F70EE016E0C8016EE276E00E94323D9C
:10201000F80101900020E9F78F01015010400E50A7
:1020200016400093080600930D060E94F50E1F91BE
:102030000F9108958EE296E06EE076E00E94323DC8
:102040001F910F910895FF920F931F93CF93DF93EA
:1020500080E00E94F40F80910E068032C9F188233F
:10206000B9F100E002C0EE2341F00F5FE02FF0E095
:10207000E25FF94FE081E032B1F7002349F1F090DF
:102080000B06FF2019F1CCECD2E010E004C01F5F7A
:1020900024961F15D8F4CE016EE076E0402F50E074
:1020A0000E94393D009799F7E12FF0E0EE0FFF1FF6
:1020B000E450FD4F8081918190930A068093090638
:1020C000DF91CF911F910F91FF9008950E941B0FF8
:1020D0000E94CD0EDF91CF911F910F91FF90089537
:1020E0001F93182F80910C06823009F452C0813062
:1020F00009F448C010920C06812F80528F35A8F544
:1021000020910D06E09108062E1709F4EEC09E2FCF
:102110009F5F90930806291750F4E92FF0E0E25FE3
:10212000F94F82913196808391502917B0F3E22FB5
:10213000F0E0E25FF94F10832F5F20930D060E94BD
:10214000F50E10910D0680910806181760F4E091C5
:102150001403F091150381E068E009951F5F8091F9
:1021600008061817A0F31F9108951D3009F499C0AF
:10217000183091F11F37B9F31B31A9F781E0809333
:102180000C06F1CF1B3509F0B5CF82E080930C0629
:10219000EACF123409F468C0133448F4113419F446
:1021A00081E00E94F40F10920C061F9108951334E1
:1021B00009F44CC01434B9F780910D06882309F452
:1021C0004BC0815080930D06E0911403F0911503EC
:1021D00081E068E00995E7CFE0910D06EE2309F470
:1021E0009BC080910806E81709F49EC0282F215053
:1021F000209308069E2F915090930D06921748F455
:10220000E92FF0E0E25FF94F818180839F5F9217B1
:10221000B8F30E94F50EE0911403F091150381E0EC
:1022200060E2099510910D0608C0E0911403F09149
:10223000150381E068E009951F5F8091080690E032
:10224000212F30E08217930784F78DCF90910D06F0
:1022500080910806981760F0E0911403F09115033F
:1022600081E067E009959FCF82E00E94F40F9BCF49
:102270009F5F90930D06E0911403F091150381E0A8
:102280006BE10995E0911403F091150381E06BE592
:102290000995E0911403F091150381E063E4099539
:1022A00082CFE0911403F091150381E06DE0099570
:1022B000E0911403F091150381E06AE009958091A3
:1022C0000806E82FF0E0E25FF94F10828F5F8093FD
:1022D000080680910D068F5F80930D060E942310E3
:1022E0001092080610920D063ECFE0911403F09173
:1022F000150381E0612F099580910D06E82FF0E02C
:10230000E25FF94F10838F5F80930D06809108067E
:102310008F5F8093080627CFE0911403F091150397
:1023200081E067E009951FCFE0911403F091150358
:1023300081E068E00995E0911403F091150381E0D4
:1023400060E20995E0911403F091150381E068E0E3
:1023500009958091080681508093080680910D06AA
:10236000815080930D06FFCE109217031092160332
:10237000109219031092180310921B0310921A0363
:102380000895882329F0813071F08230C9F00895D2
:10239000809169008C7F8093690080916900862B11
:1023A00080936900089580916900837F809369001C
:1023B00080916900660F660F862B809369000895EF
:1023C000809169008F7C809369008091690062959B
:1023D000607F862B809369000895833040F4E82F56
:1023E000F0E0EE0FFF1FEA5EFC4F718360830895FB
:1023F000833040F4E82FF0E0EE0FFF1FEA5EFC4F61
:102400001182108208951F920F920FB60F9211241D
:102410002F933F934F935F936F937F938F939F93EC
:10242000AF93BF93EF93FF9380911603909117039F
:10243000892B29F0E0911603F09117030995FF917C
:10244000EF91BF91AF919F918F917F916F915F912C
:102450004F913F912F910F900FBE0F901F901895A5
:102460001F920F920FB60F9211242F933F934F9309
:102470005F936F937F938F939F93AF93BF93EF93EC
:10248000FF938091180390911903892B29F0E09113
:102490001803F09119030995FF91EF91BF91AF9146
:1024A0009F918F917F916F915F914F913F912F916C
:1024B0000F900FBE0F901F9018951F920F920FB69E
:1024C0000F9211242F933F934F935F936F937F93BA
:1024D0008F939F93AF93BF93EF93FF9380911A03D2
:1024E00090911B03892B29F0E0911A03F0911B03B3
:1024F0000995FF91EF91BF91AF919F918F917F913E
:102500006F915F914F913F912F910F900FBE0F9060
:102510001F901895BC018091B9008E7F8093B900FF
:102520008091B9008D7F8093B90086E69EE00E947D
:10253000CE39603130F0862F90E0409795958795A1
:10254000682F6093B8000895409A419A1092C3038F
:102550001092C2031092C5031092C40384E690E067
:102560000E948A12ECEBF0E08081846080831092FC
:102570001C0380818068808380818160808380816A
:10258000806480837894089590E0611191E08E7F5B
:10259000982B9093BA0008959093C3038093C2033D
:1025A00008959093C5038093C4030895ECEBF0E085
:1025B00080818F70806A80830895ECEBF0E08081E9
:1025C0008F70806D808308958091BC0087FFFCCF61
:1025D00008958093BB00ECEBF0E080818F70806801
:1025E00080830895882339F48091BC008F708068BF
:1025F0008093BC0008958091BC008F70806C8093A4
:10260000BC0008958091BB0008958091B9000895A1
:10261000982F80911C038823E1F782E080931C03AC
:102620009E7F90931D03662349F0AEE1B3E0FA016B
:1026300081918D938E2F841B8617D0F310926E0399
:1026400060936F038091BC008F70806A8093BC00A0
:102650000895982F80911C038823E1F783E08093ED
:102660001C03916090931D031092C0036093C103FB
:102670008091BC008F70806A8093BC0080911C03A5
:102680008823E1F7662349F0A0E7B3E0FA018D91D2
:1026900081938E2F841B8617D0F30895982FFA010B
:1026A0008091BC008E7F8093BC008091BC008F70B5
:1026B000806A8093BC008091BC0087FFFCCF9E7F26
:1026C0009093BB008091BC008F7080688093BC00A9
:1026D0008091BC0087FFFCCF8091B900883199F0D0
:1026E00091E08091BC008F70806D8093BC008091E0
:1026F000BC0084FFFCCF8091BC0081608093BC0053
:10270000892F08956150662371F081918093BB00F9
:102710008091BC008F7080688093BC008091BC0069
:1027200087FFFCCFEFCF90E0DCCF1F920F920FB668
:102730000F9211242F933F934F935F936F937F9347
:102740008F939F93AF93BF93EF93FF938091B900C3
:1027500090E0A0E0B0E0887F9070A070B070FC01C5
:10276000893C910590F4E25CFF4FEE0FFF1F05904E
:10277000F491E02D099480911D038093BB0080911A
:10278000BC008F7080688093BC00FF91EF91BF9177
:10279000AF919F918F917F916F915F914F913F91F9
:1027A0002F910F900FBE0F901F9018958091C0032E
:1027B0009091BB00E82FF0E0E059FC4F90838F5FD1
:1027C0008093C003803508F48BC080E00E94F21231
:1027D000DCCF84E080931C03E091C403F091C50337
:1027E000309731F080E56EE173E0099580936F03D7
:1027F00010926E0390916E03E92FF0E0E25EFC4FC1
:1028000080818093BB009F5F90936E0380916F03E4
:10281000981708F0B4CF8091BC008F70806C8093C3
:10282000BC00B3CF8091C0039091BB00E82FF0E0D3
:10283000E059FC4F90838F5F8093C0038091BC0070
:102840008F70806D8093BC0010921C039ECF90917E
:102850006E0380916F03981708F455C08091BC00F7
:102860008F70806D8093BC0010921C038ECF80917E
:10287000BC008F70806C8093BC0010921C0385CFCD
:102880008091BC008F7080688093BC0010921C0304
:102890007CCF8091BC008F70806C8093BC00E091F5
:1028A000C203F091C3033097F9F28091C00360E74F
:1028B00073E00995D9CF2091C0038091BB00E22F2E
:1028C000F0E0E059FC4F80832F5F2093C00330E09D
:1028D0008091C10390E00197281739070CF075CF5C
:1028E0008FEF0E94F21251CF85E080931C0310926B
:1028F000C0038091BC008F70806C8093BC0045CF7A
:102900002091C003E4CFE92FF0E0E25EFC4F80812C
:102910009F5F90936E0331CF80911C030895282F01
:10292000DA018091BC008E7F8093BC008091BC0056
:102930008F70806A8093BC008091BC0087FFFCCFC1
:1029400021602093BB008091BC008F7080688093D1
:10295000BC008091BC0087FFFCCF8091B90080341F
:1029600071F091E08091BC008F70806D8093BC000D
:102970008091BC0081608093BC00892F08956230F3
:10298000C0F0262FFD018091BC008F70806C809379
:10299000BC008091BC0087FFFCCF8091BB0081937D
:1029A0002150223080F76250862F90E00196A80FC8
:1029B000B91F8091BC008F7080688093BC008091AB
:1029C000BC0087FFFCCF8091BB008C9390E0CACF06
:1029D000089580E00895EF92FF920F931F93DF9385
:1029E000CF9300D00F92CDB7DEB7E52EF62E072F8E
:1029F0001127E9824A832B8363E0AE014F5F5F4F6B
:102A00000E944E130F900F900F90CF91DF911F9166
:102A10000F91FF90EF900895FF920F931F93DF9314
:102A2000CF9300D0CDB7DEB7F82EBB27A72F962FB8
:102A3000852F89834A838F2D62E08E010F5F1F4FA0
:102A4000A8010E944E138F2D61E0A8010E948F14EF
:102A500089810F900F90CF91DF911F910F91FF907F
:102A600008959093D5038093D40392E094BD85E0BC
:102A700085BD16BC83EB87BD90936E00089590933F
:102A8000D3038093D2031092B60092E09093B000EB
:102A900084E08093B1001092B20088E38093B30089
:102AA000909370000895089585B5887F826085BDF4
:102AB00016BCEEE6F0E080818160808310924E06C5
:102AC00010924F0610925006109251060895E1E8B8
:102AD000F0E08081887F836080831092850010926F
:102AE0008400EFE6F0E08081816080830895E1EB6F
:102AF000F0E08081887F846080831092B200E0E7FC
:102B0000F0E0808181608083109256061092570613
:102B10001092580610925906089580E090E0FC014A
:102B2000EE0FFF1FEA53FC4F11821082019688308E
:102B30009105A9F70E9454150E9467150E94771508
:102B40007894089595B5987F982B95BD0895E1E800
:102B5000F0E09081987F982B9083089585B58093BD
:102B60005A0685B5887F85BD089580915A0685BD32
:102B70000895E1E8F0E0808180935B068081887FA2
:102B80008083089580915B06809381000895E1EB36
:102B9000F0E09081987F982B9083089585B5E82F79
:102BA000F0E0E770F070EE0FFF1FE15DFD4F259143
:102BB0003491C901089580918100E82FF0E0E77019
:102BC000F070EE0FFF1FE15DFD4F25913491C901BB
:102BD00008958091B100E82FF0E0E770F070EE0FFB
:102BE000FF1FE55CFD4F25913491C90108958830A0
:102BF00040F4E82FF0E0EE0FFF1FEA53FC4F718323
:102C000060830895883040F4E82FF0E0EE0FFF1F56
:102C1000EA53FC4F118210820895AF92BF92CF9277
:102C2000DF92EF92FF920F931F938C01F6B41092F4
:102C3000520610925306109254061092550685B50E
:102C4000E82FF0E0E770F070EE0FFF1FE15DFD4F41
:102C50002591349140E050E060E070E488E390E03A
:102C60000E94E239B901CA01693B2DE8720726E0EA
:102C7000820720E0920728F427E20131120708F4C6
:102C800051C028EE33E040E050E00E94E239CA0132
:102C9000B901980140E050E00E94A3395B016C014A
:102CA000AF0CB11CC11CD11CE72EF82E092F112727
:102CB000209152063091530640915406509155068A
:102CC00086B590E0A0E0B0E0542F432F322F2227AA
:102CD000822B932BA42BB52B8A159B05AC05BD0528
:102CE000C0F48091520690915306A0915406B09181
:102CF00055068E159F05A007B107D0F683B7817FD3
:102D000083BF83B7816083BF889583B78E7F83BF7E
:102D1000CFCF1F910F91FF90EF90DF90CF90BF909A
:102D2000AF900895980140E050E00E94A33928EE4A
:102D300033E040E050E00E94E239C901DA01BC0111
:102D4000CD01ACCF10924E0610924F061092500655
:102D500010925106089520914E0630914F064091F1
:102D6000500650915106B901CA01089510925606B5
:102D70001092570610925806109259060895209105
:102D80005606309157064091580650915906B901A0
:102D9000CA0108958930A9F08A30F1F0809180004D
:102DA0008D7F80938000809180008160809380007F
:102DB000109289001092880010928B0010928A0065
:102DC00008958091800082608093800080918000CF
:102DD0008E7F80938000ECCF809180008260809312
:102DE000800080918000816080938000E1CFE0E8E6
:102DF000F0E020812E7F2083208122602083E1E883
:102E0000F0E020812860208320812061208390933E
:102E1000870080938600109289001092880010929B
:102E20008B0010928A000895E0E8F0E080818D7FA9
:102E3000808380818E7F808380818F778083808173
:102E40008F7B808380818F7D808380818F7E808354
:102E50000895E0E8F0E080818068808380818F7B46
:102E600080830895E0E8F0E0808180628083808143
:102E70008F7E80830895E0E8F0E080818F77808303
:102E800080818F7B80830895E0E8F0E080818F7DF2
:102E9000808380818F7E80830895909389008093C2
:102EA0008800089590938B0080938A0008951F9264
:102EB0000F920FB60F9211242F933F934F935F936E
:102EC0006F937F938F939F93AF93BF93EF93FF93F2
:102ED00080914E0690914F06A0915006B0915106F8
:102EE0000196A11DB11D80934E0690934F06A093AD
:102EF0005006B09351068091520690915306A091CE
:102F00005406B09155060196A11DB11D809352063D
:102F100090935306A0935406B09355068091C60330
:102F20009091C703892B29F0E091C603F091C70364
:102F30000995FF91EF91BF91AF919F918F917F91F3
:102F40006F915F914F913F912F910F900FBE0F9016
:102F50001F9018951F920F920FB60F9211242F9366
:102F60003F934F935F936F937F938F939F93AF9311
:102F7000BF93EF93FF938091C8039091C903892B6E
:102F800029F0E091C803F091C9030995FF91EF91F1
:102F9000BF91AF919F918F917F916F915F914F9171
:102FA0003F912F910F900FBE0F901F9018951F9279
:102FB0000F920FB60F9211242F933F934F935F936D
:102FC0006F937F938F939F93AF93BF93EF93FF93F1
:102FD0008091560690915706A0915806B0915906D7
:102FE0000196A11DB11D8093560690935706A0939C
:102FF0005806B09359068091D0039091D103892B44
:1030000029F0E091D003F091D1030995FF91EF9160
:10301000BF91AF919F918F917F916F915F914F91F0
:103020003F912F910F900FBE0F901F9018951F92F8
:103030000F920FB60F9211242F933F934F935F93EC
:103040006F937F938F939F93AF93BF93EF93FF9370
:103050008091D4039091D503892B29F0E091D4037A
:10306000F091D5030995FF91EF91BF91AF919F9199
:103070008F917F916F915F914F913F912F910F9021
:103080000FBE0F901F9018951F920F920FB60F92C0
:1030900011242F933F934F935F936F937F938F935D
:1030A0009F93AF93BF93EF93FF938091CA03909147
:1030B000CB03892B29F0E091CA03F091CB0309954A
:1030C000FF91EF91BF91AF919F918F917F916F9100
:1030D0005F914F913F912F910F900FBE0F901F90D6
:1030E00018951F920F920FB60F9211242F933F93B2
:1030F0004F935F936F937F938F939F93AF93BF9300
:10310000EF93FF938091CC039091CD03892B29F00D
:10311000E091CC03F091CD030995FF91EF91BF9120
:10312000AF919F918F917F916F915F914F913F915F
:103130002F910F900FBE0F901F9018951F920F9216
:103140000FB60F9211242F933F934F935F936F937A
:103150007F938F939F93AF93BF93EF93FF93809150
:10316000CE039091CF03892B29F0E091CE03F0910B
:10317000CF030995FF91EF91BF91AF919F918F91EF
:103180007F916F915F914F913F912F910F900FBE63
:103190000F901F9018951F920F920FB60F92112447
:1031A0002F933F934F935F936F937F938F939F934F
:1031B000AF93BF93EF93FF938091D2039091D3038A
:1031C000892B29F0E091D203F091D3030995FF9167
:1031D000EF91BF91AF919F918F917F916F915F918F
:1031E0004F913F912F910F900FBE0F901F90189508
:1031F000823008F00895E82FF0E0EE0FFF1FED5445
:10320000FA4F7183608308951F93182F9A01AB01C1
:10321000220F331F441F551F220F331F441F551FFA
:10322000220F331F441F551F220F331F441F551FEA
:1032300060E070E488E390E00E94E2392150304081
:10324000112331F42093C4003093C5001F910895D9
:103250002093CC003093CD001F910895282F30E0AB
:10326000220F331F220F331F220F331F225A394FD1
:10327000C9010895282F30E0220F331F220F331F7A
:10328000220F331F2059394FC9010895982FE82F75
:10329000F0E0E45AF94F80818823E9F3992341F063
:1032A0008091C80085FFFCCF6093CE001082089506
:1032B0008091C00085FFFCCF6093C6001082089506
:1032C000682F80E00E9446190895682F81E00E94CF
:1032D0004619089520E0E82FF0E0EE0FFF1FEE0FF3
:1032E000FF1FEE0FFF1FEE59F94F80819181892B4F
:1032F00009F421E0822F08951F93CF93DF93182FB5
:10330000EB016881662339F02196812F0E944619CE
:1033100068816623C9F7DF91CF911F910895CF93FC
:10332000DF938823B1F06091CE00282F30E0E901CF
:10333000CC0FDD1FFE01ED54FA4F80819181892B66
:1033400059F00190F081E02D862F0995DF91CF9102
:1033500008956091C600E9CF220F331F220F331F5B
:10336000220F331FC901825A994F0E94830E88236E
:1033700069F7FE01E058F94F8081918101969183B0
:103380008083E4CF1F920F920FB60F9211242F93D8
:103390003F934F935F936F937F938F939F93AF93DD
:1033A000BF93EF93FF9381E00E948F19FF91EF91FC
:1033B000BF91AF919F918F917F916F915F914F914D
:1033C0003F912F910F900FBE0F901F9018951F9255
:1033D0000F920FB60F9211242F933F934F935F9349
:1033E0006F937F938F939F93AF93BF93EF93FF93CD
:1033F00080E00E948F19FF91EF91BF91AF919F9153
:103400008F917F916F915F914F913F912F910F908D
:103410000FBE0F901F90189590E0880F991F880F8E
:10342000991F880F991F8059994F0E94830E089504
:10343000682F88E796E00E94830E0895682F80E742
:1034400096E00E94830E0895CF93DF93282FA82F34
:10345000B0E0ED01C259D94F88818823C1F0FD0148
:10346000EE0FFF1FEE0FFF1FEE0FFF1FEC58F94F7F
:1034700080819181892B91F02223C1F088E796E029
:103480000E941A0E8093CE00DF91CF910895A45A26
:10349000B94F8FEF8C93DF91CF9108951882A45A82
:1034A000B94F8FEF8C93DF91CF91089580E796E02D
:1034B0000E941A0E8093C600DF91CF9108951F924B
:1034C0000F920FB60F9211242F933F934F935F9358
:1034D0006F937F938F939F93AF93BF93EF93FF93DC
:1034E00081E00E94241AFF91EF91BF91AF919F91CB
:1034F0008F917F916F915F914F913F912F910F909D
:103500000FBE0F901F9018951F920F920FB60F923B
:1035100011242F933F934F935F936F937F938F93D8
:103520009F93AF93BF93EF93FF9380E00E94241A81
:10353000FF91EF91BF91AF919F918F917F916F918B
:103540005F914F913F912F910F900FBE0F901F9061
:1035500018959F92AF92BF92CF92DF92EF92FF9217
:103560000F931F93CF93DF93982E5B016A01E82E90
:10357000FF24F701E45AF94F80818823E9F3F7012A
:10358000EE0FFF1FEE0FFF1FEE0FFF1FEC58F94F5E
:10359000208131812C0D3D1DF701EE0FFF1FEE0F35
:1035A000FF1FEE0FFF1FEE58F94F80819181281702
:1035B000390740F5C114D10429F18701000F111F0B
:1035C000000F111F000F111F0059194FC0E0D0E06C
:1035D000F50161915F01C8010E94830E2196CC150F
:1035E000DD05B0F38EE696E0E80EF91E8FEFF701E9
:1035F0008083C8010E941A0E682F892D0E944619E7
:103600008FEF01C080E0DF91CF911F910F91FF906C
:10361000EF90DF90CF90BF90AF909F9008951F9351
:10362000182F90E0FC01E259F94F2FEF2083880F0B
:10363000991F880F991F880F991F8059994F0E94D1
:103640001A0E682F812F0E9446191F910895CF935B
:10365000DF93EB01282F30E0F901EE0FFF1FEE0F93
:10366000FF1FEE0FFF1FE05AF94F80819181892BD8
:1036700069F0F901EE0FFF1FEE0FFF1FEE0FFF1FA6
:10368000EE59F94F80819181892B21F480E0DF91FF
:10369000CF910895220F331F220F331F220F331FA4
:1036A000C901825A994F0E941A0E88838FEFDF91C9
:1036B000CF910895DF93CF930F92CDB7DEB781E01E
:1036C000BE016F5F7F4F0E94271B882341F08981D5
:1036D000282F30E0C9010F90CF91DF9108952FEF8F
:1036E0003FEFC9010F90CF91DF910895DF93CF9302
:1036F0000F92CDB7DEB780E0BE016F5F7F4F0E94B3
:10370000271B882341F08981282F30E0C9010F90C1
:10371000CF91DF9108952FEF3FEFC9010F90CF9127
:10372000DF91089590E0880F991F880F991F880FE7
:10373000991F825A994F0E94B90E089586E696E025
:103740006DE175E042E350E00E940D0E88E796E0DF
:103750006FE475E044E650E00E940D0E08950E946B
:103760009E1B1092B6051092B50588ED8093C90096
:1037700081E040E05BE460E070E00E9404198FEFBC
:1037800080935D0610926F06109283061092820657
:10379000789408958EE596E066ED73E04FEF50E083
:1037A0000E940D0E80E796E065ED74E048E450E07D
:1037B0000E940D0E08950E94CA1B1092B40510922B
:1037C000B30588ED8093C10080E040E05BE460E0F9
:1037D00070E00E9404198FEF80935C0610926E06D1
:1037E0001092810610928006789408950E94DB1B47
:1037F0000E94AF1B08950F931F93DF93CF93CDB714
:10380000DEB760970FB6F894DEBF0FBECDBF2DB701
:103810003EB7285030400FB6F8943EBF0FBE2DBFC4
:10382000EDB7FEB731968E010F5F1F4FADB7BEB734
:1038300012961C930E9311972BE432E0338322836C
:1038400084831582668317820E948D3D2DB73EB713
:10385000285F3F4F0FB6F8943EBF0FBE2DBFE091DB
:10386000B705F091B80581E0B801099560960FB6EB
:10387000F894DEBF0FBECDBFCF91DF911F910F91A6
:1038800008950F931F93DF93CF93CDB7DEB7609763
:103890000FB6F894DEBF0FBECDBF882329F500D048
:1038A00000D08E010F5F1F4FEDB7FEB7128301836B
:1038B00084E592E0948383830E948D3D0F900F9066
:1038C0000F900F90E091B705F091B80581E0B80135
:1038D000099560960FB6F894DEBF0FBECDBFCF91AD
:1038E000DF911F910F91089500D000D08E010F5FDE
:1038F0001F4FEDB7FEB7128301838BE592E09483EF
:1039000083830E948D3D0F900F900F900F90DACF20
:103910000F931F93DF93CF93CDB7DEB760970FB6AA
:10392000F894DEBF0FBECDBF00D000D000D0EDB701
:10393000FEB731968E010F5F1F4FADB7BEB712961F
:103940001C930E93119722E632E033832283848303
:1039500015820E948D3D8DB79EB706960FB6F894DE
:103960009EBF0FBE8DBFE091B705F091B80581E015
:10397000B801099560960FB6F894DEBF0FBECDBFB3
:10398000CF91DF911F910F9108950F931F93DF93B4
:10399000CF93CDB7DEB760970FB6F894DEBF0FBEFA
:1039A000CDBF00D000D08E010F5F1F4FEDB7FEB727
:1039B0001283018388E692E0948383830E948D3D85
:1039C0000F900F900F900F90E091B705F091B80510
:1039D00081E0B801099560960FB6F894DEBF0FBE7E
:1039E000CDBFCF91DF911F910F9108950F931F933A
:1039F000DF93CF93CDB7DEB760970FB6F894DEBFF5
:103A00000FBECDBF9093B8058093B70500D000D00E
:103A10008E010F5F1F4FEDB7FEB7128301838DE656
:103A200092E0948383830E948D3D0F900F900F90BE
:103A30000F90E091B705F091B80581E0B8010995C4
:103A400060960FB6F894DEBF0FBECDBFCF91DF9169
:103A50001F910F91089581E00E94BD24A0E0B0E085
:103A6000BC01CD0120E03AE040E050E00E94A339E3
:103A70009B01AC019AE056954795379527959A9505
:103A8000D1F7220F331F441F551FB901CA010895F2
:103A9000EF92FF920F931F93DF93CF93CDB7DEB7D3
:103AA000A0970FB6F894DEBF0FBECDBF80E00E9496
:103AB000BD24A0E0B0E0BC01CD0120E03AE040E050
:103AC00050E00E94A3392AE09695879577956795EF
:103AD0002A95D1F72CED33E040E050E00E94A33965
:103AE0002DB73EB7285030400FB6F8943EBF0FBEFA
:103AF0002DBF0DB71EB70F5F1F4F7E010894E11C4D
:103B0000F11CEDB7FEB7F282E18220E732E0F80166
:103B10003383228322EC3BE040E050E00E94E23914
:103B2000F80124833583468357830E948D3D2DB74A
:103B30003EB7285F3F4F0FB6F8943EBF0FBE2DBF74
:103B4000892B19F0C7010E946734A0960FB6F8942C
:103B5000DEBF0FBECDBFCF91DF911F910F91FF90C0
:103B6000EF900895BF92CF92DF92EF92FF920F9362
:103B70001F93DF93CF93CDB7DEB7A0970FB6F8941E
:103B8000DEBF0FBECDBF039B66C0BB24029B5EC0E1
:103B90000E942B1D7B018C012DB73EB72850304071
:103BA0000FB6F8943EBF0FBE2DBFEDB7FEB73196EE
:103BB0006E010894C11CD11CADB7BEB71296DC9241
:103BC000CE9211978CEC92E093838283E482F5820B
:103BD000068317830E948D3D2DB73EB7285F3F4F68
:103BE0000FB6F8943EBF0FBE2DBF892B59F534EEAA
:103BF000E3163CE0F30630E0030730E0130788F4F7
:103C000083EA92E00E94EC348EE892E00E94EC3469
:103C10005E9810928506109286061092870632E012
:103C2000B32E8B2DA0960FB6F894DEBF0FBECDBF7E
:103C3000CF91DF911F910F91FF90EF90DF90CF9088
:103C4000BF900895C6010E946734D1CF84EE92E000
:103C50000E94EC349DCF86EF92E00E94EC34BB24AE
:103C6000B39494CF0F931F938C01DC0115964C9164
:103C7000159714962C9114972150842F90E08370FF
:103C80009070FC01EE0FFF1FE80FF91FEE0FFF1FF2
:103C9000EE0FFF1FE20FF11DEE0FFF1FE85CFD4F5F
:103CA00013962C91215060817181620F711D469590
:103CB000469550E025EB35E0F9014E9F90014F9F6E
:103CC000300D5E9F300D1124620F731F80E090E075
:103CD00028E130E040E050E00E94A339D80112967C
:103CE0002C91620F711D811D911D2CE330E040E08D
:103CF00050E00E94A339F8012181620F711D811DDE
:103D0000911D2CE330E040E050E00E94A3399B017C
:103D1000AC01D8018C91280F311D411D511DB901F5
:103D2000CA011F910F9108954F925F926F927F92F7
:103D30008F929F92AF92BF92CF92DF92EF92FF92BB
:103D40000F931F93CF93DF935C017A018B01CB011B
:103D5000BA012CE330E040E050E00E94E239F50186
:103D60006083C801B7012CE330E040E050E00E94DE
:103D7000E239122F032FF42EE52E622F732F842F9A
:103D8000952F2CE330E040E050E00E94E239F5014D
:103D90006183612F702F8F2D9E2D2CE330E040E04A
:103DA00050E00E94E239122F032FF42EE52E622FED
:103DB000732F842F952F28E130E040E050E00E94DF
:103DC000E239F5016283612F702F8F2D9E2D28E13E
:103DD00030E040E050E00E94E239722E632E542E13
:103DE000452E622F732F842F952F25EB35E040E071
:103DF00050E00E94E2397B018C0180918002909119
:103E00008102A0E0B0E0E816F9060A071B0708F0F7
:103E10006FC08091680290916902A0E0B0E0E8165E
:103E2000F9060A071B0708F067C0809150029091BD
:103E30005102A0E0B0E0E816F9060A071B0708F0F7
:103E40005FC0CC24DD244601880C991CF401EC0DE4
:103E5000FD1DEE0FFF1FEE0FFF1FEE0FFF1FE25BBA
:103E6000FD4FCBE0D0E080819181A0E0B0E0E8168A
:103E7000F9060A071B0720F421973297209799F734
:103E8000672D762D852D942D25EB35E040E050E013
:103E90000E94E239220F220F2C0DF50125839E018D
:103EA0002F5F24839E2D9F5FC80CD91CCC0CDD1C7A
:103EB000CC0CDD1CCC0EDD1ECC0CDD1CE8E3F2E0EE
:103EC000CE0EDF1EF6018081981BF5019383DF91F2
:103ED000CF911F910F91FF90EF90DF90CF90BF9007
:103EE000AF909F908F907F906F905F904F900895CC
:103EF000A3E0CA2ED12CA7CFF2E0CF2ED12CA3CF96
:103F0000E1E0CE2ED12C9FCFDF93CF93CDB7DEB79C
:103F1000C254D0400FB6F894DEBF0FBECDBF22E032
:103F20008030920708F03DC0A0E0B0E0880F991FF4
:103F3000AA1FBB1F880F991FAA1FBB1F880F991F9D
:103F4000AA1FBB1F880F991FAA1FBB1F880F991F8D
:103F5000AA1FBB1F880F991FAA1FBB1F99838A83A3
:103F6000DB01FE0133969E012D5B3F4F8D918193C6
:103F7000E217F307D9F780EA62E4AE014F5F5F4FC3
:103F80000E944E1380E092E10197F1F780E0CE5B52
:103F9000DF4F0FB6F894DEBF0FBECDBFCF91DF91DC
:103FA000089581E0F4CF0F931F93CF93DF938C019B
:103FB000C9EBD5E005C0229685E0C93FD80769F076
:103FC00088819981B8010E94841F8823A1F381E030
:103FD000DF91CF911F910F91089580E0DF91CF91F4
:103FE0001F910F910895DF93CF9300D000D000D0A0
:103FF000CDB7DEB79D838C838D8189838C818A8345
:104000006B8380EA63E0AE014F5F5F4F0E944E1307
:10401000882371F480E092E10197F1F780E0269621
:104020000FB6F894DEBF0FBECDBFCF91DF910895DC
:1040300081E0F5CF0F931F93DF93CF9300D00F92C2
:10404000CDB7DEB78B0122E08030920748F081E0E7
:104050000F900F900F90CF91DF911F910F910895C6
:10406000A0E0B0E0880F991FAA1FBB1F880F991FFF
:10407000AA1FBB1F880F991FAA1FBB1F880F991F5C
:10408000AA1FBB1F880F991FAA1FBB1F880F991F4C
:10409000AA1FBB1F99838A8380EA62E0AE014F5F4B
:1040A0005F4F0E94081380EA60E4A8010E94291370
:1040B00080E00F900F900F90CF91DF911F910F91A3
:1040C0000895EF92FF920F931F93DF93CF93CDB795
:1040D000DEB7C454D0400FB6F894DEBF0FBECDBFDC
:1040E0008C011A821982E0E0F0E0B3E0EB2EF12CB3
:1040F000EC0EFD1EEE0FFF1FE754FA4F80819181F9
:10410000B7010E941A208823B1F420E030E005C0F6
:104110002F5F3F4F2034310541F1F701E20FF31FCC
:10412000D801A20FB31F90818C91981789F38091C9
:104130008406882379F481E0CC5BDF4F0FB6F894D6
:10414000DEBF0FBECDBFCF91DF911F910F91FF90CA
:10415000EF900895CE01019661E00E94CF34C7012F
:1041600060E40E94CF3481E0E7CFE981FA813196A3
:10417000E032F10518F4FA83E983BCCF80E0DCCFAC
:104180000F931F93DF93CF9300D00F92CDB7DEB77D
:104190008B019A838B8380EA62E0AE014E5F5F4FB2
:1041A0000E94081380EA61E0AE014F5F5F4F0E94FA
:1041B00029138981F80180830F900F900F90CF9180
:1041C000DF911F910F9108951F93DF93CF9300D03C
:1041D0000F92CDB7DEB780E090E0BE016E5F7F4FFB
:1041E0000E94C02080E090E060E00E94F31F8823DE
:1041F00049F010E0812F0F900F900F90CF91DF9139
:104200001F91089580E090E8BE016D5F7F4F0E948E
:10421000C02080E090E860E80E94F31F882371F0DE
:1042200010E080E090E06A810E94F31F812F0F90E0
:104230000F900F90CF91DF911F91089580E090E053
:10424000BE016F5F7F4F0E94C0208981882311F0DB
:1042500011E0E7CF80E090E86B810E94F31F12E04D
:10426000E0CF5F926F927F928F929F92AF92BF92B8
:10427000CF92DF92EF92FF920F931F93DF93CF9332
:10428000CDB7DEB7C054D0400FB6F894DEBF0FBE36
:10429000CDBF0E94E420E82E81E0E81609F43DC17C
:1042A000E2E0EE1609F434C185E793E00E94EC34B5
:1042B00009EB15E00DC0F2E0EF1609F46DC0F8014E
:1042C000118210820E5F1F4FF5E0093F1F0741F179
:1042D000F1E0EF1681F70E94933B0E94D30A20E0A1
:1042E00030E040E058E30E94A90920E03CEF4FE7AE
:1042F00056E40E94A9090E94D3077F730024660F29
:10430000771F001C660F771F001C672F702DF801A8
:10431000718360830E5F1F4FF5E0093F1F07C1F6F1
:10432000552419EBC12E15E0D12E8824992452E092
:10433000652E712C6C0C7D1C5301FF24F39401E05D
:1043400010E006C0F3940F2D10E0FFE1FF16D1F04E
:10435000F501219131915F01F601808191818217F0
:10436000930781F7F1E0EF16B9F1F2E0EF1609F4E7
:1043700059C0F60111821082F3940F2D10E0FFE175
:10438000FF1631F70894811C911C8FE18816910467
:1043900009F46EC06301CBCF0E94933B0E94D30A05
:1043A00020E030E040E058E30E94A90920E03EEF21
:1043B0004FEF56E40E94A9090E94D3077F7700249B
:1043C000660F771F001C660F771F001C672F702D6C
:1043D000F8017183608376CF0E94933B080D191D0D
:1043E000000F111F07541A4F0E94D30A20E030E03B
:1043F00040E058E30E94A90920E03CEF4FE756E473
:104400000E94A9090E94D3077F730024660F771FBB
:10441000001C660F771F001C672F702DF801718339
:10442000608390CF0E94933B080D191D000F111F50
:1044300007541A4F0E94D30A20E030E040E058E3CE
:104440000E94A90920EE3FEF4FEF58E40E94A9090E
:104450000E94D30777700024660F771F001C660F39
:10446000771F001C672F702DF801718360836ACF5E
:104470005394E8E05E1609F054CF8E010F5F1F4F92
:10448000C8016AEA70E040E450E00E942B3D809150
:1044900084068823C1F5C8010E94D31F882349F4EC
:1044A00085E493E00E94EC34C8010E9461208823D7
:1044B00089F4C80165E570E040E450E00E942B3DBE
:1044C00080918406882309F04FC0C8010E94D31F41
:1044D000882341F191E0892FC05CDF4F0FB6F8943B
:1044E000DEBF0FBECDBFCF91DF911F910F91FF9027
:1044F000EF90DF90CF90BF90AF909F908F907F9084
:104500006F905F90089584E593E00E94EC34C3CFF0
:1045100081E993E00E94EC34CBCE8AEA93E00E94DA
:10452000EC34C6CE85E193E00E94EC34C8010E94D1
:104530006120882379F680918406882321F086E023
:1045400093E00E94EC34C8016FEF70E040E450E06B
:104550000E942B3DC8010E94D31F90E0882309F4DC
:1045600091E081E09827B7CF84E293E00E94EC3499
:10457000ACCF6F927F928F929F92AF92BF92CF9269
:10458000DF92EF92FF920F931F93DF93CF93CDB7FC
:10459000DEB7C855D0400FB6F894DEBF0FBECDBF12
:1045A0000E94E4208130F1F0823009F48DC086ED64
:1045B00093E00E94EC3481E0C85ADF4F0FB6F894C4
:1045C000DEBF0FBECDBFCF91DF911F910F91FF9046
:1045D000EF90DF90CF90BF90AF909F908F907F90A3
:1045E0006F900895C12C12E0D12EB9E16B2E712C81
:1045F0006C0E7D1EF301CE01875A9F4F2FEF219342
:10460000E817F907E1F700D000D000D0EDB7FEB70A
:1046100031965E010894A11CB11CADB7BEB71296CD
:10462000BC92AE92119786EC93E093838283D582FD
:10463000C4820E948D3D2DB73EB72A5F3F4F0FB613
:10464000F8943EBF0FBE2DBF892B09F041C0EE2468
:10465000FF24A3EC8A2EA3E09A2E0BC0C701B3015E
:104660000E94841F882371F50C151D0508F0A4CF46
:10467000780187010F5F1F4F00D000D000D0EDB749
:10468000FEB73196ADB7BEB71296BC92AE921197F7
:1046900093828282158304830E948D3D2DB73EB79D
:1046A0002A5F3F4F0FB6F8943EBF0FBE2DBF892B38
:1046B000A9F2C5010E946734C701B3010E94841F9B
:1046C000882391F281E078CFC12C04E0D02E8DCFE9
:1046D000C5010E946734BBCF2F923F924F925F92E9
:1046E0006F927F928F929F92AF92BF92CF92DF9202
:1046F000EF92FF920F931F93DF93CF93CDB7DEB767
:10470000C055D0400FB6F894DEBF0FBECDBF0E949B
:10471000E420813009F1823009F4C3C087E094E0DD
:104720000E94EC34C05BDF4F0FB6F894DEBF0FBEC3
:10473000CDBFCF91DF911F910F91FF90EF90DF9050
:10474000CF90BF90AF909F908F907F906F905F9031
:104750004F903F902F900895412C22E0522E00D090
:1047600000D000D0EDB7FEB731966E010894C11CA1
:10477000D11CADB7BEB71296DC92CE9211978BEFDB
:1047800093E093838283558244820E948D3DEDB7EE
:10479000FEB736960FB6F894FEBF0FBEEDBF892B5D
:1047A00009F088C0662477248824992491E1292E71
:1047B000312C2C0E3D1E81E2A82EB12CAC0EBD1E5C
:1047C000C301B1010E941A20882309F0ABCFEE2467
:1047D000FF2400D000D000D0EDB7FEB73196ADB7C2
:1047E000BEB71296DC92CE92119725EF33E0338359
:1047F0002283C701880D991D958384830E948D3D76
:10480000ADB7BEB716960FB6F894BEBF0FBEADBF1C
:10481000892B09F487CFF60101900020E9F7319741
:10482000EC19FD09C6016E2F0E9437348101F80191
:1048300080810E940C34009709F474CF63E00E94D9
:1048400037340F5F1F4F0A151B0589F700D000D0C2
:10485000ADB7BEB71296DC92CE921197E2EFF3E0BD
:104860001496FC93EE9313970E948D3D0F900F903A
:104870000F900F90892BC9F420E130E0E20EF31E77
:1048800030E4E316F10409F0A4CF0894611C711C14
:1048900080E490E0880E991E6414750408F490CFAB
:1048A00041CF412C34E0532E5ACFC60162E00E9422
:1048B0003734E2CFC6010E94673474CF0E94A4123D
:1048C000089581B1806E81B982B18F7182B90895E6
:1048D0006091F9057091FA056F5F7F4F7093FA054B
:1048E0006093F90545E050E0A1E0B0E0FA01E0583E
:1048F000F94F8081882361F180818F3F31F0808181
:1049000090E086239723892B19F122B1CD01042E43
:1049100002C0880F991F0A94E2F7282B22B94F5F33
:104920005F4F4830510511F78091FB059091FC05D0
:10493000A091FD05B091FE050196A11DB11D8093CA
:10494000FB059093FC05A093FD05B093FE0508952B
:1049500022B1CD01042E02C0880F991F0A94E2F7FC
:104960008095822382B9DBCF6091FB057091FC05B5
:104970008091FD059091FE050895CF92DF92EF9210
:10498000FF920F931F93F82E0EE710E0F801E080DE
:10499000D1B0C2B0208181E090E00F2C02C0880F1E
:1049A000991F0A94E2F7282B208321B180952823B0
:1049B00021B922B1822382B983E00E94A50D64E669
:1049C00070E080E090E00E948F338F2D0E94C50D33
:1049D0008F2D0E94C50DF801E082D1B8C2B81F9199
:1049E0000F91FF90EF90DF90CF9008951F920F925C
:1049F0000FB60F9211248F9380918F068F5F809353
:104A00008F0680918F0680FD08C0109285068F91D9
:104A10000F900FBE0F901F9018958FEF8093850613
:104A20008F910F900FBE0F901F90189586E296E021
:104A30000E94EC34469A68EC70E080E090E00E94BE
:104A40008F33469881E090E00E94AF3386B1807842
:104A50000895FF920F931F93F82E0E942E19FC01C8
:104A6000068117818F2D0E942E19FC012081318132
:104A7000200F311FC9011F910F91FF9008951F93BF
:104A8000182F862F90E00E94C033812F0E946A1950
:104A9000882339F00E94BA33892BB9F780E01F913F
:104AA000089568E670E080E090E00E948F33812FE7
:104AB0000E942E1960E00E94830E882381F381E01A
:104AC0001F910895FF920F931F93CF93DF93F82EBA
:104AD0008B016115710529F0642F0E943F25882301
:104AE00049F4C0E0D0E0CE01DF91CF911F910F914A
:104AF000FF9008958F2D0E942925EC01B8010E9496
:104B0000473D009771F3CE01DF91CF911F910F9137
:104B1000FF900895EF92FF920F931F93CF93DF932F
:104B2000F82E162F072FEA01E22E809184068823A3
:104B3000A9F58F2D0E94921BE12FF02FDF010D9020
:104B40000020E9F71197AE1BBF0B8F2D612F702F3F
:104B5000AD010E94A91AEE2051F4C0E0D0E0CE01D0
:104B6000DF91CF911F910F91FF90EF9008958F2DBE
:104B7000BE014E2D0E946225EC01009781F38091C9
:104B80008406882361F3CE010E946734CE01DF9151
:104B9000CF911F910F91FF90EF900895862F972F3F
:104BA0000E946734C6CFAF92BF92CF92DF92EF924E
:104BB000FF920F931F93DF93CF93CDB7DEB7C0550E
:104BC000D0400FB6F894DEBF0FBECDBFD82E8B01FC
:104BD0007A01C22ECB010E94083D0197CF97A8F021
:104BE00020E030E0C901C05BDF4F0FB6F894DEBFB4
:104BF0000FBECDBFCF91DF911F910F91FF90EF902E
:104C0000DF90CF90BF90AF90089581E1A82EB12C96
:104C1000AC0EBD1EC501B8010E94013D892B01F3F8
:104C2000C7010E94083D01970F97D0F68E010F5FD4
:104C30001F4FC801B7010E94013D892B89F28D2DBC
:104C4000B501A8012C2D0E948A259C01CBCF2F9263
:104C50003F924F925F927F928F929F92AF92BF92BC
:104C6000CF92DF92EF92FF920F931F93DF93CF9338
:104C7000CDB7DEB7C255D0400FB6F894DEBF0FBE39
:104C8000CDBF2B01FB01108266E474E043E454E0E5
:104C90002CE30E94D325FC01009709F4D9C0808140
:104CA000882309F4D5C04F010894811C911C7F0111
:104CB00000E010E0772433E2232E312C2C0E3D1E31
:104CC0000AC08932A1F1F40181914F010894E11CDD
:104CD000F11C882369F0DE2CCF2C883291F78401F7
:104CE000F40181914F010894E11CF11C882399F78C
:104CF000772009F4ADC0F201708281E0CE5ADF4F17
:104D00000FB6F894DEBF0FBECDBFCF91DF911F91DC
:104D10000F91FF90EF90DF90CF90BF90AF909F905A
:104D20008F907F905F904F903F902F9008959E2D91
:104D3000901B09F4A7C0D101F80181918D938E2FAA
:104D4000801B8917D0F3E92FF0E0E20DF31D1082EC
:104D5000C10161E474E00E94113D8C01009709F4E7
:104D600072C06C010894C11CD11CC6016FE374E0D1
:104D70000E94113D5C010097E9F0482F4C1909F49D
:104D800084C0502FDE011396F80181818D933196F6
:104D90008E2F851B8417C8F3E42FF0E083E090E0AA
:104DA0008C0F9D1FE80FF91F1082809184068823C5
:104DB00009F050C0C50101966DE374E00E94113DF9
:104DC0008C01009709F47FCF01966BE374E00E9499
:104DD000113D0097A9F1E7E0E71590F15C01089417
:104DE000A11CB11C6A2D601B09F440C0C72CDD2436
:104DF000702FA601440F551F440F551F440F551F18
:104E0000DA01AC0DBD1D1196A40DB51DF8018191FF
:104E10008D938E2F871B8617D0F3862F90E04C0D35
:104E20005D1D440D551D480F591FFA0111827394E1
:104E3000F501818189831A8280918406882379F41F
:104E400000E010E040CF8D2D9C2D9C015901B2CF88
:104E500080E054CFCE0103960E946734ABCFCE01E1
:104E600001960E94673400E010E02DCFC72CDD24AE
:104E700080E090E0A601440F551F440F551F440FDA
:104E8000551FCDCFE0E0F0E060CFE0E0F0E086CF6E
:104E9000EF92FF920F931F93CF93DF93E82EEB01D6
:104EA000F42E809184068823B1F1FF2021F110E0D7
:104EB00000E00AC0813339F1853329F11F5FCE014B
:104EC0000E94AF331F15B8F48E2D6CEB74E049EBE4
:104ED00054E022E00E94D325009781F367EB74E051
:104EE0000E94113DFC01009749F38181833311F742
:104EF0000F5F033019F780E0DF91CF911F910F9181
:104F0000FF90EF90089581E0DF91CF911F910F9175
:104F1000FF90EF90089587EC94E00E94EC34C5CFA9
:104F2000DF92EF92FF920F931F93CF93DF93D82ED0
:104F30007B01042F80918406882309F442C000235A
:104F400049F110E0C0E0D0E00AC0813389F1853337
:104F500079F1C7010E94AF332196C017D8F4809130
:104F60008406882331F4C0FF1EC081E06CE50E94F6
:104F700046198D2D6DED74E04AED54E022E00E945B
:104F8000D325FC01009729F383858333F1F61F5F56
:104F90001330F9F680E0DF91CF911F910F91FF90D0
:104FA000EF90DF90089581E06FE20E944619E1CF13
:104FB00081E0DF91CF911F910F91FF90EF90DF90F3
:104FC000089587EE94E00E94EC34B9CF4F925F923F
:104FD0006F927F928F929F92BF92CF92DF92EF92C9
:104FE000FF920F931F93DF93CF93CDB7DEB7E09778
:104FF0000FB6F894DEBF0FBECDBFB82E2B0158E917
:10500000C52E52E0D52E4E010894811C911C45E21C
:10501000642E45E0742E0AC0E4E0F0E0CE0EDF1E00
:10502000F8EBCF16F2E0DF0609F44FC0D601ED90A1
:10503000FD900D911C918B2DB801A7010E940419C0
:1050400064E670E080E090E00E948F33EDB7FEB739
:1050500038970FB6F894FEBF0FBEEDBF3196ADB7CF
:10506000BEB712969C928E92119773826282E482EE
:10507000F582068317830E948D3DEDB7FEB7389603
:105080000FB6F894FEBF0FBEEDBF892B29F2C40105
:105090000E9467348B2D61E275E04EE155E022E01D
:1050A0000E94D325892B09F4B7CFD201ED92FD924E
:1050B0000D931C9313978B2D68E175E045E155E046
:1050C00022E00E94D32581E001C080E0E0960FB687
:1050D000F894DEBF0FBECDBFCF91DF911F910F912E
:1050E000FF90EF90DF90CF90BF909F908F907F9038
:1050F0006F905F904F9008958F929F92AF92BF9262
:10510000DF92EF92FF920F931F93DF93CF93CDB770
:10511000DEB7C956D0400FB6F894DEBF0FBECDBF84
:10512000D82E662309F49EC080918406882309F452
:1051300090C010E071E2E72EF12CEC0EFD1E8D2DDB
:10514000B7010E942726882339F485E090E00E9469
:10515000AF331F5F143199F7E9A0EE2009F45FC067
:105160008E010E5D1F4FFF245E010894A11CB11C2F
:1051700067EA862E64E0962E06C0F394075F1F4F01
:10518000FE1408F04CC000D000D000D0EDB7FEB740
:105190003196ADB7BEB71296BC92AE92119793827C
:1051A0008282158304830E948D3D2DB73EB72A5F0E
:1051B0003F4F0FB6F8943EBF0FBE2DBF892BE9F2CB
:1051C0008D2DB50140E051E025E00E948A25892B14
:1051D000A1F265E070E080E090E00E948F33809162
:1051E0008E06882311F010928E068D2D6AE070E0F5
:1051F0004AE00E949027882381F18D2D6AE070E0BB
:1052000045E00E9448278823E1F583E994E00E9465
:10521000EC34F394075F1F4FFE1408F4B4CF809171
:105220008E06882319F010928E0680E0C759DF4F52
:105230000FB6F894DEBF0FBECDBFCF91DF911F91A7
:105240000F91FF90EF90DF90BF90AF909F908F9065
:10525000089581E080938E066CCF8CE794E00E94E5
:10526000EC348BCF6AE070E04AE00E9490278823FC
:1052700051F08D2D6AE070E045E00E9448278823B8
:1052800041F081E0D3CF81E594E00E94EC3480E0EE
:10529000CDCF88E694E00E94EC3480E0C7CFAF9297
:1052A000BF92DF92EF92FF920F931F93DF93CF9302
:1052B000CDB7DEB7A4970FB6F894DEBF0FBECDBF53
:1052C000D82E7A018B01BE016F5F7F4F0E94E627C7
:1052D000882389F480E0A4960FB6F894DEBF0FBE51
:1052E000CDBFCF91DF911F910F91FF90EF90DF9095
:1052F000BF90AF9008952DB73EB7285030400FB6FD
:10530000F8943EBF0FBE2DBFEDB7FEB73196A5E0B6
:10531000AA2EB12CAC0EBD1EADB7BEB71296BC9274
:10532000AE92119786E095E093838283E482F582C2
:10533000068317830E948D3D2DB73EB7285F3F4FF0
:105340000FB6F8943EBF0FBE2DBF892B19F28D2DDD
:10535000B50140E051E025E00E948A25892B09F43F
:10536000B9CF8D2DB801A7010E94041985E090E006
:105370000E94AF3381E0AFCF1F93182F8CEA95E0E6
:105380000E94EC34379920C085E995E00E94EC3406
:10539000812F6CE875E049E855E025E00E94D325AF
:1053A000892B51F18FE090E00E94C033379904C0FF
:1053B0000E94BA33892BD1F70E94BA33892B51F45A
:1053C0000E941625882381F486E395E00E94EC3440
:1053D0001F91089585E090E00E94AF3386E395E049
:1053E0000E94EC341F9108958BE495E00E94EC3408
:1053F000812F0E94BC29E8CF82E795E00E94EC341F
:10540000459A84E090E00E94AF334598CBCF10924C
:105410008E0680E00E94BC2908951F9380E196E0EB
:105420000E94EC340E942B1D65597C4080409040C6
:1054300070F0379918C011E084EE95E00E94EC34CA
:1054400081E090E00E94AF33812F1F91089583EC9B
:1054500095E00E94EC3410E081E090E00E94AF33D0
:10546000812F1F91089588EF95E00E94EC34459AB2
:105470008AE090E00E94AF33459881E090E00E947E
:10548000AF33379BD8CF0E94162510E08823A1F6B2
:10549000D2CF0F931F93DF93CF930F92CDB7DEB789
:1054A00082E00E94DE33809160008068809360001B
:1054B000809160008064809360000E940D2A8823A0
:1054C00031F40F90CF91DF911F910F91089580E0FB
:1054D00040E05BE460E070E00E944F29882389F39C
:1054E00083E294E00E94EC342DE088E190E00FB676
:1054F000F894A895809360000FBE209360008E0101
:105500000F5F1F4F11C0F89480918C0682608093CA
:105510008C06789481E0B8010E94271B8823B1F49F
:1055200080918C068330D1F0F89480918C06816054
:1055300080938C06789480E0B8010E94271B882312
:1055400011F381E069810E944619DDCF80E0698115
:105550000E94461980918C06833031F7A8951092ED
:105560008C06E2CF089580E996E00895EF92FF92CD
:105570000F931F93CF93DF937C01FC01848195816E
:10558000892B51F44CC0C7010E941A0EF701848187
:105590009581892B09F443C0C70160E070E00E9447
:1055A0006F0E843281F7F70184819581019702970C
:1055B000B0F101E010E00AC0E80121968E01F70188
:1055C000848195810197C817D90748F5C701B801AB
:1055D0000E946F0E8D3081F7E8012196C701BE0150
:1055E0000E946F0E8A3051F7C7010E941A0E0150B7
:1055F0001040E9F0C0E0D0E00BC0C7010E941A0ED5
:10560000FE01E057F94F80832196C017D10778F447
:10561000CF34D10590F3C7010E941A0EF5CF80E078
:10562000DF91CF911F910F91FF90EF900895005758
:10563000194FF8011082C7010E941A0EC7010E947B
:105640001A0E8FEFEDCF1092EF061092EE06EA9849
:1056500008958091E1069091E20601969093E2060A
:105660008093E1060895682F70E080E040E050E00C
:10567000282F220FCB01042E02C0959587950A94FE
:10568000E2F78170822B4F5F5F4F4830510581F701
:105690000895382F8A3080F0282F2A50822F6AE010
:1056A0000E94C239392F822F0E94C2398F5F8295A2
:1056B000807F3F70832B089580E0FBCF982F8295E9
:1056C0008F702AE0829F802D11249F70890F08958A
:1056D000880F80660E94081308958091EB068E7FE4
:1056E0008093EB068091EB068D7F8093EB06809193
:1056F000EB068B7F8093EB068091EB06877F809390
:10570000EB068091EB068F7E8093EB068091EB0693
:1057100080628093EB068091EB0680648093EB06B9
:105720008091EB0680688093EB0682E661E04BEEA9
:1057300056E00E9408130895DF93CF93CDB7DEB7EC
:1057400028970FB6F894DEBF0FBECDBF8091E80654
:105750000E94332B89838091E9060E94332B8A8330
:105760008091EA060E94332B8B8386E663E0AE01CC
:105770004F5F5F4F0E94081328960FB6F894DEBF64
:105780000FBECDBFCF91DF910895EF92FF920F939F
:105790001F93DF93CF93CDB7DEB728970FB6F8945A
:1057A000DEBF0FBECDBF00E010E07E010894E11C1B
:1057B000F11CF801EC51F94F80810E94332BF70165
:1057C000E00FF11F80830F5F1F4F0730110589F72E
:1057D00084E667E0A7010E94081328960FB6F894A4
:1057E000DEBF0FBECDBFCF91DF911F910F91FF9014
:1057F000EF900895880F80660E9429130895EF9214
:10580000FF920F931F93CF93DF937C0184E667E0B1
:1058100044EE56E00E942913C0E0D0E08E010C5106
:10582000194FD8018C910E94332BF8018083219667
:10583000C730D10599F72091E6062F733091E50620
:105840003F714091E4068DB79EB70A970FB6F89462
:105850009EBF0FBE8DBFEDB7FEB73196ADB7BEB7D9
:105860001296FC92EE92119782E596E093838283E2
:105870002483158236831782408711860E948D3DCE
:105880008C012091E8062F733091E9063F77409113
:10589000EA064F77EDB7FEB73196E80EF91EADB7C1
:1058A000BEB71296FC92EE92119782E496E0938333
:1058B00082832483158236831782408711860E9453
:1058C0008D3D9C01200F311FEDB7FEB73A960FB604
:1058D000F894FEBF0FBEEDBFC901DF91CF911F91BC
:1058E0000F91FF90EF9008950F931F93182F062F9D
:1058F0002A9A22981092E0061092EF061092EE0675
:1059000080E661E040EF56E00E94291382E661E004
:105910004BEE56E00E9429138091EB068E7F809318
:10592000EB068091EB068D7F8093EB068091EB0672
:105930008B7F8093EB068091EB06877F8093EB064D
:105940008091EB068F7E8093EB061230B1F113301D
:10595000C0F01330D9F01430B1F48091EB068061BF
:105960008093EB0688E661E042EF56E00E94081360
:1059700082E661E04BEE56E00E9408131F910F9102
:105980000895113029F11F910F9108958091EB0630
:105990008F7D8093EB068091EB068F7B8093EB06E7
:1059A0008091EB0680688093EB060130D9F68091F8
:1059B000F20688608093F206D5CF8091EB06806472
:1059C0008093EB068091EB068F778093EB06CACF2E
:1059D0008091EB068F7D8093EB068091EB068064CF
:1059E0008093EB068091EB0680688093EB06BACF3C
:1059F000CF93DF93C0918400D091850010928500F1
:105A0000109284008FEF8093E0068091EC0688234B
:105A1000B9F01A9B18C082E062E00E94C111CF5A0F
:105A2000D640CA35D105F8F01092ED068091F10606
:105A3000882321F08091ED068823C9F4109287060F
:105A4000DF91CF91089582E063E00E94C111CF5AA7
:105A5000D640CA35D10520F481E08093F106E6CF27
:105A60001092F106E3CF81E08093ED06DFCF8FEF58
:105A700080938706DF91CF91089582E062E00E94D3
:105A8000C11182E00E94F81182E069E27BE20E948B
:105A9000ED110895CF92DF92EF92FF920F931F9333
:105AA000DF93CF93CDB7DEB7E0970FB6F894DEBFA4
:105AB0000FBECDBFC0906E00D0907000E0907A0015
:105AC000F090BC000091C1001091C90084E060E03A
:105AD0000E94742C89EA96E00E94EC346AEF70E030
