:100000000C94FB060C94FE100C942B110C945811BC
:100010000C9418070C9418070C9418070C941807E4
:100020000C946E230C94EB170C9418070C94F71691
:100030000C94BE170C9464170C9491170C94CA1668
:100040000C9437170C9418070C9477160C94180717
:100050000C94F8180C9418070C9488190C94180731
:100060000C94440D0C9418070C94DC120C94180793
:100070000C94D3180C9418070C946319636D643EA8
:1000800000636D646C696E653A2000636F6D6D612D
:100090006E64206E6F7420666F756E6400000001E0
:1000A00000080040000001000400000100080020DA
:1000B0000040008000000100041B5B25643B2564B8
:1000C00048001B5B3F32356C001B5B3F32356800DC
:1000D0001B5B25646D001B5B324A001B6300436899
:1000E000617267652043757272656E74204D6F6E24
:1000F00069746F723A2025646D412E0077697265CC
:100100006C657373206D6F64756C65204F46462176
:10011000004C6F77207468726573686F6C6420623E
:100120006174746572792E2E2E4E65656420746F2D
:100130002070726F746563742E004261747465720E
:100140007920566F6C746167653A20256C756D5621
:100150002E00426174746572792043686172676928
:100160006E67210042617474657279204661756C16
:100170007479210044656C65746520454550524F83
:100180004D2E0056657269667920656570726F6DD7
:100190002E00454550524F4D2057726974652050CE
:1001A0006167652836346279746573292030783543
:1001B000352E0056657269667920656570726F6DBF
:1001C0002E00454550524F4D20577269746520509E
:1001D0006167652836346279746573292030784107
:1001E000412E00454550524F4D204D656D6F72793F
:1001F0002053697A653A556E6B6E6F776E2E0045A7
:100200004550524F4D204D656D6F72792053697A7C
:10021000653A36344B622E00454550524F4D204DC5
:10022000656D6F72792053697A653A33324B622E6D
:100230000025640045726173652025642050616764
:1002400065733A00454E554D5F4545505F444556F0
:100250004943455F4D454D4F52595F4E4F4E450006
:100260000D0A00253034583A005061676553697AA9
:10027000653A256400454E554D5F4545505F444500
:10028000564943455F4D454D4F52595F4E4F4E4580
:1002900000446562756720536F6674776172652EDE
:1002A0002E2E52656164792E002200220022002247
:1002B000004F4B0041542B434F50533D3F0D004ED8
:1002C0006574776F726B2061636365737320646517
:1002D0006E6965642E0047505253206163636573F5
:1002E000732064656E6965642E004E6574776F7265
:1002F0006B206163636573732064656E6965642E4A
:100300000047505253206163636573732064656EC8
:100310006965642E0041542B434F50533D312C32BC
:100320002C25730D002C004F4B0041542B4347529A
:1003300045473F0D0047505253205265676973741B
:10034000726174696F6E2E004F4B0041542B435203
:1003500045473F0D000D0A4E6574776F726B205252
:100360006567697374726174696F6E205265706F2E
:1003700072742E0041542B4950523D256C753B261A
:10038000570D004F4B00415445300D004F4B00417D
:10039000540D00536561726368696E673A256C7528
:1003A0006273700047534D204D6F64656D20506F30
:1003B000776572204F46462E0047534D204D6F649F
:1003C000656D20506F776572204F464620536572E9
:1003D000696F75732050726F626C656D2121210009
:1003E0006F6666206D6F6465206B65792070726F33
:1003F000636564757265004F4B0041542353484454
:100400004E0D0047534D204D6F64656D20506F7742
:100410006572206973204F4E2E00737461727420D0
:100420006D6F64656D5077724F666650726F632EA4
:100430000047534D204D6F64656D20506F77657296
:10044000206973204F46462E0047534D204D6F6460
:10045000656D20506F776572206973204F4E2E00B6
:1004600050726F74656374206D6F64656D203347DF
:100470002E2E2E204C6F7720626174746572792E57
:100480000077616974283130736563292E2E2E73CD
:10049000746172742069676E6974696F6E2E00737F
:1004A00074617274206D6F64656D5077724F6E5019
:1004B000726F632E006D6F64656D334748775368C4
:1004C00044776E556E636F6E646974696F6E616CAC
:1004D0000054696D653A25783A25783A25780D0AF1
:1004E00000446174653A25782F25782F25782020DF
:1004F000004D6561737572653A205254435F4352F3
:10050000595354414C5F465251203D202575487A3D
:100510002E00446573697261626C65206372797341
:1005200074616C2076616C756520333237363848DB
:100530007A2F302E35252E0057616974696E672039
:1005400032207365636F6E642E2E2E007374617299
:100550007420636861726765725F746573742E00DE
:1005600067707320706F776572204F4E000D0A57C9
:10057000656C636F6D6520746F2047505320546520
:1005800073742100737461727420726164696F20E6
:1005900055484620746573742E00536C6565702051
:1005A00043757272656E74203C20353075412E00A3
:1005B0005374617274696E6720536C656570205462
:1005C0006573742E006D6F64656D2067736D2074A4
:1005D000657374206661696C65642E0053657420D0
:1005E0006D6F64656D205375636365737366756CB9
:1005F0002E2E2E005465737420436F6D6D756E69D9
:10060000636174696F6E2053756363657373667598
:100610006C2E2E2E005374617274205465737420F6
:10062000436F6D6D756E69636174696F6E2E004FF7
:100630004B0041540D004F4B2E2E2E00536574205D
:100640006D6F64656D2062617564726174652031DF
:10065000393230306273702E0049676E6974696F89
:100660006E206D6F64656D2E2E2E00737461727432
:10067000206D6F64656D2067736D20746573742ED3
:10068000006565704572617365416C6C2E2E2E6637
:1006900061696C00454570726F6D206973206661F9
:1006A000696C65642E00454570726F6D206973201A
:1006B0007375636365737366756C2E005374617232
:1006C000742054657374696E6720454570726F6D50
:1006D0003A2032344C4336342F32353600525443AC
:1006E000206F7363696C6C61746F72206661696CF2
:1006F00065642E2E2E2E2E00525443206F73636994
:100700006C6C61746F722073756363657373667567
:100710006C2E0053746172742074657374696E6713
:1007200020525443206F7363696C6C61746F722E36
:100730002E2E00466F726D61743A2044442F4D4D49
:100740002F59592048483A4D4D3A5353202D2055A2
:10075000706461746564206E6F7420646F6E652EC2
:10076000003A003A0020002F002F0038202D206D85
:100770006F64656D2064697265637420636F6E6E6B
:10078000656374696F6E0037202D20736C6565702A
:100790005F746573740036202D2067736D5F746518
:1007A00073740035202D206770735F746573740057
:1007B00034202D20726164696F5F7568665F7465AF
:1007C00073740033202D20636861726765725F74F3
:1007D0006573740032202D20656570726F6D5F74D3
:1007E0006573740031202D207274635F74657374B7
:1007F0000071202D20657869740068202D206469BF
:1008000073706C61797320617661696C61626C658B
:1008100020636F6D6D616E647300417661696C6118
:10082000626C6520636F6D6D616E647320617265CB
:100830003A004578697465642070726F6772616D03
:100840002100444154453A4A616E20203120323023
:100850003138202054494D453A31313A35373A3113
:10086000340050524F4752414D205645522D312EA3
:10087000302E3100574252443230302D56455232DC
:1008800020436172642E004C6F6767657220576960
:1008900072656C6573732054657374696E672E009E
:1008A0000D0A000D0A002C002C004F4B0041542B68
:1008B000434744434F4E543F0D004F4B0041542B90
:1008C00043474154543D310D003A002B43474154B6
:1008D000543A0041542B43474154543F0D004F4B71
:1008E0000041542353483D310D004F4B002B2B2B1F
:1008F00000434F4E4E4543540041542353443D3131
:100900002C302C313031382C2270726F78792E7067
:100910006879746563682E636F6D220D0031303124
:10092000382C2270726F78792E70687974656368DC
:100930002E636F6D22004F4B0041542353474143B8
:10094000543D312C310D004F4B004154235343464D
:10095000473D312C312C3530302C36302C33303073
:100960002C31300D004F4B0041542B434745515221
:1009700045513D312C342C302C302C302C302C3245
:100980002C302C22304530222C22304530222C3382
:100990002C302C300D004F4B0041542B434751520B
:1009A00045513D312C302C302C332C302C300D0067
:1009B0004F4B00415423534346473D332C312C3594
:1009C00030302C36302C3330302C31300D004F4B42
:1009D0000041542B434745515245513D332C342C53
:1009E000302C302C302C302C322C302C2230453016
:1009F000222C22304530222C332C302C300D004F4D
:100A00004B0041542B4347515245513D332C302C20
:100A1000302C332C302C300D004F4B004154234DE3
:100A20004F4E490D00452D555452414E20416363B0
:100A300065737320546563686E6F6C6F67792053BC
:100A4000656C656374656400555452414E20772F80
:100A5000485344504120616E642048535550412012
:100A600041636365737320546563686E6F6C6F6771
:100A7000792053656C656374656400555452414E2A
:100A800020772F485355504120416363657373208D
:100A9000546563686E6F6C6F67792053656C65632E
:100AA00074656400555452414E20772F485344508A
:100AB000412041636365737320546563686E6F6C96
:100AC0006F67792053656C65637465640047534DA7
:100AD00020772F454750525320416363657373203D
:100AE000546563686E6F6C6F67792053656C6563DE
:100AF00074656400555452414E28334729204163A0
:100B00006365737320546563686E6F6C6F677920DB
:100B100053656C65637465640047534D2F475052AD
:100B2000532041636365737320546563686E6F6C13
:100B30006F67792053656C6563746564002C002CC5
:100B4000002C004F4B0041542B434F50533F0D009E
:100B50004F4B0041542B4353510D002D2D2D2D2D66
:100B60002D20204E6574776F726B20496E666F7210
:100B70006D6174696F6E20202D2D2D2D2D2D2D2D45
:100B80002D004F4B0041542B434F50533D300D002F
:100B900041542B434744434F4E543D25642C224936
:100BA00050222C25732C22302E302E302E30222C29
:100BB000302C300D004C6F63616C2041504E20434F
:100BC0006F6E66696775726174696F6E2E00526F21
:100BD000616D696E672041504E20436F6E66696794
:100BE00075726174696F6E2E0041504E3A002D2D62
:100BF0002D2D2D2D2041504E20436F6E6669677557
:100C0000726174696F6E20202D2D2D2D2D2D2D2DAF
:100C10002D00393732003A004F4B004154234343F3
:100C200049440D0053696D2063617264206E6F74D6
:100C300020666F756E642E00235153533A20004F87
:100C40004B004154235153533F0D004F4B0041542F
:100C5000264B303B2644303B2B4943463D333B2615
:100C600050303B26570D004F4B00415423534C4509
:100C7000445341560D004F4B00415423534C4544BF
:100C80003D322C31300D004F4B0041542347504929
:100C90004F3D312C302C320D004F4B00415423532B
:100CA0005449413D310D004C6F63616C2053696DB7
:100CB00020436172642044657465637465642E002A
:100CC000526F616D696E672053696D204361726474
:100CD0002044657465637465642E002D2D2D2D20D0
:100CE000204D6F64656D2053657474696E672020B4
:100CF0002D2D2D2D004F4B0041542B575334363F93
:100D00000D004F4B0041542B4347534E0D004F4BAA
:100D10000041542B43474D490D004F4B0041542B8C
:100D200043474D520D004D6F64656D20344720548C
:100D30006563686E6F6C6F6779004C453931302D93
:100D400053564C004C45393130004D6F64656D2071
:100D5000334720546563686E6F6C6F677900554543
:100D6000393130004845393130004D6F64656D20B0
:100D7000324720546563686E6F6C6F677920004F4F
:100D80004B0041542B43474D4D0D002D2D2D2D2053
:100D9000204D6F64656D20496E666F726D61746978
:100DA0006F6E20202D2D2D2D004A5441475F525348
:100DB00054005741544348444F475F5253540042F4
:100DC000524F574E4F55545F525354004558544557
:100DD000524E414C5F52535400504F5745525F5250
:100DE000535400506F776572206F6E206465746590
:100DF000637465642E0011241FBECFEFD0E1DEBF07
:100E0000CDBF12E0A0E0B1E0E0E2FBE702C0059058
:100E10000D92AC3CB107D9F717E0ACECB2E001C0E1
:100E20001D92AD30B107E1F70E9497360C948E3DCC
:100E30000C940000EF92FF920F931F937B018C01A3
:100E400020E030E040E05FE40E94EA0988238CF073
:100E5000C801B70120E030E040E05FE40E94920862
:100E60000E94780A9B01AC0120503040404050481D
:100E700006C0C801B7010E94780A9B01AC01B90104
:100E8000CA011F910F91FF90EF900895A0E0B0E08C
:100E9000ECE4F7E00C944637DC012B01FA019C915D
:100EA000923008F439C1EB018881823008F433C1F3
:100EB000943069F4843009F02FC111969C911197F8
:100EC0008981981709F428C1A6E2B1E025C18430D0
:100ED00009F421C18230A9F4923009F01DC19A01B0
:100EE000AD0188E0EA010990AE01E90109929E0195
:100EF0008150C1F7E201898111969C9189238183F8
:100F000008C1923009F407C112962D903C901397B6
:100F1000EB018A819B811496AD90BD90CD90DC90C1
:100F20001797EC80FD800E811F819101281B390BE2
:100F3000B90137FF04C066277727621B730B603245
:100F400071050CF061C0121613066CF537014801EB
:100F5000062E04C096948794779467940A94D2F7E7
:100F600021E030E040E050E004C0220F331F441F76
:100F7000551F6A95D2F721503040404050402E21F5
:100F80003F2140235123211531054105510521F011
:100F900021E030E040E050E079018A01E628F728BE
:100FA000082919293CC0232BD1F1260E371E350103
:100FB0004601062E04C096948794779467940A9409
:100FC000D2F721E030E040E050E004C0220F331FB0
:100FD000441F551F6A95D2F7215030404040504081
:100FE0002A213B214C215D21211531054105510567
:100FF00021F021E030E040E050E059016A01A628EC
:10100000B728C828D9280BC0821593052CF01C01DD
:10101000AA24BB24650103C0EE24FF248701119696
:101020009C91D20111968C91981709F445C099238F
:1010300039F0A80197012A193B094C095D0906C03E
:10104000A60195012E193F09400B510B57FD08C011
:1010500011823382228224833583468357831DC0C5
:1010600081E081833382228288279927DC01821BD9
:10107000930BA40BB50B84839583A683B7830DC014
:10108000220F331F441F551F248335834683578304
:101090008281938101979383828324813581468164
:1010A0005781DA01C9010197A109B1098F5F9F4FEB
:1010B000AF4FBF4328F30BC0918333822282EA0CE7
:1010C000FB1C0C1D1D1DE482F5820683178383E043
:1010D0008083248135814681578157FF1AC0C90119
:1010E000AA2797FDA095BA2F81709070A070B0705C
:1010F0005695479537952795822B932BA42BB52B87
:1011000084839583A683B783828193810196938399
:101110008283DF0101C0D201CD01CDB7DEB7E2E1AC
:101120000C946237A0E2B0E0E8E9F8E00C945237A2
:1011300069837A838B839C832D833E834F83588777
:10114000E9E0EE2EF12CEC0EFD1ECE010196B7016A
:101150000E94F00B8E010F5E1F4FCE010596B80165
:101160000E94F00B8A8991E089278A8BC701B80118
:10117000AE01475E5F4F0E9446070E941B0BA09680
:10118000E6E00C946E37A0E2B0E0E9ECF8E00C94F5
:10119000523769837A838B839C832D833E834F836D
:1011A0005887F9E0EF2EF12CEC0EFD1ECE010196D2
:1011B000B7010E94F00B8E010F5E1F4FCE01059606
:1011C000B8010E94F00BC701B801AE01475E5F4F46
:1011D0000E9446070E941B0BA096E6E00C946E3717
:1011E000A0E2B0E0E6EFF8E00C94463769837A833A
:1011F0008B839C832D833E834F835887CE0101963A
:10120000BE01675F7F4F0E94F00BCE010596BE01C5
:101210006F5E7F4F0E94F00B9985923088F089892C
:101220008230C8F0943019F4823051F404C0843014
:1012300029F4923081F486E291E0C6C0923049F4FC
:1012400020E09A858A89981321E02A87CE010996A1
:10125000BBC0823049F420E09A858A89981321E046
:101260002A8BCE014196B0C02D843E844F8458888D
:101270006D887E888F88988CEE24FF248701AA24AD
:10128000BB24650140E050E060E070E0E0E0F0E0A9
:10129000C10181709070892BE9F0E60CF71C081DE4
:1012A000191D9A01AB012A0D3B1D4C1D5D1D80E0EF
:1012B00090E0A0E0B0E0E614F7040805190520F47A
:1012C00081E090E0A0E0B0E0BA01A901480F591F09
:1012D0006A1F7B1FAA0CBB1CCC1CDD1C97FE08C020
:1012E00081E090E0A0E0B0E0A82AB92ACA2ADB2A6F
:1012F0003196E032F10549F0660C771C881C991C88
:101300005694479437942794C3CFFA85EA892B895A
:101310003C898B859C85280F391F2E5F3F4F17C056
:10132000CA0181709070892B61F016950795F7942A
:10133000E79480E090E0A0E0B0E8E82AF92A0A2BE0
:101340001B2B76956795579547952F5F3F4F77FDF8
:10135000E7CF0CC0440F551F661F771F17FD416074
:10136000EE0CFF1C001F111F21503040403090E058
:10137000590790E0690790E4790760F32B8F3C8F61
:10138000DB01CA018F779070A070B0708034910536
:10139000A105B10561F447FD0AC0E114F10401059E
:1013A000110529F0405C5F4F6F4F7F4F40781A8ED8
:1013B000FE1711F081E08A8F4D8F5E8F6F8F78A3BB
:1013C00083E0898FCE0149960E941B0BA096E2E133
:1013D0000C946237A8E1B0E0E0EFF9E00C945237EA
:1013E00069837A838B839C832D833E834F835887C5
:1013F00089E0E82EF12CEC0EFD1ECE010196B7011E
:101400000E94F00B8E010F5E1F4FCE010596B801B2
:101410000E94F00B8985823040F08989823028F063
:10142000C701B8010E94680C01C08FEF6896E6E022
:101430000C946E37A8E0B0E0E0E2FAE00C944F378D
:101440009B01AC0183E08983DA01C9018827B7FDDC
:1014500083959927AA27BB27B82E21153105410569
:10146000510519F482E089833AC08823A9F020301D
:1014700080E0380780E0480780E8580729F460E0FA
:1014800070E080E09FEC30C0EE24FF248701E21A78
:10149000F30A040B150B02C079018A018EE1C82EF4
:1014A000D12CDC82CB82ED82FE820F831887C801AB
:1014B000B7010E94CC0A01971816190684F4082E69
:1014C00004C0EE0CFF1C001F111F0A94D2F7ED821E
:1014D000FE820F831887C81AD90ADC82CB82BA82AF
:1014E000CE0101960E941B0B2896E9E00C946B3705
:1014F000ACE0B0E0EEE7FAE00C94563769837A830B
:101500008B839C83CE010196BE016B5F7F4F0E944F
:10151000F00B8D81823061F1823050F1843021F402
:101520008E81882351F12EC02F81388537FD20C050
:101530006E812F3131051CF06623F9F023C08EE156
:1015400090E0821B930B29853A854B855C8504C00E
:1015500056954795379527958A95D2F76623B1F02A
:1015600050954095309521953F4F4F4F5F4F0EC09E
:1015700020E030E040E050E009C02FEF3FEF4FEFB8
:101580005FE704C020E030E040E050E8B901CA0164
:101590002C96E2E00C947237EF92FF920F931F9318
:1015A0007B018C0180E0E81680E0F80681E0080706
:1015B00080E0180788F48FEFE816F10401051105A3
:1015C00031F028F088E090E0A0E0B0E017C080E0C3
:1015D00090E0A0E0B0E012C080E0E81680E0F806FD
:1015E00080E0080781E0180728F088E190E0A0E09B
:1015F000B0E004C080E190E0A0E0B0E020E230E0A4
:1016000040E050E0281B390B4A0B5B0B04C01695D9
:101610000795F794E7948A95D2F7F701E25DFE4FBC
:101620008081281B310941095109C9011F910F917E
:10163000FF90EF900895DF92EF92FF920F931F9328
:10164000FC01E480F58006811781D18080818230A1
:1016500048F480E090E0A0E1B0E0E82AF92A0A2B03
:101660001B2BA5C0843009F49FC0823021F4EE24E6
:10167000FF24870105C0E114F1040105110519F4E7
:10168000E0E0F0E096C0628173819FEF62387907F5
:101690000CF05BC022E83FEF261B370B2A313105E7
:1016A0002CF020E030E040E050E02AC0B801A70173
:1016B000022E04C076956795579547950A94D2F700
:1016C00081E090E0A0E0B0E004C0880F991FAA1F5D
:1016D000BB1F2A95D2F70197A109B1098E219F213D
:1016E000A023B1230097A105B10521F081E090E08E
:1016F000A0E0B0E09A01AB01282B392B4A2B5B2BE1
:10170000DA01C9018F779070A070B07080349105B4
:10171000A105B10539F427FF09C0205C3F4F4F4FA9
:101720005F4F04C0215C3F4F4F4F5F4FE0E0F0E060
:101730002030A0E03A07A0E04A07A0E45A0710F0E2
:10174000E1E0F0E079018A0127C06038710564F5B5
:10175000FB01E158FF4FD801C7018F779070A0704F
:10176000B07080349105A105B10539F4E7FE0DC0D4
:1017700080E490E0A0E0B0E004C08FE390E0A0E05F
:10178000B0E0E80EF91E0A1F1B1F17FF05C01695D3
:101790000795F794E794319687E016950795F794A7
:1017A000E7948A95D1F705C0EE24FF248701EFEF77
:1017B000F0E06E2F679566276795902F9F77D794F7
:1017C000DD24D7948E2F8695492F462B582F5D29DF
:1017D000B701CA011F910F91FF90EF90DF9008951C
:1017E000FC01DB01408151812281622F6F7770E023
:1017F000221F2227221F9381892F880F822B282FB7
:1018000030E0991F9927991F11969C9311972115E4
:101810003105A9F5411551056105710511F482E005
:1018200037C082E89FEF13969C938E9312979A018C
:10183000AB0167E0220F331F441F551F6A95D1F794
:1018400083E08C930DC0220F331F441F551F129647
:101850008D919C911397019713969C938E93129759
:10186000203080E0380780E0480780E4580758F3CC
:1018700014962D933D934D935C93179708952F3FA6
:10188000310579F4411551056105710519F484E0BC
:101890008C93089564FF03C081E08C9312C01C9266
:1018A00010C02F57304013963C932E93129783E02D
:1018B0008C9387E0440F551F661F771F8A95D1F7D9
:1018C000706414964D935D936D937C931797089570
:1018D0001F93DC01FB019C91923008F447C080818A
:1018E000823008F443C0943051F411961C91843036
:1018F00099F58181682F70E0611B71093FC08430C8
:1019000021F0923031F48230B9F18181882389F15C
:101910002DC011961C9111978230F1F0818118171A
:10192000D9F412962D913C9113978281938182175D
:10193000930794F028173907BCF014968D919D9168
:101940000D90BC91A02D24813581468157812817A7
:1019500039074A075B0718F4112341F00AC08217C0
:101960009307A407B50740F4112319F061E070E074
:1019700005C06FEF7FEF02C060E070E0CB011F9108
:101980000895AAE7B0E08C9180688C938C918F7D4C
:101990008C938C91887F86608C93ECE7F0E080815B
:1019A000806C808380818F7D80838C9188608C9314
:1019B0001092070678940895EAE7F0E08081877F27
:1019C000808380818F7780830895EAE7F0E09081BB
:1019D000987F982B90830895ECE7F0E090818295B2
:1019E000880F880F807C9F73982B90830895ECE775
:1019F000F0E090818F71907E892B80830895EAE7D3
:101A0000F0E080818061808380818064808308959C
:101A100080917A00807408951092070690917C005E
:101A20008F71907E892B80937C0080917A008061F9
:101A300080937A002CE530E083B7817F826083BF9A
:101A400083B7816083BF889583B78E7F83BF88E823
:101A500093E1F9013197F1F70197D9F780910706E2
:101A6000882351F32091780040917900942F80E0F1
:101A700030E0282B392BC90108950E940C0D969552
:101A800087959695879508951F920F920FB60F929E
:101A900011248F938FEF809307068F910F900FBEC5
:101AA0000F901F901895FC018FB7F8947183608395
:101AB0005383428317821682158214828FBF089542
:101AC000DC014FB7F89414968D919C911597892B52
:101AD00011F4E0E025C016968D919C911797ED9139
:101AE000FC911197E80FF91FE081019617969C93DE
:101AF0008E93169712962D913C9113978217930708
:101B000030F0821B930B17969C938E931697149626
:101B10008D919C911597019715969C938E93149790
:101B20004FBF8E2F0895FC014FB7F89484819581A3
:101B300068177907B0F486819781860F971F97837E
:101B40008683228133818217930720F0821B930BB7
:101B50009783868384819581861B970B95838483E5
:101B600002C0158214824FBF0895FC01CB012FB72C
:101B7000F8942FBF2681378162817381820F931F72
:101B80000E9410370190F081E02DE80FF91F80814D
:101B900008951F93CF93DF93EC01162F4FB7F8945E
:101BA0002C813D816A817B812617370798F48E81CD
:101BB0009F81820F931F0E941037E881F981E80FFF
:101BC000F91F10838C819D8101969D838C834FBF6B
:101BD0008FEF02C04FBF80E0DF91CF911F9108953A
:101BE000FC018FB7F8948FBF228133818481958166
:101BF000281B390BC9010895FC018FB7F894158291
:101C000014828FBF089510920C061092080610924D
:101C10000D0610920A061092090610920B060895FE
:101C2000CF93DF93CCE7D0E009C02196F90164910E
:101C3000E0911403F091150381E009959E01FE01E6
:101C40008491882391F7DF91CF910895E09109065F
:101C5000F0910A06309739F0099510920A06109211
:101C600009060E94100E08951F93CF93DF93E09111
:101C70001403F091150381E06DE009950E94100EA8
:101C800010910806CEE0D6E008C06991E0911403F7
:101C9000F091150381E0099511501123B1F7DF91FF
:101CA000CF911F91089590931503809314030E9480
:101CB000100E0895CF93DF93C1E8D0E009C02196BC
:101CC000F9016491E0911403F091150381E0099505
:101CD0009E01FE018491882391F7CEE0D6E007C0F3
:101CE0002196E0911403F091150381E00995688134
:101CF000662311F06032A1F7E0911403F09115030F
:101D000081E06AE30995E0911403F091150381E005
:101D100060E20995CBE8D0E006C02196FA01649113
:101D200081E0F9010995AE01FE018491209114032F
:101D300030911503882389F781E06DE0F901099559
:101D4000E0911403F091150381E06AE00995DF91B9
:101D5000CF910895382F20E001C02F5FE22FF0E0EF
:101D6000E25FF94F80818032C1F390E014C02F5FB1
:101D7000E22FF0E0E25FF94FE081EE2321F0E03264
:101D8000B1F701C02F5FE22FF0E0E25FF94F8081F1
:101D90008032C1F39F5F931758F330E0225F394FD1
:101DA000C9010895DF93CF9300D0CDB7DEB70E946D
:101DB000AA0EBE016F5F7F4F40E150E00E94E33802
:101DC0000F900F90CF91DF910895DF93CF9300D0C4
:101DD000CDB7DEB70E94AA0EBE016F5F7F4F4AE00B
:101DE00050E00E94E3380F900F90CF91DF9108955B
:101DF0000F931F939C018B0180910B0690E0880F3D
:101E0000991F880F991F84539D4FB9010E94743AFE
:101E100080910B06E82FF0E0EE0FFF1FE450FD4F1E
:101E2000118300838F5F80930B061F910F9108959C
:101E30000F931F93882319F0813011F50BC0809107
:101E40000E068823E9F08EE296E06EE076E00E94CE
:101E5000743A16C00EE016E0C8016EE276E00E9409
:101E6000743AF80101900020E9F78F010150104009
:101E70000E5016400093080600930D060E94340E83
:101E80001F910F910895FF920F931F93CF93DF93AC
:101E900080E00E94180F00E001C00F5FE02FF0E02B
:101EA000E25FF94FE081E03211F0EE23B1F7002359
:101EB00011F1F0900B06CCECD2E010E018C0CE018E
:101EC0006EE076E0402F50E00E947B3A2496009727
:101ED00069F4E12FF0E0EE0FFF1FE450FD4F808129
:101EE000918190930A068093090607C01F5F1F1512
:101EF00030F30E945A0E0E94100EDF91CF911F9175
:101F00000F91FF9008951F93182F80910C06823037
:101F100009F044C0123461F0133418F41134D9F5C7
:101F200005C0133449F01434B1F524C081E001C078
:101F300082E00E94180F2FC090910D068091080634
:101F4000E0911403F0911503981710F59F5F90939B
:101F50000D0681E06BE10995E0911403F091150302
:101F600081E06BE50995E0911403F091150381E0A0
:101F700063E410C080910D06E0911403F091150305
:101F8000882331F0815080930D0681E068E002C023
:101F900081E067E0099510920C06E3C0813021F4DE
:101FA0001B3511F482E0DBC010920C06812F8052A9
:101FB0008F3508F046C020910D06E09108062E17D7
:101FC000B9F4E0911403F091150381E0612F0995B4
:101FD00080910D06E82FF0E0E25FF94F10838F5FEC
:101FE00080930D06809108068F5F80930806B9C024
:101FF0009E2F9F5F9093080608C0E92FF0E0E25FF4
:10200000F94F82913196808391502917B0F3E22FD6
:10201000F0E0E25FF94F10832F5F20930D060E94DE
:10202000340E10910D0608C0E0911403F0911503D1
:1020300081E068E009951F5F809108061817A0F3FA
:1020400090C01D3021F5E0911403F091150381E05B
:102050006DE00995E0911403F091150381E06AE0C9
:10206000099580910806E82FF0E0E25FF94F1082B1
:102070008F5F8093080680910D068F5F80930D0619
:102080000E94430F1092080610920D066AC0183085
:1020900009F060C0E0910D06EE2309F453C0809171
:1020A0000806E81701F5E0911403F091150381E0AB
:1020B00068E00995E0911403F091150381E060E276
:1020C0000995E0911403F091150381E068E009950A
:1020D0008091080681508093080680910D068150FA
:1020E00080930D063EC0282F2150209308069E2F76
:1020F000915090930D0607C0E92FF0E0E25FF94F91
:10210000818180839F5F9217B8F30E94340EE09123
:102110001403F091150381E060E2099510910D061A
:1021200008C0E0911403F091150381E068E009957F
:102130001F5F8091080690E0212F30E082179307FF
:1021400084F70FC0E0911403F091150381E067E07C
:10215000099507C01F3729F01B3119F481E08093DE
:102160000C061F91089510921703109216031092F7
:1021700019031092180310921B0310921A0308956A
:10218000882341F4809169008C7F8093690080915D
:1021900069000BC0813069F480916900837F80936E
:1021A000690080916900660F660F862B8093690035
:1021B0000895823061F4809169008F7C809369007A
:1021C000809169006295607F862B809369000895F5
:1021D000833040F4E82FF0E0EE0FFF1FEA5EFC4F83
:1021E000718360830895833040F4E82FF0E0EE0FB0
:1021F000FF1FEA5EFC4F1182108208951F920F921A
:102200000FB60F9211242F933F934F935F936F93C9
:102210007F938F939F93AF93BF93EF93FF9380919F
:10222000160390911703892B29F0E0911603F09182
:1022300017030995FF91EF91BF91AF919F918F91F6
:102240007F916F915F914F913F912F910F900FBEB2
:102250000F901F9018951F920F920FB60F92112496
:102260002F933F934F935F936F937F938F939F939E
:10227000AF93BF93EF93FF9380911803909119034D
:10228000892B29F0E0911803F09119030995FF912A
:10229000EF91BF91AF919F918F917F916F915F91DE
:1022A0004F913F912F910F900FBE0F901F90189557
:1022B0001F920F920FB60F9211242F933F934F93BB
:1022C0005F936F937F938F939F93AF93BF93EF939E
:1022D000FF9380911A0390911B03892B29F0E091C1
:1022E0001A03F0911B030995FF91EF91BF91AF91F4
:1022F0009F918F917F916F915F914F913F912F911E
:102300000F900FBE0F901F901895BC018091B900DF
:102310008E7F8093B9008091B9008D7F8093B90042
:1023200086E69EE00E941037603130F0862F90E004
:10233000409795958795682F6093B8000895409AC7
:10234000419A1092C3031092C2031092C5031092D7
:10235000C40384E690E00E948511ECEBF0E08081FC
:102360008460808310921C038081806880838081D8
:10237000816080838081806480837894089590E078
:10238000611191E08E7F982B9093BA0008959093FD
:10239000C3038093C20308959093C5038093C4033D
:1023A0000895ECEBF0E080818F70806A808308955F
:1023B000ECEBF0E080818F70806D808308958091D8
:1023C000BC0087FFFCCF08958093BB00ECEBF0E0EE
:1023D00080818F70806880830895882329F08091A0
:1023E000BC008F70806C04C08091BC008F708068CE
:1023F0008093BC0008958091BB0008958091B9003E
:102400000895982F80911C038823E1F782E0809340
:102410001C039E7F90931D03AEE1B3E0FA0102C05E
:1024200081918D938E2F841B8617D0F310926E03AB
:1024300060936F038091BC008F70806A8093BC00B2
:102440000895982F80911C038823E1F783E08093FF
:102450001C03916090931D031092C0036093C1030D
:102460008091BC008F70806A8093BC0080911C03B7
:102470008823E1F7A0E7B3E0FA0102C08D918193D0
:102480008E2F841B8617D0F30895982FFA01809120
:10249000BC008E7F8093BC008091BC008F70806AEE
:1024A0008093BC008091BC0087FFFCCF9E7F9093FF
:1024B000BB008091BC008F7080688093BC008091CD
:1024C000BC0087FFFCCF8091B900883189F091E092
:1024D00012C080818093BB008091BC008F708068A7
:1024E0008093BC008091BC0087FFFCCF3196615087
:1024F000662379F790E08091BC008F70806D8093A7
:10250000BC008091BC0084FFFCCF8091BC00816046
:102510008093BC00892F08951F93CF93DF93982F4A
:10252000162FEA018091BC008E7F8093BC008091C1
:10253000BC008F70806A8093BC008091BC0087FFD4
:10254000FCCF91609093BB008091BC008F7080683D
:102550008093BC008091BC0087FFFCCF8091B900C4
:10256000803469F091E018C08FEF0E94ED118091E6
:10257000BC0087FFFCCF8091BB00899311501230C3
:1025800098F780E00E94ED118091BC0087FFFCCF9E
:102590008091BB00888390E08091BC008F70806D3B
:1025A0008093BC008091BC0081608093BC00892F27
:1025B000DF91CF911F9108951F920F920FB60F9246
:1025C00011242F933F934F935F936F937F938F9338
:1025D0009F93AF93BF93EF93FF938091B900887F50
:1025E000803609F49FC0813670F5883209F45FC0E7
:1025F000893298F4803109F457C0813138F4882346
:1026000009F4EEC0883009F0F3C04EC0883109F4F7
:102610004EC0803209F0ECC0E3C0803409F477C0CA
:10262000813438F4803309F4DBC0883309F0E0C02A
:102630005DC0803509F45FC0883509F44AC088342C
:1026400009F0D6C0CDC0883909F482C08939B0F408
:10265000883709F467C0893738F4883609F462C0CE
:10266000803709F0C5C05EC0883809F471C0803970
:1026700009F45EC0803809F0BBC05AC0803B09F441
:102680007DC0813B38F4803A09F466C0883A09F08D
:10269000AFC074C0803C09F49EC0883C09F49BC064
:1026A000883B09F0A5C07BC080911D030FC09091AD
:1026B0006E0380916F03981708F092C0E92FF0E045
:1026C000E25EFC4F80819F5F90936E038093BB001E
:1026D0007BC08091C0039091BB00E82FF0E0E059EF
:1026E000FC4F90838F5F8093C0037AC08091BC00C1
:1026F0008F70806879C08091C0039091BB00E82FF3
:10270000F0E0E059FC4F90838F5F8093C0032091ED
:10271000C00330E08091C10390E00197281739078A
:10272000BCF414C085E080931C031092C00347C022
:102730008091C0039091BB00E82FF0E0E059FC4F7E
:1027400090838F5F8093C003803510F48FEF01C0BA
:1027500080E00E94ED114CC08091BC008F70806CB5
:102760008093BC00E091C203F091C3033097F1F174
:102770008091C00360E773E0099538C084E08093DE
:102780001C03E091C403F091C503309731F080E55C
:102790006EE173E0099580936F0310926E03909140
:1027A0006E03E92FF0E0E25EFC4F80818093BB0076
:1027B0009F5F90936E0380916F03981728F4809128
:1027C000BC008F70806C04C08091BC008F708068EA
:1027D0008093BC000DC08091BC008F70806C04C0E1
:1027E0008091BC008F70806D8093BC0010921C03A0
:1027F000FF91EF91BF91AF919F918F917F916F91D9
:102800005F914F913F912F910F900FBE0F901F90AE
:10281000189580911C030895089580E00895EF9223
:10282000FF920F931F93DF93CF9300D00F92CDB7FA
:10283000DEB7E52EF62E072F1127E9824A832B8378
:1028400063E0AE014F5F5F4F0E9445120F900F9003
:102850000F90CF91DF911F910F91FF90EF9008950E
:10286000FF920F931F93DF93CF9300D0CDB7DEB7C6
:10287000F82EBB27A72F962F852F89834A838F2D6C
:1028800062E08E010F5F1F4FA8010E9445128F2D3D
:1028900061E0A8010E948C1289810F900F90CF9166
:1028A000DF911F910F91FF9008959093D50380932E
:1028B000D40392E094BD85E085BD16BC83EB87BD53
:1028C00090936E0008959093D3038093D203109257
:1028D000B60092E09093B00084E08093B100109233
:1028E000B20088E38093B300909370000895089538
:1028F00085B5887F826085BD16BCEEE6F0E08081FC
:102900008160808310924E0610924F0610925006FE
:10291000109251060895E1E8F0E08081887F83609D
:1029200080831092850010928400EFE6F0E08081B1
:10293000816080830895E1EBF0E08081887F84608E
:1029400080831092B200E0E7F0E0808181608083B4
:102950001092560610925706109258061092590679
:10296000089580E090E0FC01EE0FFF1FEA53FC4F5A
:1029700011821082019688309105A9F70E9478147F
:102980000E948B140E949B147894089595B5987FAB
:10299000982B95BD0895E1E8F0E09081987F982B01
:1029A0009083089585B580935A0685B5887F85BD47
:1029B000089580915A0685BD0895E1E8F0E0808190
:1029C00080935B068081887F8083089580915B0679
:1029D000809381000895E1EBF0E09081987F982B3F
:1029E0009083089585B5E82FF0E0E770F070EE0F62
:1029F000FF1FE356FF4F25913491C901089580913F
:102A00008100E82FF0E0E770F070EE0FFF1FE35653
:102A1000FF4F25913491C90108958091B100E82FAD
:102A2000F0E0E770F070EE0FFF1FE755FF4F2591C4
:102A30003491C9010895883040F4E82FF0E0EE0F9A
:102A4000FF1FEA53FC4F718360830895883040F480
:102A5000E82FF0E0EE0FFF1FEA53FC4F11821082C7
:102A60000895AF92BF92CF92DF92EF92FF920F93B1
:102A70001F93CF93DF93EC0116B51092520610927C
:102A80005306109254061092550685B5E82FF0E0D3
:102A9000E770F070EE0FFF1FE356FF4F2591349162
:102AA00040E050E060E070E488E390E00E9424376A
:102AB000B901CA01693B2DE8720726E0820720E0D0
:102AC0009207A0F437E2C131D30780F49E0140E0C1
:102AD00050E00E94E53628EE33E040E050E00E94EE
:102AE0002437C901DA01BC01CD010DC028EE33E065
:102AF00040E050E00E942437CA01B9019E0140E045
:102B000050E00E94E536A72EB82EC92EDD249B0189
:102B1000AC01210F311D411D511D79018A0117C0E2
:102B20008091520690915306A0915406B09155069B
:102B30008A159B05AC05BD0550F483B7817F83BF23
:102B400083B7816083BF889583B78E7F83BF2091D1
:102B5000520630915306409154065091550686B561
:102B600090E0A0E0B0E0542F432F322F2227822B99
:102B7000932BA42BB52B8E159F05A007B10780F2D0
:102B8000DF91CF911F910F91FF90EF90DF90CF9049
:102B9000BF90AF90089510924E0610924F0610927B
:102BA000500610925106089520914E0630914F061E
:102BB0004091500650915106B901CA0108951092F2
:102BC000560610925706109258061092590608950C
:102BD000209156063091570640915806509159065B
:102BE000B901CA010895893049F48091800082605A
:102BF00080938000809180008E7F0EC08A3021F407
:102C000080918000826003C0809180008D7F8093DE
:102C10008000809180008160809380001092890004
:102C20001092880010928B0010928A000895E0E8BC
:102C3000F0E020812E7F2083208122602083E1E844
:102C4000F0E0208128602083208120612083909300
:102C5000870080938600109289001092880010925D
:102C60008B0010928A000895E0E8F0E080818D7F6B
:102C7000808380818E7F808380818F778083808135
:102C80008F7B808380818F7D808380818F7E808316
:102C90000895E0E8F0E080818068808380818F7B08
:102CA00080830895E0E8F0E0808180628083808105
:102CB0008F7E80830895E0E8F0E080818F778083C5
:102CC00080818F7B80830895E0E8F0E080818F7DB4
:102CD000808380818F7E8083089590938900809384
:102CE0008800089590938B0080938A0008951F9226
:102CF0000F920FB60F9211242F933F934F935F9330
:102D00006F937F938F939F93AF93BF93EF93FF93B3
:102D100080914E0690914F06A0915006B0915106B9
:102D20000196A11DB11D80934E0690934F06A0936E
:102D30005006B09351068091520690915306A0918F
:102D40005406B09155060196A11DB11D80935206FF
:102D500090935306A0935406B09355068091C603F2
:102D60009091C703892B29F0E091C603F091C70326
:102D70000995FF91EF91BF91AF919F918F917F91B5
:102D80006F915F914F913F912F910F900FBE0F90D8
:102D90001F9018951F920F920FB60F9211242F9328
:102DA0003F934F935F936F937F938F939F93AF93D3
:102DB000BF93EF93FF938091C8039091C903892B30
:102DC00029F0E091C803F091C9030995FF91EF91B3
:102DD000BF91AF919F918F917F916F915F914F9133
:102DE0003F912F910F900FBE0F901F9018951F923B
:102DF0000F920FB60F9211242F933F934F935F932F
:102E00006F937F938F939F93AF93BF93EF93FF93B2
:102E10008091560690915706A0915806B091590698
:102E20000196A11DB11D8093560690935706A0935D
:102E30005806B09359068091D0039091D103892B05
:102E400029F0E091D003F091D1030995FF91EF9122
:102E5000BF91AF919F918F917F916F915F914F91B2
:102E60003F912F910F900FBE0F901F9018951F92BA
:102E70000F920FB60F9211242F933F934F935F93AE
:102E80006F937F938F939F93AF93BF93EF93FF9332
:102E90008091D4039091D503892B29F0E091D4033C
:102EA000F091D5030995FF91EF91BF91AF919F915B
:102EB0008F917F916F915F914F913F912F910F90E3
:102EC0000FBE0F901F9018951F920F920FB60F9282
:102ED00011242F933F934F935F936F937F938F931F
:102EE0009F93AF93BF93EF93FF938091CA03909109
:102EF000CB03892B29F0E091CA03F091CB0309950C
:102F0000FF91EF91BF91AF919F918F917F916F91C1
:102F10005F914F913F912F910F900FBE0F901F9097
:102F200018951F920F920FB60F9211242F933F9373
:102F30004F935F936F937F938F939F93AF93BF93C1
:102F4000EF93FF938091CC039091CD03892B29F0CF
:102F5000E091CC03F091CD030995FF91EF91BF91E2
:102F6000AF919F918F917F916F915F914F913F9121
:102F70002F910F900FBE0F901F9018951F920F92D8
:102F80000FB60F9211242F933F934F935F936F933C
:102F90007F938F939F93AF93BF93EF93FF93809112
:102FA000CE039091CF03892B29F0E091CE03F091CD
:102FB000CF030995FF91EF91BF91AF919F918F91B1
:102FC0007F916F915F914F913F912F910F900FBE25
:102FD0000F901F9018951F920F920FB60F92112409
:102FE0002F933F934F935F936F937F938F939F9311
:102FF000AF93BF93EF93FF938091D2039091D3034C
:10300000892B29F0E091D203F091D3030995FF9128
:10301000EF91BF91AF919F918F917F916F915F9150
:103020004F913F912F910F900FBE0F901F901895C9
:10303000823040F4E82FF0E0EE0FFF1FED54FA4F1E
:103040007183608308951F93182F9A01AB0194E058
:10305000220F331F441F551F9A95D1F760E070E48B
:1030600088E390E00E94243721503040112329F05A
:103070002093CC003093CD0004C02093C400309343
:10308000C5001F910895282F30E043E0220F331F21
:103090004A95E1F7225A394FC9010895282F30E0A7
:1030A00053E0220F331F5A95E1F72059394FC901D8
:1030B0000895982FE82FF0E0DF01A45AB94F8C91C2
:1030C0008823E9F3992339F08091C80085FFFCCF6C
:1030D0006093CE0006C08091C00085FFFCCF609356
:1030E000C600E45AF94F10820895682F80E00E94CC
:1030F00059180895682F81E00E945918089520E01A
:10310000E82FF0E063E0EE0FFF1F6A95E1F7EE595C
:10311000F94F80819181892B09F421E0822F089554
:103120001F93CF93DF93182FEB0104C02196812FBB
:103130000E94591868816623C9F7DF91CF911F91CA
:103140000895CF93DF93882319F06091CE0002C0D9
:103150006091C600282F30E0E901CC0FDD1FFE0191
:10316000ED54FA4F80819181892B31F00190F081EB
:10317000E02D862F099514C073E0220F331F7A9536
:10318000E1F7C901825A994F0E94C90D882341F481
:10319000FE01E058F94F80819181019691838083EF
:1031A000DF91CF9108951F920F920FB60F921124C5
:1031B0002F933F934F935F936F937F938F939F933F
:1031C000AF93BF93EF93FF9381E00E94A118FF910B
:1031D000EF91BF91AF919F918F917F916F915F918F
:1031E0004F913F912F910F900FBE0F901F90189508
:1031F0001F920F920FB60F9211242F933F934F936C
:103200005F936F937F938F939F93AF93BF93EF934E
:10321000FF9380E00E94A118FF91EF91BF91AF91C1
:103220009F918F917F916F915F914F913F912F91DE
:103230000F900FBE0F901F90189590E0F3E0880F4D
:10324000991FFA95E1F78059994F0E94C90D089589
:10325000682F88E796E00E94C90D0895682F80E7DF
:1032600096E00E94C90D0895CF93DF93282FA82FD1
:10327000B0E0ED01C259D94F88818823E9F0FD0102
:1032800083E0EE0FFF1F8A95E1F7EC58F94F80813C
:103290009181892B81F0222339F088E796E00E9402
:1032A000600D8093CE000CC080E796E00E94600D18
:1032B0008093C60005C01882A45AB94F8FEF8C9333
:1032C000DF91CF9108951F920F920FB60F921124A4
:1032D0002F933F934F935F936F937F938F939F931E
:1032E000AF93BF93EF93FF9381E00E943419FF9156
:1032F000EF91BF91AF919F918F917F916F915F916E
:103300004F913F912F910F900FBE0F901F901895E6
:103310001F920F920FB60F9211242F933F934F934A
:103320005F936F937F938F939F93AF93BF93EF932D
:10333000FF9380E00E943419FF91EF91BF91AF910C
:103340009F918F917F916F915F914F913F912F91BD
:103350000F900FBE0F901F9018959F92AF92BF9243
:10336000CF92DF92EF92FF920F931F93CF93DF9351
:10337000982E5B016A01082F10E0F801E45AF94F1A
:1033800080818823E9F3F80153E0EE0FFF1F5A957F
:10339000E1F7EC58F94F208131812C0D3D1DF801EA
:1033A00043E0EE0FFF1F4A95E1F7EE58F94F808199
:1033B00091812817390740F5C114D10429F178010A
:1033C00093E0EE0CFF1C9A95E1F780E796E0E80E9B
:1033D000F91EC0E0D0E007C0F50161915F01C701AF
:1033E0000E94C90D2196CC15DD05B0F30259194F85
:1033F0008FEFF8018083C7010E94600D682F892D2F
:103400000E9459188FEF01C080E0DF91CF911F918A
:103410000F91FF90EF90DF90CF90BF90AF909F9073
:1034200008951F93182F90E0FC01E259F94F2FEFF8
:10343000208363E0880F991F6A95E1F78059994FBF
:103440000E94600D682F812F0E9459181F910895C6
:10345000CF93DF93EB01282F30E0F901B3E0EE0FBB
:10346000FF1FBA95E1F7E05AF94F80819181892BCE
:10347000C9F0F901A3E0EE0FFF1FAA95E1F7EE599D
:10348000F94F80819181892B69F073E0220F331FFE
:103490007A95E1F7C901825A994F0E94600D88839D
:1034A0008FEF01C080E0DF91CF910895DF93CF933C
:1034B0000F92CDB7DEB781E0BE016F5F7F4F0E94F4
:1034C000281A882319F42FEF3FEF03C08981282F92
:1034D00030E0C9010F90CF91DF910895DF93CF9332
:1034E0000F92CDB7DEB780E0BE016F5F7F4F0E94C5
:1034F000281A882319F42FEF3FEF03C08981282F62
:1035000030E0C9010F90CF91DF91089590E023E062
:10351000880F991F2A95E1F7825A994F0E94FC0D56
:10352000089586E696E06DE175E042E350E00E9482
:10353000530D88E796E06FE475E044E650E00E94A2
:10354000530D08950E94911A1092B6051092B50578
:1035500088ED8093C90081E040E05BE460E070E0CA
:103560000E9423188FEF80935D0610926F061092D1
:10357000830610928206789408958EE596E066EDB3
:1035800073E04FEF50E00E94530D80E796E065ED49
:1035900074E048E450E00E94530D08950E94BD1A63
:1035A0001092B4051092B30588ED8093C10080E0BD
:1035B00040E05BE460E070E00E9423188FEF8093AE
:1035C0005C0610926E061092810610928006789426
:1035D00008950E94CE1A0E94A21A08950F931F9375
:1035E000DF93CF93CDB7DEB760970FB6F894DEBF09
:1035F0000FBECDBF2DB73EB7285030400FB6F89460
:103600003EBF0FBE2DBFEDB7FEB731968E010F5FE7
:103610001F4FADB7BEB712961C930E93119729EBAF
:1036200030E03383228384831582668317820E946D
:10363000CF3A2DB73EB7285F3F4F0FB6F8943EBF45
:103640000FBE2DBFE091B705F091B80581E0B8013C
:10365000099560960FB6F894DEBF0FBECDBFCF912F
:10366000DF911F910F910895DF93CF93CDB7DEB710
:1036700060970FB6F894DEBF0FBECDBF9E012F5FDF
:103680003F4F882349F000D000D0EDB7FEB732831A
:10369000218389EC90E008C000D000D0EDB7FEB7E0
:1036A0003283218382EC90E0948383830E94CF3A1B
:1036B0000F900F900F900F90E091B705F091B80523
:1036C00081E0BE016F5F7F4F099560960FB6F89459
:1036D000DEBF0FBECDBFCF91DF9108950F931F9333
:1036E000DF93CF93CDB7DEB760970FB6F894DEBF08
:1036F0000FBECDBF00D000D000D0EDB7FEB73196E1
:103700008E010F5F1F4FADB7BEB712961C930E937D
:10371000119720ED30E033832283848315820E9449
:10372000CF3A8DB79EB706960FB6F8949EBF0FBEE0
:103730008DBFE091B705F091B80581E0B80109951A
:1037400060960FB6F894DEBF0FBECDBFCF91DF916C
:103750001F910F9108950F931F93DF93CF93CDB7D0
:10376000DEB760970FB6F894DEBF0FBECDBF00D0B6
:1037700000D08E010F5F1F4FEDB7FEB7128301839C
:1037800086ED90E0948383830E94CF3A0F900F9050
:103790000F900F90E091B705F091B80581E0B80166
:1037A000099560960FB6F894DEBF0FBECDBFCF91DE
:1037B000DF911F910F9108950F931F93DF93CF9384
:1037C000CDB7DEB760970FB6F894DEBF0FBECDBFA2
:1037D0009093B8058093B70500D000D08E010F5F9D
:1037E0001F4FEDB7FEB7128301838BED90E09483FA
:1037F00083830E94CF3A0F900F900F900F90E0912B
:10380000B705F091B80581E0B801099560960FB64B
:10381000F894DEBF0FBECDBFCF91DF911F910F9106
:10382000089581E00E943523A0E0B0E0BC01CD0105
:1038300020E03AE040E050E00E94E5369B01AC0118
:103840009AE056954795379527959A95D1F7220F87
:10385000331F441F551FB901CA010895EF92FF920B
:103860000F931F93DF93CF93CDB7DEB7A0970FB61B
:10387000F894DEBF0FBECDBF80E00E943523A0E0EC
:10388000B0E0BC01CD0120E03AE040E050E00E9411
:10389000E5362AE096958795779567952A95D1F72D
:1038A0002CED33E040E050E00E94E5362DB73EB706
:1038B000285030400FB6F8943EBF0FBE2DBF0DB755
:1038C0001EB70F5F1F4F7E010894E11CF11CEDB77E
:1038D000FEB7F282E1822EED30E0F80133832283DD
:1038E00022EC3BE040E050E00E942437F8012483C2
:1038F0003583468357830E94CF3A2DB73EB7285F62
:103900003F4F0FB6F8943EBF0FBE2DBF892B19F065
:10391000C7010E941532A0960FB6F894DEBF0FBE05
:10392000CDBFCF91DF911F910F91FF90EF90089540
:10393000AF92BF92DF92EF92FF920F931F93DF93AC
:10394000CF93CDB7DEB7A0970FB6F894DEBF0FBE0A
:10395000CDBF039B02C0DD2406C084E691E00E9437
:103960009632DD24D394029904C082E591E00E944E
:1039700096320E94111C7B018C012DB73EB7285056
:1039800030400FB6F8943EBF0FBE2DBFEDB7FEB767
:1039900031965E010894A11CB11CADB7BEB712965A
:1039A000BC92AE9211978AE391E093838283E48282
:1039B000F582068317830E94CF3A2DB73EB7285F62
:1039C0003F4F0FB6F8943EBF0FBE2DBF892B19F0A5
:1039D000C5010E94153234EEE3163CE0F30630E0F8
:1039E000030730E0130788F481E191E00E949632EA
:1039F0008CEF90E00E9496325E98109285061092AD
:103A000086061092870632E0D32E8D2DA0960FB633
:103A1000F894DEBF0FBECDBFCF91DF911F910F9104
:103A2000FF90EF90DF90BF90AF9008950F931F939A
:103A30008C01DC0115964C91159714962C911497D6
:103A40002150842F90E083709070FC01EE0FFF1FD7
:103A5000E80FF91FEE0FFF1FEE0FFF1FE20FF11D22
:103A6000EE0FFF1FE85CFD4F13962C9121506081F3
:103A70007181620F711D4695469550E025EB35E04A
:103A8000F9014E9F90014F9F300D5E9F300D112424
:103A9000620F731F80E090E028E130E040E050E0EA
:103AA0000E94E536D80112962C91620F711D811D7E
:103AB000911D2CE330E040E050E00E94E536F80133
:103AC0002181620F711D811D911D2CE330E040E0CA
:103AD00050E00E94E5369B01AC01D8018C91280F83
:103AE000311D411D511DB901CA011F910F9108954A
:103AF0006F927F928F929F92AF92BF92CF92DF92FE
:103B0000EF92FF920F931F93CF93DF935C017A01A3
:103B10008B01CB01BA012CE330E040E050E00E9481
:103B20002437F5016083C801B7012CE330E040E0A1
:103B300050E00E942437122F032FF42EE52E622F1F
:103B4000732F842F952F2CE330E040E050E00E944B
:103B50002437F5016183612F702F8F2D9E2D2CE36B
:103B600030E040E050E00E942437122F032FF42E63
:103B7000E52E622F732F842F952F28E130E040E04F
:103B800050E00E942437F5016283612F702F8F2D42
:103B90009E2D28E130E040E050E00E942437922E34
:103BA000832E742E652E622F732F842F952F25EB75
:103BB00035E040E050E00E9424377B018C01809189
:103BC000800290918102A0E0B0E0E816F9060A07B1
:103BD0001B0718F0C3E0D0E01EC0809168029091EE
:103BE0006902A0E0B0E0E816F9060A071B0718F022
:103BF000C2E0D0E010C08091500290915102A0E04C
:103C0000B0E0E816F9060A071B0718F4C0E0D0E098
:103C100002C0C1E0D0E0FE01EE0FFF1FEC0FFD1F60
:103C2000A3E0EE0FFF1FAA95E1F7E25BFD4F7BE0FB
:103C3000C72ED12C80819181A0E0B0E0E816F90672
:103C40000A071B0738F40894C108D1083297C11439
:103C5000D10481F7692D782D872D962D25EB35E040
:103C600040E050E00E942437220F220F2C0FF50174
:103C700025838C2D8F5F84839E2D9F5FFE01EE0F29
:103C8000FF1FEC0FFD1FEE0FFF1FEE0FFF1FEC0DD0
:103C9000FD1DEE0FFF1FE85CFD4F8081981BF501B5
:103CA0009383DF91CF911F910F91FF90EF90DF9061
:103CB000CF90BF90AF909F908F907F906F9008951E
:103CC000DF93CF93CDB7DEB7C254D0400FB6F89490
:103CD000DEBF0FBECDBF22E08030920710F081E042
:103CE00022C0A0E0B0E026E0880F991FAA1FBB1FEA
:103CF0002A95D1F799838A83DB01FE0133969E01D1
:103D00002D5B3F4F8D918193E217F307D9F780EA3E
:103D100062E4AE014F5F5F4F0E94451280E092E186
:103D20000197F1F780E0CE5BDF4F0FB6F894DEBF6E
:103D30000FBECDBFCF91DF9108950F931F93CF9307
:103D4000DF938C01C9EBD5E088819981B8010E948D
:103D5000601E882311F081E006C0229685E0C93FED
:103D6000D80791F780E0DF91CF911F910F910895CF
:103D7000DF93CF9300D000D000D0CDB7DEB79D83C6
:103D80008C838D8189838C818A836B8380EA63E055
:103D9000AE014F5F5F4F0E944512882311F081E012
:103DA00005C080E092E10197F1F780E026960FB61A
:103DB000F894DEBF0FBECDBFCF91DF9108950F9372
:103DC0001F93DF93CF9300D00F92CDB7DEB78B0157
:103DD00022E08030920710F081E018C0A0E0B0E04F
:103DE00036E0880F991FAA1FBB1F3A95D1F7998318
:103DF0008A8380EA62E0AE014F5F5F4F0E9401124A
:103E000080EA60E4A8010E94211280E00F900F90E8
:103E10000F90CF91DF911F910F910895EF92FF9234
:103E20000F931F93DF93CF93CDB7DEB7C454D04029
:103E30000FB6F894DEBF0FBECDBF7C011A82198287
:103E40008E010D5F1F4F2FC0EE0FFF1FE754FA4F7B
:103E500080819181B8010E94DF1E882359F520E0FE
:103E600030E0F801E20FF31FD701A20FB31F9081DA
:103E70008C91981771F0809184068823D9F0CE0137
:103E8000019661E00E947C32C80160E40E947C32AD
:103E900011C02F5F3F4F2034310519F789819A8176
:103EA00001969A838983E981FA81E032F10560F213
:103EB00080E001C081E0CC5BDF4F0FB6F894DEBF3D
:103EC0000FBECDBFCF91DF911F910F91FF90EF906B
:103ED00008950F931F93DF93CF9300D00F92CDB728
:103EE000DEB78B019A838B8380EA62E0AE014E5F7E
:103EF0005F4F0E94011280EA61E0AE014F5F5F4FA9
:103F00000E9421128981F80180830F900F900F90F9
:103F1000CF91DF911F910F9108951F93DF93CF935E
:103F200000D00F92CDB7DEB780E090E0BE016E5FAB
:103F30007F4F0E94691F80E090E060E00E94B81E01
:103F4000882311F010E027C080E090E8BE016D5F8B
:103F50007F4F0E94691F80E090E860E80E94B81ED1
:103F6000882311F010E012C080E090E0BE016F5F86
:103F70007F4F0E94691F8981882311F011E006C0DC
:103F800080E090E86B810E94B81E12E080E090E033
:103F90006A810E94B81E812F0F900F900F90CF91D1
:103FA000DF911F9108954F925F927F928F929F921F
:103FB000AF92BF92CF92DF92EF92FF920F931F9337
:103FC000DF93CF93CDB7DEB7C054D0400FB6F8948F
:103FD000DEBF0FBECDBF0E948D1F782E81E0781608
:103FE00039F488E192E00E94963209EB15E009C0AD
:103FF00092E0791619F48FEF91E0F5CF83EE91E01E
:10400000F2CFE1E07E16A1F40E94D5380E941A0A90
:1040100020E030E040E058E30E94F00820E03CEF70
:104020004FE756E40E94F0080E941A077F7316C0FB
:10403000F2E07F16E1F40E94D5380E941A0A20E0CF
:1040400030E040E058E30E94F00820E03EEF4FEF00
:1040500056E40E94F0080E941A077F7786E0769562
:1040600067958A95E1F7F8017183608303C0F801D1
:10407000118210820E5F1F4FF5E0093F1F0709F004
:10408000C0CF882470C06201B2E04B2E512C4C0C82
:104090005D1C52019924939454C0F6012081318112
:1040A000F501808191812817390709F045C0F1E0B9
:1040B0007F16D1F40E94D5380E0D1F1D000F111F61
:1040C00007541A4F0E941A0A20E030E040E058E3FB
:1040D0000E94F00820E03CEF4FE756E40E94F00811
:1040E0000E941A077F731CC0F2E07F1611F50E9430
:1040F000D5380E0D1F1D000F111F07541A4F0E94B7
:104100001A0A20E030E040E058E30E94F00820EE78
:104110003FEF4FEF58E40E94F0080E941A077770B3
:10412000E6E076956795EA95E1F7F801718360839B
:1041300003C0F6011182108282E090E0A80EB91E41
:104140009394092D10E09FE1991609F0A6CF0894E9
:10415000E11CF11CEFE1EE16F10409F094CF839419
:10416000F8E08F1639F059EBC52E55E0D52EEE2428
:10417000FF248ACFCE0101966AEA70E040E450E065
:104180000E946D3A80918406882321F082EC91E0B0
:104190000E9496328E010F5F1F4FC8010E949D1E24
:1041A000882349F483EB91E00E949632C8010E9473
:1041B0000E1F8823E9F5CE01019665E570E040E425
:1041C00050E00E946D3A80918406882321F082E9B4
:1041D00091E00E9496328E010F5F1F4FC8010E942E
:1041E0009D1E882329F583E891E00E949632C8013C
:1041F0000E940E1F8823E1F480918406882321F019
:1042000084E791E00E9496328E010F5F1F4FC80134
:104210006FEF70E040E450E00E946D3AC8010E94E8
:104220009D1E90E0882309F491E081E0982701C069
:1042300091E0892FC05CDF4F0FB6F894DEBF0FBE50
:10424000CDBFCF91DF911F910F91FF90EF90DF9045
:10425000CF90BF90AF909F908F907F905F904F9046
:1042600008956F927F928F929F92AF92BF92CF925A
:10427000DF92EF92FF920F931F93DF93CF93CDB70F
:10428000DEB7C855D0400FB6F894DEBF0FBECDBF25
:104290000E948D1F813059F0823021F4C12C44E0FE
:1042A000D42E08C084E492E00E94963270C0C12CE3
:1042B00032E0D32EFE0179962FEFCE01875A9F4F21
:1042C0002193E817F907E1F700D000D000D0EDB74F
:1042D000FEB731968E010F5F1F4FADB7BEB7129676
:1042E0001C930E93119784E392E093838283D5828B
:1042F000C4820E94CF3A2DB73EB72A5F3F4F0FB618
:10430000F8943EBF0FBE2DBF892B19F0C8010E9443
:10431000153200E010E05E010894A11CB11C21E3FD
:10432000622E22E0722E99E1892E912C8C0E9D1E18
:1043300078010894E11CF11C00D000D000D0EDB74A
:10434000FEB73196ADB7BEB71296BC92AE9211973A
:1043500073826282F582E4820E94CF3A2DB73EB723
:104360002A5F3F4F0FB6F8943EBF0FBE2DBF892B7B
:1043700019F0C5010E941532C801B4010E94601EE7
:10438000882329F4EC14FD0418F48701D1CF81E0CF
:10439000C85ADF4F0FB6F894DEBF0FBECDBFCF9126
:1043A000DF911F910F91FF90EF90DF90CF90BF9022
:1043B000AF909F908F907F906F9008952F923F9233
:1043C0004F925F926F927F928F929F92AF92BF9225
:1043D000CF92DF92EF92FF920F931F93DF93CF93D1
:1043E000CDB7DEB7C255D0400FB6F894DEBF0FBED2
:1043F000CDBF0E948D1F813059F0823021F4612C95
:10440000E4E07E2E08C085E792E00E949632B4C0B8
:10441000612C72E0772E00D000D000D0EDB7FEB74F
:1044200031968E010F5F1F4FADB7BEB712961C932A
:104430000E93119789E692E093838283758264825A
:104440000E94CF3AEDB7FEB736960FB6F894FEBF8E
:104450000FBEEDBF892B19F0C8010E941532CC2484
:10446000DD24AA24BB2461E1462E512C4C0E5D1E96
:104470004E010894811C911C9E012F5D3F4F639655
:104480003FAF2EAF639750E6252E52E0352EC60182
:10449000B2010E94DF1E882309F06EC0EE24FF24C3
:1044A00000D000D000D0EDB7FEB73196ADB7BEB7A3
:1044B00012969C928E92119723E632E033832283E8
:1044C000C7018A0D9B1D958384830E94CF3AADB7A7
:1044D000BEB716960FB6F894BEBF0FBEADBF892B00
:1044E00009F44AC0F40101900020E9F73197E81976
:1044F000F909C4016E2F0E94E5318201F801808123
:104500000E94BA310097C1F163E00E94E5310F5F6C
:104510001F4F63962EAD3FAD63970217130771F7D8
:1045200000D000D0ADB7BEB712969C928E92119774
:1045300014963C922E9213970E94CF3A0F900F90B0
:104540000F900F90892B21F0C40162E00E94E531A9
:10455000E0E1F0E0EE0EFF1EF0E4EF16F10409F0EA
:104560009FCF0894C11CD11C20E430E0A20EB31EE2
:10457000C614D70408F48BCFCE5ADF4F0FB6F89489
:10458000DEBF0FBECDBFCF91DF911F910F91FF9086
:10459000EF90DF90CF90BF90AF909F908F907F90E3
:1045A0006F905F904F903F902F9008950E949F11C1
:1045B000089581B1806E81B982B18F7182B90895F9
:1045C0006091F9057091FA056F5F7F4F7093FA055E
:1045D0006093F90545E050E0A1E0B0E0FA01E05851
:1045E000F94F80818823A1F080818F3F31F0808155
:1045F00090E086239723892B59F022B1CD01042E18
:1046000002C0880F991F0A94E2F7282B22B90BC029
:1046100022B1CD01042E02C0880F991F0A94E2F73F
:104620008095822382B94F5F5F4F48305105B1F6C4
:104630008091FB059091FC05A091FD05B091FE05D0
:104640000196A11DB11D8093FB059093FC05A093DD
:10465000FD05B093FE0508956091FB057091FC0582
:104660008091FD059091FE050895CF92DF92EF9223
:10467000FF920F931F93F82E0EE710E0F801E080F1
:10468000D1B0C2B0208181E090E00F2C02C0880F31
:10469000991F0A94E2F7282B208321B180952823C3
:1046A00021B922B1822382B983E00E94EC0C64E636
:1046B00070E080E090E00E9445318F2D0E940C0D4B
:1046C0008F2D0E940C0DF801E082D1B8C2B81F9165
:1046D0000F91FF90EF90DF90CF9008951F920F926F
:1046E0000FB60F9211248F9380918F068F5F809366
:1046F0008F0680918F0680FF04C08FEF8093850620
:1047000002C0109285068F910F900FBE0F901F90E0
:10471000189585EB94E00E949632469A68EC70E01A
:1047200080E090E00E944531469881E090E00E9450
:10473000653186B180780895FF920F931F93F82E0C
:104740000E944318FC01068117818F2D0E94431897
:10475000FC0120813181200F311FC9011F910F9170
:10476000FF9008951F93182F862F90E00E947631B6
:10477000812F0E947F18882381F468E670E080E032
:1047800090E00E944531812F0E94431860E00E9412
:10479000C90D882339F081E005C00E947031892B52
:1047A00039F780E01F910895FF920F931F93CF93E5
:1047B000DF93F82E8B016115710571F0642F0E9453
:1047C000B223882349F08F2D0E949C23EC01B8016D
:1047D0000E94893A009711F4C0E0D0E0CE01DF9149
:1047E000CF911F910F91FF900895EF92FF920F9339
:1047F0001F93CF93DF93F82E162F072FEA01E22E97
:1048000080918406882321F0862F972F0E941532ED
:104810008F2D0E94861AE12FF02FDF010D900020CE
:10482000E9F71197AE1BBF0B8F2D612F702FAD01D4
:104830000E94AD19EE2019F4C0E0D0E00FC08F2D1A
:10484000BE014E2D0E94D423EC01009739F08091D7
:104850008406882319F0CE010E941532CE01DF9123
:10486000CF911F910F91FF90EF900895AF92BF925B
:10487000CF92DF92EF92FF920F931F93DF93CF932C
:10488000CDB7DEB7C055D0400FB6F894DEBF0FBE2F
:10489000CDBFB82E8B017A01A22ECB010E944A3ADD
:1048A0000197CF9710F581E1C82ED12CCC0EDD1EDB
:1048B000C601B8010E94433A892BB9F0C7010E9492
:1048C0004A3A01970F9788F48E010F5F1F4FC80176
:1048D000B7010E94433A892B41F08B2DB601A80104
:1048E0002A2D0E94F5239C0102C020E030E0C9017E
:1048F000C05BDF4F0FB6F894DEBF0FBECDBFCF91C8
:10490000DF911F910F91FF90EF90DF90CF90BF90BC
:10491000AF9008952F923F924F925F927F928F9225
:104920009F92AF92BF92CF92DF92EF92FF920F933E
:104930001F93DF93CF93CDB7DEB7C255D0400FB6EC
:10494000F894DEBF0FBECDBF4B01DB011C9264EBC0
:1049500072E041EB52E02CE30E943624009709F408
:10496000B6C05C0100E010E07724A3E22A2E312CCF
:104970002C0E3D1EF3E04F2E512C4C0E5D1E9CC0A4
:10498000883221F485010F5F1F4F93C0893209F0EF
:1049900090C09A2D901BD101F80102C081918D9396
:1049A0008E2F801B8917D0F3F101E90FF11D1082C2
:1049B000C1016FEA72E00E94533A8C01009711F432
:1049C00075012BC06C010894C11CD11CC6016DEA95
:1049D00072E00E94533A7C010097F9F08C19B801FB
:1049E0009201E82FF0E03196A8014E0F5F1F31973A
:1049F00005C0DB018C91D9018D939D016F5F7F4FC5
:104A000064177507B1F7E40DF51D108280918406D7
:104A1000882319F0C2010E941532C70101966BEA82
:104A200072E00E94533A8C01009709F442C001964B
:104A300069EA72E00E94533A0097C9F1B7E0B715EE
:104A4000B0F1BC016F5F7F4FF62EF01AD80190E0F5
:104A5000472D50E09A01E3E0220F331FEA95E1F77A
:104A6000240F351F280D391D06C0F901E90FF11D6E
:104A70008D9181839F5F9F15C0F3FA0193E0EE0F44
:104A8000FF1F9A95E1F7E40FF51FE80DF91DEF0DF3
:104A9000F11D11827394FB01818189831A828091B7
:104AA0008406882321F0CE0101960E94153200E091
:104AB00010E00894A11CB11CD5018C91882309F049
:104AC0005FCF772021F0F401708281E001C080E0A7
:104AD000CE5ADF4F0FB6F894DEBF0FBECDBFCF91D9
:104AE000DF911F910F91FF90EF90DF90CF90BF90DB
:104AF000AF909F908F907F905F904F903F902F90BE
:104B00000895EF92FF920F931F93CF93DF93E82EB8
:104B1000EB01F42E80918406882321F485E393E051
:104B20000E94963200E010E020C08E2D6AE273E011
:104B300047E253E022E00E943624009791F065E2BC
:104B400073E00E94533AFC01009759F0818183334E
:104B500021F41F5F133029F40AC0813351F08533EB
:104B600041F00F5FCE010E9465310F15F0F280E039
:104B700001C081E0DF91CF911F910F91FF90EF90E5
:104B80000895EF92FF920F931F93CF93DF93E82E38
:104B9000EB01F42E80918406882321F485E593E0CF
:104BA0000E94963210E000E027C08091840688239E
:104BB00049F410FF03C081E06CE502C081E06FE2C0
:104BC0000E9459188E2D6BE473E048E453E022E014
:104BD0000E943624FC01009759F08385833321F429
:104BE0000F5F033029F40AC0813351F0853341F05F
:104BF0001F5FCE010E9465311F15B8F280E001C031
:104C000081E0DF91CF911F910F91FF90EF90089578
:104C10004F925F926F927F928F929F92BF92CF92AC
:104C2000DF92EF92FF920F931F93DF93CF93CDB755
:104C3000DEB7E0970FB6F894DEBF0FBECDBFB82E3B
:104C40004B0118E9C12E12E0D12E3E010894611CDF
:104C5000711CB3E94B2EB3E05B2ED601ED90FD90B5
:104C60000D911C918B2DB801A7010E94231864E6B9
:104C700070E080E090E00E944531EDB7FEB73897D4
:104C80000FB6F894FEBF0FBEEDBF3196ADB7BEB7FD
:104C900012967C926E92119753824282E482F58240
:104CA000068317830E94CF3AEDB7FEB738960FB64A
:104CB000F894FEBF0FBEEDBF892BE9F0C3010E943F
:104CC00015328B2D6FE873E04CE853E022E00E9430
:104CD0003624892B81F0D401ED92FD920D931C9323
:104CE00013978B2D66E873E043E853E022E00E94BF
:104CF000362481E00BC0E4E0F0E0CE0EDF1EF8EBDE
:104D0000CF16F2E0DF0609F0A8CF80E0E0960FB6FC
:104D1000F894DEBF0FBECDBFCF91DF911F910F91F1
:104D2000FF90EF90DF90CF90BF909F908F907F90FB
:104D30006F905F904F9008958F929F92BF92CF9205
:104D4000DF92EF92FF920F931F93DF93CF93CDB734
:104D5000DEB7C956D0400FB6F894DEBF0FBECDBF48
:104D6000F82E662309F482C080918406882319F402
:104D700081E080938E0610E091E2C92ED12CCC0EFA
:104D8000DD1E07C085E090E00E9465311F5F143191
:104D900031F08F2DB6010E948A24882399F3B9A09F
:104DA000BB2009F45CC08E010E5D1F4FEE246E0126
:104DB0000894C11CD11C85E1882E83E0982E4CC03C
:104DC00000D000D000D0EDB7FEB73196ADB7BEB77A
:104DD0001296DC92CE92119793828282158304837D
:104DE0000E94CF3A2DB73EB72A5F3F4F0FB6F894D7
:104DF0003EBF0FBE2DBF892B61F18F2DB60140E064
:104E000051E025E00E94F523892B19F165E070E05F
:104E100080E090E00E94453180918E06882311F059
:104E200010928E068F2D6AE070E04AE00E94C12544
:104E3000882359F08F2D6AE070E045E00E948125BB
:104E4000882361F581E093E002C08AEE92E00E943F
:104E50009632E394075F1F4FEB1408F4B1CF8091B3
:104E60008E068823E1F010928E0613C06AE070E08F
:104E70004AE00E94C125882371F08F2D6AE070E01E
:104E800045E00E948125882349F486ED92E00E9446
:104E9000963280E004C08FEB92E0F9CF81E0C759F1
:104EA000DF4F0FB6F894DEBF0FBECDBFCF91DF91BD
:104EB0001F910F91FF90EF90DF90CF90BF909F9048
:104EC0008F900895AF92BF92DF92EF92FF920F936F
:104ED0001F93DF93CF93CDB7DEB7A4970FB6F894A7
:104EE000DEBF0FBECDBFD82E7A018B01BE016F5F32
:104EF0007F4F0E940826882309F440C02DB73EB793
:104F0000285030400FB6F8943EBF0FBE2DBFEDB70E
:104F1000FEB7319625E0A22EB12CAC0EBD1EADB76A
:104F2000BEB71296BC92AE92119784E793E093833A
:104F30008283E482F582068317830E94CF3A2DB7DD
:104F40003EB7285F3F4F0FB6F8943EBF0FBE2DBF50
:104F5000892BA1F08D2DB50140E051E025E00E94A4
:104F6000F523892B59F08D2DB801A7010E94231834
:104F700085E090E00E94653181E001C080E0A49668
:104F80000FB6F894DEBF0FBECDBFCF91DF911F915A
:104F90000F91FF90EF90DF90BF90AF9008951F9317
:104FA000182F8AE194E00E949632379936C083E048
:104FB00094E00E949632812F6AEF73E047EF53E04E
:104FC00025E00E943624892B51F480EE93E00E9464
:104FD0009632459A84E090E00E94653145988FE0D2
:104FE00090E00E947631379904C00E947031892B7D
:104FF000D1F70E947031892B61F40E9489238823A4
:1050000061F089EB93E00E949632812F0E94CF27B6
:1050100004C085E090E00E94653184EA93E00E943C
:1050200096321F91089510928E0680E00E94CF273D
:1050300008951F938FE994E00E9496320E94111CFC
:1050400065597C4080409040C0F0379B1CC081E88F
:1050500094E00E949632459A8AE090E00E94653181
:10506000459881E090E00E946531379B0CC00E941A
:10507000892310E0882341F406C080E694E00E9472
:10508000963210E001C011E081E090E00E946531AD
:10509000112319F089E494E002C081E394E00E94B6
:1050A0009632812F1F9108950F931F93DF93CF9313
:1050B0000F92CDB7DEB782E00E94943180916000FC
:1050C00080688093600080916000806480936000BD
:1050D0000E941928882309F446C080E040E05BE480
:1050E00060E070E00E946227882309F43CC081E9F7
:1050F00092E00E9496322DE088E190E00FB6F8949D
:10510000A895809360000FBE209360008E010F5F12
:105110001F4FF89480918C06816080938C06789460
:1051200080E0B8010E94281A882321F081E069817B
:105130000E945918F89480918C06826080938C06A6
:10514000789481E0B8010E94281A882321F080E039
:1051500069810E94591880918C068330D1F6A895F8
:1051600010928C06D6CF0F90CF91DF911F910F91A7
:105170000895089580E996E00895EF92FF920F93C5
:105180001F93CF93DF938C010EC0C80160E070E0E5
:105190000E94B50D843221F481E0E82EF12C43C049
:1051A000C8010E94600DF80184819581892B69F7FF
:1051B00042C0C801B7010E94B50D8D3089F5B70115
:1051C0006F5F7F4FC8010E94B50D8A3049F5C80155
:1051D0000E94600DC0E0D0E00894E108F1080FC023
:1051E000CF34D10540F4C8010E94600DFE01E057A4
:1051F000F94F808303C0C8010E94600D2196CE152F
:10520000DF0570F380E996E0E80EF91EF7011082E1
:10521000C8010E94600DC8010E94600D8FEF0CC094
:105220000894E11CF11CF801848195810197E8162E
:10523000F90608F4BECF80E0DF91CF911F910F9166
:10524000FF90EF9008951092EF061092EE06EA9804
:1052500008958091E1069091E20601969093E2060E
:105260008093E106089590E040E050E0682F70E000
:10527000292F220FCB01042E02C0959587950A9401
:10528000E2F7982F9170922B4F5F5F4F4830510596
:1052900079F7892F0895282F6AE00E940437392F63
:1052A000822F0E9404378295807F832B0895982F48
:1052B00082958F702AE0829F802D11249F70890F24
:1052C0000895880F80660E94011208958091EB0670
:1052D0008E7F8093EB068091EB068D7F8093EB06AB
:1052E0008091EB068B7F8093EB068091EB06877FA6
:1052F0008093EB068091EB068F7E8093EB06809186
:10530000EB0680628093EB068091EB0680648093CD
:10531000EB068091EB0680688093EB0682E661E005
:105320004BEE56E00E9401120895DF93CF93CDB764
:10533000DEB728970FB6F894DEBF0FBECDBF8091C1
:10534000E8060E94332989838091E9060E94332967
:105350008A838091EA060E9433298B8386E663E084
:10536000AE014F5F5F4F0E94011228960FB6F8946E
:10537000DEBF0FBECDBFCF91DF910895EF92FF92B8
:105380000F931F93DF93CF93CDB7DEB728970FB658
:10539000F894DEBF0FBECDBF00E010E07E010894A0
:1053A000E11CF11CF801EC51F94F80810E94332976
:1053B000F701E00FF11F80830F5F1F4F07301105CA
:1053C00089F784E667E0A7010E94011228960FB6CC
:1053D000F894DEBF0FBECDBFCF91DF911F910F912B
:1053E000FF90EF900895880F80660E942112089523
:1053F000EF92FF920F931F93CF93DF937C0184E68C
:1054000067E044EE56E00E942112C0E0D0E08E0139
:105410000C51194FD8018C910E943329F8018083D7
:105420002196C730D10599F72091E6062F73309168
:10543000E5063F714091E4068DB79EB70A970FB617
:10544000F8949EBF0FBE8DBFEDB7FEB73196ADB7D6
:10545000BEB71296FC92EE92119781EE94E0938380
:1054600082832483158236831782408711860E94A7
:10547000CF3A8C012091E8062F733091E9063F77EF
:105480004091EA064F77EDB7FEB73196E80EF91E68
:10549000ADB7BEB71296FC92EE92119781ED94E0F3
:1054A00093838283248315823683178240871186F3
:1054B0000E94CF3A9C01200F311FEDB7FEB73A96FC
:1054C0000FB6F894FEBF0FBEEDBFC901DF91CF91BB
:1054D0001F910F91FF90EF9008950F931F93182F36
:1054E000062F2A9A22981092E0061092EF06109248
:1054F000EE0680E661E040EF56E00E94211282E66F
:1055000061E04BEE56E00E9421128091EB068E7F07
:105510008093EB068091EB068D7F8093EB06809164
:10552000EB068B7F8093EB068091EB06877F809361
:10553000EB068091EB068F7E8093EB061230D1F064
:10554000133020F4113009F046C006C01330D9F0F2
:10555000143009F040C02EC08091EB068F7D8093FF
:10556000EB068091EB0680648093EB068091EB065E
:10557000806823C08091EB0680648093EB06809165
:10558000EB068F771AC08091EB068F7D8093EB0638
:105590008091EB068F7B8093EB068091EB06806811
:1055A0008093EB06013059F48091F2068860809375
:1055B000F20605C08091EB0680618093EB0688E6D9
:1055C00061E042EF56E00E94011282E661E04BEE9C
:1055D00056E00E9401121F910F910895CF93DF931F
:1055E00020918400309185001092850010928400F3
:1055F0008FEF8093E0068091EC06882371F1E9013A
:10560000CF5AD6401A9B0EC082E062E00E94C010C2
:10561000CA35D10520F481E08093ED0610C01092C8
:10562000ED060DC082E063E00E94C010CA35D105CE
:1056300020F481E08093F10602C01092F10680917F
:10564000F106882341F08091ED06882321F08FEF49
:105650008093870602C010928706DF91CF9108954C
:1056600082E062E00E94C01082E00E94F31082E0BB
:1056700069E279E20E94E8100895CF92DF92EF92FA
:10568000FF920F931F93DF93CF93CDB7DEB7E097D1
:105690000FB6F894DEBF0FBECDBFC0906E00D090A5
:1056A0007000E0907A00F090BC000091C100109171
:1056B000C90084E060E00E946D2A88E395E00E94C2
:1056C00096326AEF70E080E090E00E9445311092DF
:1056D0006E001092700010927A001092BC0010922E
:1056E000C1001092C9000E94302B80918100886017
:1056F000809381008FE09EE09093890080938800E2
:1057000085E00E94CB1482E063E279E20E941B15DF
:105710001092850010928400B19A80916F0082608F
:1057200080936F00E29AEA9A78941092E2061092BF
:10573000E10681E090E09093EF068093EE06809181
:10574000EE069091EF06892BD1F780916F008D7F47
:1057500080936F00C0926E00D0927000E0927A0049
:10576000F092BC000093C1001093C9006AEF70E092
:1057700080E090E00E94453180918406882321F0EA
:1057800082E195E00E9496322091E1063091E20696
:1057900000D000D000D0EDB7FEB731968E010F5F7C
:1057A0001F4FADB7BEB712961C930E93119781EFA2
:1057B00094E093838283358324830E94CF3A2DB76C
:1057C0003EB72A5F3F4F0FB6F8943EBF0FBE2DBFC6
:1057D000892B19F0C8010E9415328091E106909141
:1057E000E206892B89F08091E1069091E2068F5ABA
:1057F0009F4750F08091E1069091E20620E08255AB
:10580000904818F421E001C020E0822FE0960FB606
:10581000F894DEBF0FBECDBFCF91DF911F910F91E6
:10582000FF90EF90DF90CF9008951F931092EC06B9
:105830000E949F1164EF71E080E090E00E9445318A
:1058400080E661E040EF56E00E9421128091F00670
:105850008093E3068091F00680FD06C08091F006FB
:1058600081FD02C010E020C064EF71E080E090E0B4
:105870000E9445318091F00680688093F00680E6B2
:1058800061E040EF56E00E94011280E661E040EFE7
:1058900056E00E9421128091F00680FDEBCF8091AE
:1058A000F00681FDE7CF1FEF8091F00680648093C2
:1058B000F0068091F0068B7F8093F0068091F006D1
:1058C000877F8093F00680E661E040EF56E00E941B
:1058D000011280E661E040EF56E00E9421128091C3
:1058E000F00686FFE1CF812F1F9108951092F506F3
:1058F000089580E880BF10927A008FE380937E0045
:1059000083E080937F0008958CE495E00E949632B6
:105910000E942E1C0E94981C08958DE695E00E941E
:10592000963280E695E00E949632289A85E090E0D3
:105930000E946531299A64EF71E080E090E00E9456
:105940004531299881E00E94943185E090E00E94E1
:10595000763181E00E94861A81E00E947F188823B8
:1059600069F460E570E080E090E00E94453181E0FC
:105970000E9443180E94BD28882329F40E94703198
:10598000892B51F7E2CF0E94BA280E941532DDCF51
:10599000EF92FF920F931F93DF93CF93CDB7DEB7B4
:1059A000A0970FB6F894DEBF0FBECDBF84E895E098
:1059B0000E949632109287061092860610928506F3
:1059C0005E9A80E00E9494310E944B330FEF7E017B
:1059D0000894E11CF11C009385065F9881E0B701F3
:1059E00040E222E00E940333182F882371F00093D5
:1059F000860681E00E94FF32F701E10FF11D10825F
:105A0000C7010E941532109286065F9A1092850691
:105A10008AE090E00E946531C7010E94F829892B35
:105A200019F0C7010E9415320E94981C81E090E095
:105A30000E946531D0CF80EB95E00E9496328AE9D2
:105A400095E00E9496320E94662964EF71E080E042
:105A500090E00E9445318091C10087728093C1001F
:105A60008091C90087728093C9008091BC008B7FB0
:105A70008093BC0080E880BF10927A008FE380930F
:105A80007E0083E080937F001CBA1DBA10926800EC
:105A90001BBA64E670E080E090E00E9445318FEF31
:105AA00080936400F89480EE81B912B893E094B9C1
:105AB00015B887E787B998B98AE78AB980E38BB9BF
:105AC00088E893E12CE530E0F9013197F1F701978F
:105AD000D9F72CE530E083B7817F846083BF83B73B
