:100000000C9470060C94CC0A0C94F90A0C94260BF0
:100010000C948D060C948D060C948D060C948D0614
:100020000C94891A0C94AB110C948D060C94B71097
:100030000C947E110C9424110C9451110C948A1080
:100040000C94F7100C948D060C9437100C948D06BC
:100050000C94B8120C948D060C9448130C948D06D5
:100060000C9412070C948D060C94AA0C0C948D061B
:100070000C9493120C948D060C942313636D643EC0
:1000800000636D646C696E653A2000636F6D6D612D
:100090006E64206E6F7420666F756E6400000001E0
:1000A00000080040000001000400000100080020DA
:1000B0000040008000000100041B5B25643B2564B8
:1000C00048001B5B3F32356C001B5B3F32356800DC
:1000D0001B5B25646D001B5B324A001B6300436899
:1000E000617267652043757272656E74204D6F6E24
:1000F00069746F723A2025646D412E0077697265CC
:100100006C657373206D6F64756C65204F46462176
:10011000004C6F77207468726573686F6C6420623E
:100120006174746572792E2E2E4E65656420746F2D
:100130002070726F746563742E004261747465720E
:100140007920566F6C746167653A2025646D562E70
:100150000042617474657279204368617267696EE8
:1001600067210042617474657279204661756C7410
:1001700079210044656C65746520454550524F4DAA
:100180002E0056657269667920656570726F6D2EF6
:1001900000454550524F4D2057726974652050619B
:1001A000676528363462797465732920307835356F
:1001B0002E0056657269667920656570726F6D2EC6
:1001C00000454550524F4D2057726974652050616B
:1001D0006765283634627974657329203078414127
:1001E0002E0022002200220022004F4B0041542BFF
:1001F000434F50533D3F0D004E6574776F726B2037
:100200006163636573732064656E6965642E00477E
:10021000505253206163636573732064656E696532
:10022000642E004E6574776F726B20616363657333
:10023000732064656E6965642E00475052532061D7
:1002400063636573732064656E6965642E00415451
:100250002B434F50533D312C322C25730D002C0075
:100260004F4B0041542B43475245473F0D004750E9
:10027000525320526567697374726174696F6E2E90
:10028000004F4B0041542B435245473F0D000D0A90
:100290004E6574776F726B20526567697374726113
:1002A00074696F6E205265706F72742E0041542B0A
:1002B0004950523D256C753B26570D004F4B004170
:1002C0005445300D004F4B0041540D005365617291
:1002D0006368696E673A256C756273700047534DA9
:1002E000204D6F64656D20506F776572204F4646D4
:1002F0002E0047534D204D6F64656D20506F77651C
:1003000072204F464620536572696F757320507294
:100310006F626C656D212121006F6666206D6F64D0
:1003200065206B65792070726F6365647572650016
:100330004F4B004154235348444E0D0047534D202A
:100340004D6F64656D20506F776572206973204F23
:100350004E2E007374617274206D6F64656D5077FA
:10036000724F666650726F632E0050726F746563D1
:1003700074206D6F64656D2033472E2E2E204C6FD8
:100380007720626174746572792E0047534D204D59
:100390006F64656D20506F776572204F4E2E004759
:1003A000534D204D6F64656D20506F7765722069E5
:1003B00073204F46462E007374617274206D6F6413
:1003C000656D5077724F6E50726F632E006D6F6463
:1003D000656D33474877536844776E556E636F6E2B
:1003E000646974696F6E616C0054696D653A257853
:1003F0003A25783A25780D0A00446174653A2578E3
:100400002F25782F25782020004D65617375726542
:100410003A205254435F4352595354414C5F465221
:1004200051203D202575487A2E004465736972611C
:10043000626C65206372797374616C2076616C758F
:1004400065203332373638487A2F302E35252E0046
:1004500057616974696E672032207365636F6E64DB
:100460002E2E2E007374617274206368617267654A
:10047000725F746573742E0067707320706F776598
:1004800072204F4E000D0A57656C636F6D652074C6
:100490006F20475053205465737421007374617248
:1004A0007420726164696F205548462074657374C6
:1004B0002E00536C6565702043757272656E7420F2
:1004C0003C20353075412E005374617274696E673B
:1004D00020536C65657020546573742E006D6F64D5
:1004E000656D2067736D2074657374206661696C37
:1004F00065642E00536574206D6F64656D205375BF
:10050000636365737366756C2E2E2E005465737469
:1005100020436F6D6D756E69636174696F6E2053F2
:1005200075636365737366756C2E2E2E005374614C
:100530007274205465737420436F6D6D756E6963BA
:100540006174696F6E2E004F4B0041540D004F4B8C
:100550002E2E2E00536574206D6F64656D206261D0
:100560007564726174652031393230306273702E77
:100570000049676E6974696F6E206D6F64656D2EDA
:100580002E2E007374617274206D6F64656D206728
:10059000736D20746573742E00454570726F6D2005
:1005A0006973206661696C65642E00454570726FE1
:1005B0006D206973207375636365737366756C2E44
:1005C0000053746172742054657374696E672045BA
:1005D0004570726F6D3A2032344C4336342F3235C9
:1005E0003600525443206F7363696C6C61746F7290
:1005F000206661696C65642E2E2E2E2E00525443A7
:10060000206F7363696C6C61746F722073756363C0
:1006100065737366756C2E00537461727420746513
:100620007374696E6720525443206F7363696C6CF6
:1006300061746F722E2E2E00466F726D61743A20B7
:1006400044442F4D4D2F59592048483A4D4D3A5367
:1006500053202D2055706461746564206E6F742082
:10066000646F6E652E003A003A0020002F002F00C4
:1006700037202D20736C6565705F74657374003668
:10068000202D2067736D5F746573740035202D20F5
:100690006770735F746573740034202D2072616419
:1006A000696F5F7568665F746573740033202D2011
:1006B000636861726765725F746573740032202DC0
:1006C00020656570726F6D5F746573740031202DE5
:1006D000207274635F746573740071202D206578D7
:1006E00069740068202D20646973706C61797320CF
:1006F000617661696C61626C6520636F6D6D616EBE
:10070000647300417661696C61626C6520636F6D32
:100710006D616E6473206172653A00457869746535
:10072000642070726F6772616D2100444154453AD4
:100730004170722033302032303137202054494DFF
:10074000453A31353A34353A31380050524F4752F4
:10075000414D205645522D312E302E3000574252F9
:10076000443230302D5645523220436172642E009F
:100770004C6F6767657220576972656C657373208B
:1007800054657374696E672E000D0A000D0A002C03
:10079000002C004F4B0041542B434744434F4E54D1
:1007A0003F0D004F4B0041542B43474154543D31C2
:1007B0000D003A002B43474154543A0041542B4317
:1007C000474154543F0D004F4B0041542353483D83
:1007D000310D004F4B002B2B2B00434F4E4E45430A
:1007E000540041542353443D312C302C31303138A6
:1007F0002C2270726F78792E706879746563682E18
:10080000636F6D220D00313031382C2270726F7899
:10081000792E706879746563682E636F6D22004F5E
:100820004B0041542353474143543D312C310D007B
:100830004F4B00415423534346473D312C312C3517
:1008400030302C36302C3330302C31300D004F4BC3
:100850000041542B434745515245513D312C342CD6
:10086000302C302C302C302C322C302C2230453097
:10087000222C22304530222C332C302C300D004FCE
:100880004B0041542B4347515245513D312C302CA4
:10089000302C332C302C300D004F4B00415423535F
:1008A0004346473D332C312C3530302C36302C33F9
:1008B00030302C31300D004F4B0041542B43474515
:1008C000515245513D332C342C302C302C302C30AF
:1008D0002C322C302C22304530222C223045302234
:1008E0002C332C302C300D004F4B0041542B434700
:1008F000515245513D332C302C302C332C302C3080
:100900000D004F4B004154234D4F4E490D00452DD6
:10091000555452414E20416363657373205465639F
:10092000686E6F6C6F67792053656C65637465647E
:1009300000555452414E20772F4853445041206176
:100940006E642048535550412041636365737320A2
:10095000546563686E6F6C6F67792053656C65636F
:1009600074656400555452414E20772F48535550BA
:10097000412041636365737320546563686E6F6CD7
:100980006F67792053656C656374656400555452D4
:10099000414E20772F485344504120416363657393
:1009A0007320546563686E6F6C6F67792053656C54
:1009B00065637465640047534D20772F4547505257
:1009C000532041636365737320546563686E6F6C75
:1009D0006F67792053656C65637465640055545284
:1009E000414E283347292041636365737320546562
:1009F00063686E6F6C6F67792053656C65637465AF
:100A0000640047534D2F4750525320416363657331
:100A10007320546563686E6F6C6F67792053656CE3
:100A20006563746564002C002C002C004F4B004162
:100A3000542B434F50533F0D004F4B0041542B4319
:100A400053510D002D2D2D2D2D2D20204E65747709
:100A50006F726B20496E666F726D6174696F6E2084
:100A6000202D2D2D2D2D2D2D2D2D004F4B004154A2
:100A70002B434F50533D300D0041542B43474443CB
:100A80004F4E543D25642C224950222C25732C2294
:100A9000302E302E302E30222C302C300D004C6F6A
:100AA00063616C2041504E20436F6E6669677572BA
:100AB0006174696F6E2E00526F616D696E672041BF
:100AC000504E20436F6E66696775726174696F6E10
:100AD0002E0041504E3A002D2D2D2D2D2D20415010
:100AE0004E20436F6E66696775726174696F6E2020
:100AF000202D2D2D2D2D2D2D2D2D00393732003A65
:100B0000004F4B00415423434349440D0053696D4A
:100B10002063617264206E6F7420666F756E642E40
:100B200000235153533A20004F4B0041542351535B
:100B3000533F0D004F4B004154264B303B26443071
:100B40003B2B4943463D333B2650303B26570D0057
:100B50004F4B00415423534C45445341560D004FD5
:100B60004B00415423534C45443D322C31300D0051
:100B70004F4B004154234750494F3D312C302C32CC
:100B80000D004F4B00415423535449413D310D005A
:100B90004C6F63616C2053696D2043617264204423
:100BA000657465637465642E00526F616D696E676C
:100BB0002053696D204361726420446574656374D9
:100BC00065642E002D2D2D2D20204D6F64656D2028
:100BD00053657474696E6720202D2D2D2D004F4BA9
:100BE0000041542B575334363F0D004F4B004154B6
:100BF0002B4347534E0D004F4B0041542B43474D61
:100C0000490D004F4B0041542B43474D520D004DB1
:100C10006F64656D20344720546563686E6F6C6F38
:100C20006779004C453931302D53564C004C4539CD
:100C30003130004D6F64656D203347205465636823
:100C40006E6F6C6F67790055453931300048453912
:100C50003130004D6F64656D203247205465636804
:100C60006E6F6C6F677920004F4B0041542B4347E8
:100C70004D4D0D002D2D2D2D20204D6F64656D20C7
:100C8000496E666F726D6174696F6E20202D2D2D17
:100C90002D004A5441475F52535400574154434832
:100CA000444F475F5253540042524F574E4F555492
:100CB0005F5253540045585445524E414C5F525375
:100CC0005400504F5745525F52535400506F776550
:100CD00072206F6E2064657465637465642E000015
:100CE00011241FBECFEFD0E1DEBFCDBF11E0A0E0E9
:100CF000B1E0E8EAF8E602C005900D92A03CB10729
:100D0000D9F716E0A0ECB1E001C01D92A030B10708
:100D1000E1F70E94532D0C9452340C940000AAE782
:100D2000B0E08C9180688C938C918F7D8C938C91AA
:100D3000887F86608C93ECE7F0E08081806C808314
:100D400080818F7D80838C9188608C931092FA04CF
:100D500078940895EAE7F0E08081877F808380813E
:100D60008F7780830895EAE7F0E09081987F982B51
:100D700090830895ECE7F0E090818295880F880FCA
:100D8000807C9F73982B90830895ECE7F0E090812E
:100D90008F71907E892B80830895EAE7F0E080814F
:100DA00080618083808180648083089580917A004F
:100DB000807408951092FA0490917C008F71907E57
:100DC000892B80937C0080917A00806180937A00E7
:100DD0002CE530E083B7817F826083BF83B7816079
:100DE00083BF889583B78E7F83BF88E893E1F9013D
:100DF0003197F1F70197D9F78091FA04882351F3DD
:100E00002091780040917900942F80E030E0282BE9
:100E1000392BC90108950E94DA0696958795969513
:100E2000879508951F920F920FB60F9211248F93FA
:100E30008FEF8093FA048F910F900FBE0F901F9049
:100E40001895FC018FB7F8947183608353834283B4
:100E500017821682158214828FBF0895DC014FB766
:100E6000F89414968D919C911597892B11F4E0E0DC
:100E700025C016968D919C911797ED91FC91119735
:100E8000E80FF91FE081019617969C938E931697B1
:100E900012962D913C9113978217930730F0821B85
:100EA000930B17969C938E93169714968D919C9105
:100EB0001597019715969C938E9314974FBF8E2F7D
:100EC0000895FC014FB7F8948481958168177907DC
:100ED000B0F486819781860F971F9783868322813E
:100EE00033818217930720F0821B930B97838683AD
:100EF00084819581861B970B9583848302C015821C
:100F000014824FBF0895FC01CB012FB7F8942FBF77
:100F10002681378162817381820F931F0E94D42DB5
:100F20000190F081E02DE80FF91F808108951F9353
:100F3000CF93DF93EC01162F4FB7F8942C813D81AE
:100F40006A817B812617370798F48E819F81820FF3
:100F5000931F0E94D42DE881F981E80FF91F1083B7
:100F60008C819D8101969D838C834FBF8FEF02C042
:100F70004FBF80E0DF91CF911F910895FC018FB7A3
:100F8000F8948FBF2281338184819581281B390B8E
:100F9000C9010895FC018FB7F894158214828FBFA0
:100FA00008951092FF041092FB0410920005109215
:100FB000FD041092FC041092FE040895CF93DF9379
:100FC000CCE7D0E009C02196F9016491E0910802D4
:100FD000F091090281E009959E01FE018491882328
:100FE00091F7DF91CF910895E091FC04F091FD0419
:100FF000309739F009951092FD041092FC040E947C
:10100000DE0708951F93CF93DF93E0910802F091DC
:10101000090281E06DE009950E94DE071091FB0452
:10102000C1E0D5E008C06991E0910802F0910902A1
:1010300081E0099511501123B1F7DF91CF911F91F4
:10104000089590930902809308020E94DE07089594
:10105000CF93DF93C1E8D0E009C02196F9016491F4
:10106000E0910802F091090281E009959E01FE01DC
:101070008491882391F7C1E0D5E007C02196E091E3
:101080000802F091090281E009956881662311F058
:101090006032A1F7E0910802F091090281E06AE371
:1010A0000995E0910802F091090281E060E209955A
:1010B000CBE8D0E006C02196FA01649181E0F90105
:1010C0000995AE01FE018491209108023091090238
:1010D000882389F781E06DE0F9010995E091080224
:1010E000F091090281E06AE00995DF91CF910895BE
:1010F000382F20E001C02F5FE22FF0E0EF5FFA4FC2
:1011000080818032C1F390E014C02F5FE22FF0E0C5
:10111000EF5FFA4FE081EE2321F0E032B1F701C03A
:101120002F5FE22FF0E0EF5FFA4F80818032C1F352
:101130009F5F931758F330E02F5F3A4FC90108952E
:10114000DF93CF9300D0CDB7DEB70E947808BE0101
:101150006F5F7F4F40E150E00E948B2F0F900F9008
:10116000CF91DF910895DF93CF9300D0CDB7DEB755
:101170000E947808BE016F5F7F4F4AE050E00E94F6
:101180008B2F0F900F90CF91DF9108950F931F93A6
:101190009C018B018091FE0490E0880F991F880FBD
:1011A000991F80549E4FB9010E941C318091FE040A
:1011B000E82FF0E0EE0FFF1FE051FE4F1183008398
:1011C0008F5F8093FE041F910F9108950F931F93DB
:1011D000882319F0813011F50BC080910105882317
:1011E000E9F081E295E061E075E00E941C3116C0F3
:1011F00001E015E0C80161E275E00E941C31F801D0
:1012000001900020E9F78F01015010400150154076
:101210000093FB04009300050E9402081F910F91A8
:101220000895FF920F931F93CF93DF9380E00E9466
:10123000E60800E001C00F5FE02FF0E0EF5FFA4F3B
:10124000E081E03211F0EE23B1F7002311F1F090CC
:10125000FE04C0ECD1E010E018C0CE0161E075E002
:10126000402F50E00E9423312496009769F4E12F2B
:10127000F0E0EE0FFF1FE051FE4F808191819093CF
:10128000FD048093FC0407C01F5F1F1530F30E940C
:1012900028080E94DE07DF91CF911F910F91FF90E8
:1012A00008951F93182F8091FF04823009F044C0E5
:1012B000123461F0133418F41134D9F505C0133425
:1012C00049F01434B1F524C081E001C082E00E94ED
:1012D000E6082FC0909100058091FB04E091080280
:1012E000F0910902981710F59F5F9093000581E037
:1012F0006BE10995E0910802F091090281E06BE54C
:101300000995E0910802F091090281E063E410C0C0
:1013100080910005E0910802F0910902882331F0E4
:1013200081508093000581E068E002C081E067E0C1
:1013300009951092FF04E3C0813021F41B3511F4AC
:1013400082E0DBC01092FF04812F80528F3508F0BD
:1013500046C020910005E091FB042E17B9F4E091FE
:101360000802F091090281E0612F09958091000542
:10137000E82FF0E0EF5FFA4F10838F5F8093000556
:101380008091FB048F5F8093FB04B9C09E2F9F5F09
:101390009093FB0408C0E92FF0E0EF5FFA4F8291D1
:1013A0003196808391502917B0F3E22FF0E0EF5F80
:1013B000FA4F10832F5F209300050E9402081091BE
:1013C000000508C0E0910802F091090281E068E0A0
:1013D00009951F5F8091FB041817A0F390C01D3082
:1013E00021F5E0910802F091090281E06DE0099594
:1013F000E0910802F091090281E06AE0099580918C
:10140000FB04E82FF0E0EF5FFA4F10828F5F8093CC
:10141000FB04809100058F5F809300050E941109F5
:101420001092FB04109200056AC0183009F060C0E9
:10143000E0910005EE2309F453C08091FB04E81706
:1014400001F5E0910802F091090281E068E0099558
:10145000E0910802F091090281E060E20995E091D3
:101460000802F091090281E068E009958091FB048F
:1014700081508093FB04809100058150809300058A
:101480003EC0282F21502093FB049E2F9150909313
:10149000000507C0E92FF0E0EF5FFA4F81818083FC
:1014A0009F5F9217B8F30E940208E0910802F09142
:1014B000090281E060E209951091000508C0E09101
:1014C0000802F091090281E068E009951F5F8091B0
:1014D000FB0490E0212F30E08217930784F70FC0C0
:1014E000E0910802F091090281E067E0099507C0E8
:1014F0001F3729F01B3119F481E08093FF041F91FD
:10150000089510920B0210920A0210920D0210928E
:101510000C0210920F0210920E020895882341F4DB
:10152000809169008C7F80936900809169000BC075
:10153000813069F480916900837F80936900809194
:101540006900660F660F862B8093690008958230CC
:1015500061F4809169008F7C8093690080916900BB
:101560006295607F862B809369000895833040F4F4
:10157000E82FF0E0EE0FFF1FE65FFD4F7183608301
:101580000895833040F4E82FF0E0EE0FFF1FE65F90
:10159000FD4F1182108208951F920F920FB60F9285
:1015A00011242F933F934F935F936F937F938F9368
:1015B0009F93AF93BF93EF93FF9380910A02909113
:1015C0000B02892B29F0E0910A02F0910B02099598
:1015D000FF91EF91BF91AF919F918F917F916F910B
:1015E0005F914F913F912F910F900FBE0F901F90E1
:1015F00018951F920F920FB60F9211242F933F93BD
:101600004F935F936F937F938F939F93AF93BF930A
:10161000EF93FF9380910C0290910D02892B29F09A
:10162000E0910C02F0910D020995FF91EF91BF91AD
:10163000AF919F918F917F916F915F914F913F916A
:101640002F910F900FBE0F901F9018951F920F9221
:101650000FB60F9211242F933F934F935F936F9385
:101660007F938F939F93AF93BF93EF93FF9380915B
:101670000E0290910F02892B29F0E0910E02F09159
:101680000F020995FF91EF91BF91AF919F918F91BB
:101690007F916F915F914F913F912F910F900FBE6E
:1016A0000F901F901895BC018091B9008E7F809398
:1016B000B9008091B9008D7F8093B90086E69EE0E5
:1016C0000E94D42D603130F0862F90E040979595A0
:1016D0008795682F6093B8000895409A419A1092B8
:1016E000B7021092B6021092B9021092B80284E6C4
:1016F00090E00E94530BECEBF0E0808184608083EB
:101700001092100280818068808380818160808354
:101710008081806480837894089590E0611191E0E5
:101720008E7F982B9093BA0008959093B702809380
:10173000B60208959093B9028093B8020895ECEB35
:10174000F0E080818F70806A80830895ECEBF0E098
:1017500080818F70806D808308958091BC0087FFA9
:10176000FCCF08958093BB00ECEBF0E080818F709C
:10177000806880830895882329F08091BC008F7051
:10178000806C04C08091BC008F7080688093BC0026
:1017900008958091BB0008958091B9000895982F15
:1017A000809110028823E1F782E0809310029E7FEF
:1017B00090931102A2E1B2E0FA0102C081918D93EF
:1017C0008E2F841B8617D0F31092620260936302FF
:1017D0008091BC008F70806A8093BC000895982F20
:1017E000809110028823E1F783E0809310029160DA
:1017F000909311021092B4026093B5028091BC00E4
:101800008F70806A8093BC00809110028823E1F77A
:10181000A4E6B2E0FA0102C08D9181938E2F841B61
:101820008617D0F30895982FFA018091BC008E7F1F
:101830008093BC008091BC008F70806A8093BC0054
:101840008091BC0087FFFCCF9E7F9093BB0080916E
:10185000BC008F7080688093BC008091BC0087FFC3
:10186000FCCF8091B900883189F091E012C080816D
:101870008093BB008091BC008F7080688093BC0017
:101880008091BC0087FFFCCF31966150662379F7C9
:1018900090E08091BC008F70806D8093BC0080913F
:1018A000BC0084FFFCCF8091BC0081608093BC00B1
:1018B000892F08951F93CF93DF93982F162FEA0156
:1018C0008091BC008E7F8093BC008091BC008F70A3
:1018D000806A8093BC008091BC0087FFFCCF916040
:1018E0009093BB008091BC008F7080688093BC0097
:1018F0008091BC0087FFFCCF8091B900803469F0F3
:1019000091E018C08FEF0E94BB0B8091BC0087FF55
:10191000FCCF8091BB0089931150123098F780E082
:101920000E94BB0B8091BC0087FFFCCF8091BB0065
:10193000888390E08091BC008F70806D8093BC00A4
:101940008091BC0081608093BC00892FDF91CF9192
:101950001F9108951F920F920FB60F9211242F938B
:101960003F934F935F936F937F938F939F93AF9327
:10197000BF93EF93FF938091B900887F803609F47D
:101980009FC0813670F5883209F45FC0893298F4BF
:10199000803109F457C0813138F4882309F4EEC04E
:1019A000883009F0F3C04EC0883109F44EC080324F
:1019B00009F0ECC0E3C0803409F477C0813438F416
:1019C000803309F4DBC0883309F0E0C05DC08035A6
:1019D00009F45FC0883509F44AC0883409F0D6C0DC
:1019E000CDC0883909F482C08939B0F4883709F448
:1019F00067C0893738F4883609F462C0803709F047
:101A0000C5C05EC0883809F471C0803909F45EC071
:101A1000803809F0BBC05AC0803B09F47DC0813BCF
:101A200038F4803A09F466C0883A09F0AFC074C04F
:101A3000803C09F49EC0883C09F49BC0883B09F0B7
:101A4000A5C07BC0809111020FC09091620280916D
:101A50006302981708F092C0E92FF0E0EE5EFD4FA8
:101A600080819F5F909362028093BB007BC08091D6
:101A7000B4029091BB00E82FF0E0EC59FD4F908349
:101A80008F5F8093B4027AC08091BC008F708068B1
:101A900079C08091B4029091BB00E82FF0E0EC593E
:101AA000FD4F90838F5F8093B4022091B40230E0A9
:101AB0008091B50290E0019728173907BCF414C053
:101AC00085E0809310021092B40247C08091B40266
:101AD0009091BB00E82FF0E0EC59FD4F90838F5FB1
:101AE0008093B402803510F48FEF01C080E00E9433
:101AF000BB0B4CC08091BC008F70806C8093BC008D
:101B0000E091B602F091B7023097F1F18091B40202
:101B100064E672E0099538C084E080931002E09199
:101B2000B802F091B902309731F080E562E172E0DD
:101B30000995809363021092620290916202E92FEC
:101B4000F0E0EE5EFD4F80818093BB009F5F90933D
:101B5000620280916302981728F48091BC008F7014
:101B6000806C04C08091BC008F7080688093BC0042
:101B70000DC08091BC008F70806C04C08091BC004F
:101B80008F70806D8093BC0010921002FF91EF91D6
:101B9000BF91AF919F918F917F916F915F914F9185
:101BA0003F912F910F900FBE0F901F90189580912D
:101BB00010020895089580E00895EF92FF920F9328
:101BC0001F93DF93CF9300D00F92CDB7DEB7E52EF2
:101BD000F62E072F1127E9824A832B8363E0AE019B
:101BE0004F5F5F4F0E94130C0F900F900F90CF919B
:101BF000DF911F910F91FF90EF900895FF920F9347
:101C00001F93DF93CF9300D0CDB7DEB7F82EBB275D
:101C1000A72F962F852F89834A838F2D62E08E010F
:101C20000F5F1F4FA8010E94130C8F2D61E0A801C8
:101C30000E945A0C89810F900F90CF91DF911F91D4
:101C40000F91FF9008959093C7028093C60210925F
:101C5000B60092E09093B00084E08093B1001092BF
:101C6000B20088E38093B3009093700008950895C4
:101C700085B5887F826085BD16BCEEE6F0E0808188
:101C800081608083109241051092420510924305B5
:101C9000109244050895E1E8F0E08081887F836038
:101CA00080831092850010928400EFE6F0E080813E
:101CB000816080830895E1EBF0E08081887F84601B
:101CC00080831092B200E0E7F0E080818160808341
:101CD0001092490510924A0510924B0510924C053E
:101CE000089580E090E0FC01EE0FFF1FE654FD4FE9
:101CF00011821082019688309105A9F70E94380E52
:101D00000E944B0E0E945B0E7894089595B5987FC3
:101D1000982B95BD0895E1E8F0E09081987F982B8D
:101D20009083089585B580934D0585B5887F85BDE1
:101D3000089580914D0585BD0895E1E8F0E080812A
:101D400080934E058081887F8083089580914E0521
:101D5000809381000895E1EBF0E09081987F982BCB
:101D60009083089585B5E82FF0E0E770F070EE0FEE
:101D7000FF1FE356FF4F25913491C90108958091CB
:101D80008100E82FF0E0E770F070EE0FFF1FE356E0
:101D9000FF4F25913491C90108958091B100E82F3A
:101DA000F0E0E770F070EE0FFF1FE755FF4F259151
:101DB0003491C9010895883040F4E82FF0E0EE0F27
:101DC000FF1FE654FD4F718360830895883040F40F
:101DD000E82FF0E0EE0FFF1FE654FD4F1182108256
:101DE0000895AF92BF92CF92DF92EF92FF920F933E
:101DF0001F93CF93DF93EC0116B510924505109217
:101E00004605109247051092480585B5E82FF0E089
:101E1000E770F070EE0FFF1FE356FF4F25913491EE
:101E200040E050E060E070E488E390E00E94E82D3C
:101E3000B901CA01693B2DE8720726E0820720E05C
:101E40009207A0F437E2C131D30780F49E0140E04D
:101E500050E00E94A92D28EE33E040E050E00E94BF
:101E6000E82DC901DA01BC01CD010DC028EE33E037
:101E700040E050E00E94E82DCA01B9019E0140E017
:101E800050E00E94A92DA72EB82EC92EDD249B015B
:101E9000AC01210F311D411D511D79018A0117C06F
:101EA0008091450590914605A0914705B091480560
:101EB0008A159B05AC05BD0550F483B7817F83BFB0
:101EC00083B7816083BF889583B78E7F83BF20915E
:101ED000450530914605409147055091480586B526
:101EE00090E0A0E0B0E0542F432F322F2227822B26
:101EF000932BA42BB52B8E159F05A007B10780F25D
:101F0000DF91CF911F910F91FF90EF90DF90CF90D5
:101F1000BF90AF9008951092410510924205109223
:101F200043051092440508952091410530914205E2
:101F30004091430550914405B901CA01089510929A
:101F4000490510924A0510924B0510924C050895D0
:101F50002091490530914A0540914B0550914C051F
:101F6000B901CA010895893049F4809180008260E6
:101F700080938000809180008E7F0EC08A3021F493
:101F800080918000826003C0809180008D7F80936B
:101F90008000809180008160809380001092890091
:101FA0001092880010928B0010928A000895E0E849
:101FB000F0E020812E7F2083208122602083E1E8D1
:101FC000F0E020812860208320812061208390938D
:101FD00087008093860010928900109288001092EA
:101FE0008B0010928A000895E0E8F0E080818D7FF8
:101FF000808380818E7F808380818F7780838081C2
:102000008F7B808380818F7D808380818F7E8083A2
:102010000895E0E8F0E080818068808380818F7B94
:1020200080830895E0E8F0E0808180628083808191
:102030008F7E80830895E0E8F0E080818F77808351
:1020400080818F7B80830895E0E8F0E080818F7D40
:10205000808380818F7E8083089590938900809310
:102060008800089590938B0080938A0008951F92B2
:102070000F920FB60F9211242F933F934F935F93BC
:102080006F937F938F939F93AF93BF93EF93FF9340
:102090008091410590914205A0914305B09144057E
:1020A0000196A11DB11D8093410590934205A09317
:1020B0004305B09344058091450590914605A09154
:1020C0004705B09148050196A11DB11D80934505B6
:1020D00090934605A0934705B09348058091BA02B6
:1020E0009091BB02892B29F0E091BA02F091BB02DA
:1020F0000995FF91EF91BF91AF919F918F917F9142
:102100006F915F914F913F912F910F900FBE0F9064
:102110001F9018951F920F920FB60F9211242F93B4
:102120003F934F935F936F937F938F939F93AF935F
:10213000BF93EF93FF938091BC029091BD02892BD6
:1021400029F0E091BC02F091BD020995FF91EF9159
:10215000BF91AF919F918F917F916F915F914F91BF
:102160003F912F910F900FBE0F901F9018951F92C7
:102170000F920FB60F9211242F933F934F935F93BB
:102180006F937F938F939F93AF93BF93EF93FF933F
:102190008091490590914A05A0914B05B0914C055D
:1021A0000196A11DB11D8093490590934A05A09306
:1021B0004B05B0934C058091C4029091C502892BC8
:1021C00029F0E091C402F091C5020995FF91EF91C9
:1021D000BF91AF919F918F917F916F915F914F913F
:1021E0003F912F910F900FBE0F901F9018951F9247
:1021F0000F920FB60F9211242F933F934F935F933B
:102200006F937F938F939F93AF93BF93EF93FF93BE
:102210008091C8029091C902892B29F0E091C802EF
:10222000F091C9020995FF91EF91BF91AF919F91F4
:102230008F917F916F915F914F913F912F910F906F
:102240000FBE0F901F9018951F920F920FB60F920E
:1022500011242F933F934F935F936F937F938F93AB
:102260009F93AF93BF93EF93FF938091BE029091A2
:10227000BF02892B29F0E091BE02F091BF020995BF
:10228000FF91EF91BF91AF919F918F917F916F914E
:102290005F914F913F912F910F900FBE0F901F9024
:1022A00018951F920F920FB60F9211242F933F9300
:1022B0004F935F936F937F938F939F93AF93BF934E
:1022C000EF93FF938091C0029091C102892B29F076
:1022D000E091C002F091C1020995FF91EF91BF9189
:1022E000AF919F918F917F916F915F914F913F91AE
:1022F0002F910F900FBE0F901F9018951F920F9265
:102300000FB60F9211242F933F934F935F936F93C8
:102310007F938F939F93AF93BF93EF93FF9380919E
:10232000C2029091C302892B29F0E091C202F09180
:10233000C3020995FF91EF91BF91AF919F918F914A
:102340007F916F915F914F913F912F910F900FBEB1
:102350000F901F9018951F920F920FB60F92112495
:102360002F933F934F935F936F937F938F939F939D
:10237000AF93BF93EF93FF938091C6029091C702F2
:10238000892B29F0E091C602F091C7020995FF91CF
:10239000EF91BF91AF919F918F917F916F915F91DD
:1023A0004F913F912F910F900FBE0F901F90189556
:1023B000823040F4E82FF0E0EE0FFF1FE955FB4FAD
:1023C0007183608308951F93182F9A01AB0194E0E5
:1023D000220F331F441F551F9A95D1F760E070E418
:1023E00088E390E00E94E82D21503040112329F02D
:1023F0002093CC003093CD0004C02093C4003093D0
:10240000C5001F910895282F30E043E0220F331FAD
:102410004A95E1F72F5A3A4FC9010895282F30E025
:1024200053E0220F331F5A95E1F72D593A4FC90156
:102430000895982FE82FF0E0DF01A15BBA4F8C914F
:102440008823E9F3992339F08091C80085FFFCCFF8
:102450006093CE0006C08091C00085FFFCCF6093E2
:10246000C600E15BFA4F10820895682F80E00E9459
:1024700019120895682F81E00E941912089520E032
:10248000E82FF0E063E0EE0FFF1F6A95E1F7EB5AEB
:10249000FA4F80819181892B09F421E0822F0895E0
:1024A0001F93CF93DF93182FEB0104C02196812F48
:1024B0000E94191268816623C9F7DF91CF911F919D
:1024C0000895CF93DF93882319F06091CE0002C066
:1024D0006091C600282F30E0E901CC0FDD1FFE011E
:1024E000E955FB4F80819181892B31F00190F0817A
:1024F000E02D862F099514C073E0220F331F7A95C3
:10250000E1F7C9018F5A9A4F0E949707882341F437
:10251000FE01ED58FA4F808191810196918380836D
:10252000DF91CF9108951F920F920FB60F92112451
:102530002F933F934F935F936F937F938F939F93CB
:10254000AF93BF93EF93FF9381E00E946112FF91DD
:10255000EF91BF91AF919F918F917F916F915F911B
:102560004F913F912F910F900FBE0F901F90189594
:102570001F920F920FB60F9211242F933F934F93F8
:102580005F936F937F938F939F93AF93BF93EF93DB
:10259000FF9380E00E946112FF91EF91BF91AF9194
:1025A0009F918F917F916F915F914F913F912F916B
:1025B0000F900FBE0F901F90189590E0F3E0880FDA
:1025C000991FFA95E1F78D599A4F0E949707089540
:1025D000682F8BE695E00E9497070895682F83E6A1
:1025E00095E00E9497070895CF93DF93282FA82F97
:1025F000B0E0ED01CF59DA4F88818823E9F0FD0181
:1026000083E0EE0FFF1F8A95E1F7E959FA4F8081C9
:102610009181892B81F0222339F08BE695E00E948D
:102620002E078093CE000CC083E695E00E942E0713
:102630008093C60005C01882A15BBA4F8FEF8C93C0
:10264000DF91CF9108951F920F920FB60F92112430
:102650002F933F934F935F936F937F938F939F93AA
:10266000AF93BF93EF93FF9381E00E94F412FF9129
:10267000EF91BF91AF919F918F917F916F915F91FA
:102680004F913F912F910F900FBE0F901F90189573
:102690001F920F920FB60F9211242F933F934F93D7
:1026A0005F936F937F938F939F93AF93BF93EF93BA
:1026B000FF9380E00E94F412FF91EF91BF91AF91E0
:1026C0009F918F917F916F915F914F913F912F914A
:1026D0000F900FBE0F901F9018959F92AF92BF92D0
:1026E000CF92DF92EF92FF920F931F93CF93DF93DE
:1026F000982E5B016A01082F10E0F801E15BFA4FA8
:1027000080818823E9F3F80153E0EE0FFF1F5A950B
:10271000E1F7E959FA4F208131812C0D3D1DF80177
:1027200043E0EE0FFF1F4A95E1F7EB59FA4F808126
:1027300091812817390740F5C114D10429F1780196
:1027400093E0EE0CFF1C9A95E1F783E695E0E80E26
:10275000F91EC0E0D0E007C0F50161915F01C7013B
:102760000E9497072196CC15DD05B0F30F591A4F3B
:102770008FEFF8018083C7010E942E07682F892DF3
:102780000E9419128FEF01C080E0DF91CF911F915D
:102790000F91FF90EF90DF90CF90BF90AF909F9000
:1027A00008951F93182F90E0FC01EF59FA4F2FEF77
:1027B000208363E0880F991F6A95E1F78D599A4F3E
:1027C0000E942E07682F812F0E9419121F910895D1
:1027D000CF93DF93EB01282F30E0F901B3E0EE0F48
:1027E000FF1FBA95E1F7ED5AFA4F80819181892B4D
:1027F000C9F0F901A3E0EE0FFF1FAA95E1F7EB5A2C
:10280000FA4F80819181892B69F073E0220F331F89
:102810007A95E1F7C9018F5A9A4F0E942E07888353
:102820008FEF01C080E0DF91CF910895DF93CF93C8
:102830000F92CDB7DEB781E0BE016F5F7F4F0E9480
:10284000E813882319F42FEF3FEF03C08981282F65
:1028500030E0C9010F90CF91DF910895DF93CF93BE
:102860000F92CDB7DEB780E0BE016F5F7F4F0E9451
:10287000E813882319F42FEF3FEF03C08981282F35
:1028800030E0C9010F90CF91DF91089590E023E0EF
:10289000880F991F2A95E1F78F5A9A4F0E94CA070D
:1028A000089589E595E061E174E042E350E00E941B
:1028B00021078BE695E063E474E044E650E00E9473
:1028C000210708950E9451141092AA041092A9049D
:1028D00088ED8093C90081E040E05BE460E070E057
:1028E0000E94E3118FEF80935005109262051092C1
:1028F0007605109275057894089581E595E06AEC67
:1029000072E04FEF50E00E94210783E695E069EC0A
:1029100073E048E450E00E94210708950E947D146E
:102920001092A8041092A70488ED8093C10080E063
:1029300040E05BE460E070E00E94E3118FEF809381
:102940004F051092610510927405109273057894EA
:1029500008950E948E140E94621408950F931F938D
:10296000DF93CF93CDB7DEB760970FB6F894DEBF95
:102970000FBECDBF2DB73EB7285030400FB6F894EC
:102980003EBF0FBE2DBFEDB7FEB731968E010F5F74
:102990001F4FADB7BEB712961C930E93119729EB3C
:1029A00030E03383228384831582668317820E94FA
:1029B00077312DB73EB7285F3F4F0FB6F8943EBF33
:1029C0000FBE2DBFE091AB04F091AC0481E0B801E3
:1029D000099560960FB6F894DEBF0FBECDBFCF91BC
:1029E000DF911F910F910895DF93CF93CDB7DEB79D
:1029F00060970FB6F894DEBF0FBECDBF9E012F5F6C
:102A00003F4F882349F000D000D0EDB7FEB73283A6
:102A1000218389EC90E008C000D000D0EDB7FEB76C
:102A20003283218382EC90E0948383830E94773108
:102A30000F900F900F900F90E091AB04F091AC04C9
:102A400081E0BE016F5F7F4F099560960FB6F894E5
:102A5000DEBF0FBECDBFCF91DF9108950F931F93BF
:102A6000DF93CF93CDB7DEB760970FB6F894DEBF94
:102A70000FBECDBF00D000D000D0EDB7FEB731966D
:102A80008E010F5F1F4FADB7BEB712961C930E930A
:102A9000119720ED30E033832283848315820E94D6
:102AA00077318DB79EB706960FB6F8949EBF0FBECE
:102AB0008DBFE091AB04F091AC0481E0B8010995C1
:102AC00060960FB6F894DEBF0FBECDBFCF91DF91F9
:102AD0001F910F9108950F931F93DF93CF93CDB75D
:102AE000DEB760970FB6F894DEBF0FBECDBF00D043
:102AF00000D08E010F5F1F4FEDB7FEB71283018329
:102B000086ED90E0948383830E9477310F900F903D
:102B10000F900F90E091AB04F091AC0481E0B8010C
:102B2000099560960FB6F894DEBF0FBECDBFCF916A
:102B3000DF911F910F9108950F931F93DF93CF9310
:102B4000CDB7DEB760970FB6F894DEBF0FBECDBF2E
:102B50009093AC048093AB0400D000D08E010F5F43
:102B60001F4FEDB7FEB7128301838BED90E0948386
:102B700083830E9477310F900F900F900F90E09118
:102B8000AB04F091AC0481E0B801099560960FB6F2
:102B9000F894DEBF0FBECDBFCF91DF911F910F9193
:102BA000089581E00E94531AA0E0B0E0BC01CD017D
:102BB00020E03AE040E050E00E94A92D9B01AC01EA
:102BC0009AE056954795379527959A95D1F7220F14
:102BD000331F441F551FB901CA010895EF92FF9298
:102BE0000F931F93DF93CF93CDB7DEB7A0970FB6A8
:102BF000F894DEBF0FBECDBF80E00E94531AA0E064
:102C0000B0E0BC01CD0120E03AE040E050E00E949D
:102C1000A92D2AE096958795779567952A95D1F7FE
:102C20002CED33E040E050E00E94A92D2DB73EB7D7
:102C3000285030400FB6F8943EBF0FBE2DBF0DB7E1
:102C40001EB70F5F1F4F7E010894E11CF11CEDB70A
:102C5000FEB7F282E1822EED30E0F8013383228369
:102C600022EC3BE040E050E00E94E82DF801248394
:102C70003583468357830E9477312DB73EB7285F4F
:102C80003F4F0FB6F8943EBF0FBE2DBF892B19F0F2
:102C9000C7010E94D128A0960FB6F894DEBF0FBEE0
:102CA000CDBFCF91DF911F910F91FF90EF900895CD
:102CB000AF92BF92DF92EF92FF920F931F93DF9339
:102CC000CF93CDB7DEB7A0970FB6F894DEBF0FBE97
:102CD000CDBF039B02C0DD2406C083E691E00E94C5
:102CE0005229DD24D394029904C081E591E00E9429
:102CF00052290E94D1157B018C012DB73EB7285077
:102D000030400FB6F8943EBF0FBE2DBFEDB7FEB7F3
:102D100031965E010894A11CB11CADB7BEB71296E6
:102D2000BC92AE9211978AE391E093838283E4820E
:102D3000F582068317830E9477312DB73EB7285F4F
:102D40003F4F0FB6F8943EBF0FBE2DBF892B19F031
:102D5000C5010E94D12834EEE3163CE0F30630E0D2
:102D6000030730E0130788F481E191E00E945229C3
:102D70008CEF90E00E9452295E9810927805109294
:102D8000790510927A0532E0D32E8D2DA0960FB6DC
:102D9000F894DEBF0FBECDBFCF91DF911F910F9191
:102DA000FF90EF90DF90BF90AF9008950F931F9327
:102DB0008C01DC0115964C91159714962C91149763
:102DC0002150842F90E083709070FC01EE0FFF1F64
:102DD000E80FF91FEE0FFF1FEE0FFF1FE20FF11DAF
:102DE000EE0FFF1FE35DFE4F13962C912150608183
:102DF0007181620F711D4695469550E025EB35E0D7
:102E0000F9014E9F90014F9F300D5E9F300D1124B0
:102E1000620F731F80E090E028E130E040E050E076
:102E20000E94A92DD80112962C91620F711D811D4F
:102E3000911D2CE330E040E050E00E94A92DF80104
:102E40002181620F711D811D911D2CE330E040E056
:102E500050E00E94A92D9B01AC01D8018C91280F54
:102E6000311D411D511DB901CA011F910F910895D6
:102E70006F927F928F929F92AF92BF92CF92DF928A
:102E8000EF92FF920F931F93CF93DF935C017A0130
:102E90008B01CB01BA012CE330E040E050E00E940E
:102EA000E82DF5016083C801B7012CE330E040E074
:102EB00050E00E94E82D122F032FF42EE52E622FF2
:102EC000732F842F952F2CE330E040E050E00E94D8
:102ED000E82DF5016183612F702F8F2D9E2D2CE33E
:102EE00030E040E050E00E94E82D122F032FF42E36
:102EF000E52E622F732F842F952F28E130E040E0DC
:102F000050E00E94E82DF5016283612F702F8F2D14
:102F10009E2D28E130E040E050E00E94E82D922E06
:102F2000832E742E652E622F732F842F952F25EB01
:102F300035E040E050E00E94E82D7B018C0180915B
:102F4000750190917601A0E0B0E0E816F9060A0755
:102F50001B0718F0C3E0D0E01EC080915D01909186
:102F60005E01A0E0B0E0E816F9060A071B0718F0BA
:102F7000C2E0D0E010C08091450190914601A0E0F0
:102F8000B0E0E816F9060A071B0718F4C0E0D0E025
:102F900002C0C1E0D0E0FE01EE0FFF1FEC0FFD1FED
:102FA000A3E0EE0FFF1FAA95E1F7ED5BFE4F7BE07C
:102FB000C72ED12C80819181A0E0B0E0E816F906FF
:102FC0000A071B0738F40894C108D1083297C114C6
:102FD000D10481F7692D782D872D962D25EB35E0CD
:102FE00040E050E00E94E82D220F220F2C0FF50147
:102FF00025838C2D8F5F84839E2D9F5FFE01EE0FB6
:10300000FF1FEC0FFD1FEE0FFF1FEE0FFF1FEC0D5C
:10301000FD1DEE0FFF1FE35DFE4F8081981BF50144
:103020009383DF91CF911F910F91FF90EF90DF90ED
:10303000CF90BF90AF909F908F907F906F900895AA
:10304000DF93CF93CDB7DEB7C254D0400FB6F8941C
:10305000DEBF0FBECDBF22E08030920710F081E0CE
:1030600022C0A0E0B0E026E0880F991FAA1FBB1F76
:103070002A95D1F799838A83DB01FE0133969E015D
:103080002D5B3F4F8D918193E217F307D9F780EACB
:1030900062E4AE014F5F5F4F0E94130C80E092E14B
:1030A0000197F1F780E0CE5BDF4F0FB6F894DEBFFB
:1030B0000FBECDBFCF91DF9108950F931F93CF9394
:1030C000DF938C01CDEAD4E088819981B8010E9418
:1030D0002018882311F081E006C0229684E0CD3EBE
:1030E000D80791F780E0DF91CF911F910F9108955C
:1030F0000F931F93DF93CF9300D00F92CDB7DEB71E
:103100008B0122E08030920710F081E018C0A0E02F
:10311000B0E036E0880F991FAA1FBB1F3A95D1F780
:1031200099838A8380EA62E0AE014F5F5F4F0E941D
:10313000CF0B80EA60E4A8010E94EF0B80E00F90C3
:103140000F900F90CF91DF911F910F910895EF9203
:10315000FF920F931F93DF93CF93CDB7DEB7C45485
:10316000D0400FB6F894DEBF0FBECDBF7C011A82EF
:1031700019828E010D5F1F4F2FC0EE0FFF1FE35509
:10318000FB4F80819181B8010E947818882359F5FE
:1031900020E030E0F801E20FF31FD701A20FB31FC8
:1031A00090818C91981771F0809177058823D9F0E0
:1031B000CE01019661E00E943829C80160E40E94B6
:1031C000382911C02F5F3F4F2034310519F789810D
:1031D0009A8101969A838983E981FA81E032F10527
:1031E00060F280E001C081E0CC5BDF4F0FB6F89465
:1031F000DEBF0FBECDBFCF91DF911F910F91FF902A
:10320000EF9008956F927F928F929F92AF92BF92AC
:10321000CF92DF92EF92FF920F931F93DF93CF93A2
:10322000CDB7DEB7C054D0400FB6F894DEBF0FBEA6
:10323000CDBF0DEA14E00E947D2F29E030E042E08E
:1032400050E00E940A2E3F73A6E036952795AA9576
:10325000E1F7F801219331938F01F4E00D3E1F0750
:1032600051F7882444C0650199249394FEEF6F2E92
:10327000FFEF7F2E6A0C7B1C25C0F301208131817A
:10328000F6018081918128173907B9F40E947D2FBA
:103290000E0D1F1D000F111F03551B4F29E030E0BD
:1032A00042E050E00E940A2E3F7366E03695279573
:1032B0006A95E1F7F8013183208382E090E0C80E3F
:1032C000D91E9394092D10E09FE19916B1F6089448
:1032D000E11CF11CE2E0F0E0AE0EBF1EFFE1EF16D4
:1032E000F10409F0C0CF839488E0881639F05FEAD2
:1032F000A52E54E0B52EEE24FF24B5CFCE010196C5
:103300006AEA70E040E450E00E9415318091770550
:10331000882321F081EC91E00E9452298E010F5FF9
:103320001F4FC8010E945D18882349F482EB91E089
:103330000E945229C8010E94A7188823E9F5CE01EE
:10334000019665E570E040E450E00E9415318091FF
:103350007705882321F081E991E00E9452298E01AE
:103360000F5F1F4FC8010E945D18882329F582E86E
:1033700091E00E945229C8010E94A7188823E1F415
:1033800080917705882321F083E791E00E945229FC
:103390008E010F5F1F4FC8016FEF70E040E450E0F7
:1033A0000E941531C8010E945D1890E0882309F43D
:1033B00091E081E0982701C091E0892FC05CDF4F48
:1033C0000FB6F894DEBF0FBECDBFCF91DF911F9136
:1033D0000F91FF90EF90DF90CF90BF90AF909F90B4
:1033E0008F907F906F9008950E946D0B089581B12A
:1033F000806E81B982B18F7182B908956091ED04B8
:103400007091EE046F5F7F4F7093EE046093ED0454
:1034100045E050E0A1E0B0E0FA01ED58FA4F8081BC
:103420008823A1F080818F3F31F0808190E0862356
:103430009723892B59F022B1CD01042E02C0880FA9
:10344000991F0A94E2F7282B22B90BC022B1CD01B3
:10345000042E02C0880F991F0A94E2F780958223F8
:1034600082B94F5F5F4F48305105B1F68091EF044C
:103470009091F004A091F104B091F2040196A11D85
:10348000B11D8093EF049093F004A093F104B093E6
:10349000F20408956091EF047091F0048091F104BA
:1034A0009091F2040895CF92DF92EF92FF920F93E2
:1034B0001F93F82E0EE710E0F801E080D1B0C2B003
:1034C000208181E090E00F2C02C0880F991F0A94A0
:1034D000E2F7282B208321B18095282321B922B13E
:1034E000822382B983E00E94BA066CE271E080E038
:1034F00090E00E9431288F2D0E94DA06F801E082C8
:10350000D1B8C2B81F910F91FF90EF90DF90CF908C
:1035100008951F920F920FB60F9211248F938091EE
:1035200082058F5F809382058091820580FF04C0B1
:103530008FEF8093780502C0109278058F910F90DD
:103540000FBE0F901F9018958DEC93E00E945229AA
:10355000469A68EC70E080E090E00E94312846983E
:1035600081E090E00E94512886B180780895FF9212
:103570000F931F93F82E0E940312FC0106811781FE
:103580008F2D0E940312FC0120813181200F311FF9
:10359000C9011F910F91FF9008951F93182F862F37
:1035A00090E00E946228812F0E943F12882381F4BC
:1035B00068E670E080E090E00E943128812F0E9450
:1035C000031260E00E949707882339F081E005C06C
:1035D0000E945C28892B39F780E01F910895FF92A3
:1035E0000F931F93CF93DF93F82E8B016115710515
:1035F00071F0642F0E94CD1A882349F08F2D0E940C
:10360000B71AEC01B8010E943131009711F4C0E003
:10361000D0E0CE01DF91CF911F910F91FF900895DF
:10362000EF92FF920F931F93CF93DF93F82E162FF5
:10363000072FEA01E22E80917705882321F0862F5B
:10364000972F0E94D1288F2D0E944614E12FF02F32
:10365000DF010D900020E9F71197AE1BBF0B8F2DF6
:10366000612F702FAD010E946D13EE2019F4C0E0A0
:10367000D0E00FC08F2DBE014E2D0E94EF1AEC013D
:10368000009739F080917705882319F0CE010E94C8
:10369000D128CE01DF91CF911F910F91FF90EF9034
:1036A0000895AF92BF92CF92DF92EF92FF920F9365
:1036B0001F93DF93CF93CDB7DEB7C055D0400FB681
:1036C000F894DEBF0FBECDBFB82E8B017A01A22EBB
:1036D000CB010E94F2300197CF9710F581E1C82EFF
:1036E000D12CCC0EDD1EC601B8010E94EB30892B17
:1036F000B9F0C7010E94F23001970F9788F48E014C
:103700000F5F1F4FC801B7010E94EB30892B41F0BA
:103710008B2DB601A8012A2D0E94101B9C0102C00E
:1037200020E030E0C901C05BDF4F0FB6F894DEBF88
:103730000FBECDBFCF91DF911F910F91FF90EF9002
:10374000DF90CF90BF90AF9008952F923F924F920D
:103750005F927F928F929F92AF92BF92CF92DF92B1
:10376000EF92FF920F931F93DF93CF93CDB7DEB706
:10377000C255D0400FB6F894DEBF0FBECDBF4B018F
:10378000DB011C926DEE71E04AEE51E02CE30E94E9
:10379000511B009709F4B6C05C0100E010E07724EB
:1037A000A3E22A2E312C2C0E3D1EF3E04F2E512C7D
:1037B0004C0E5D1E9CC0883221F485010F5F1F4FA7
:1037C00093C0893209F090C09A2D901BD101F80165
:1037D00002C081918D938E2F801B8917D0F3F10148
:1037E000E90FF11D1082C10168EE71E00E94FB300B
:1037F0008C01009711F475012BC06C010894C11C59
:10380000D11CC60166EE71E00E94FB307C0100977E
:10381000F9F08C19B8019201E82FF0E03196A80177
:103820004E0F5F1F319705C0DB018C91D9018D933D
:103830009D016F5F7F4F64177507B1F7E40DF51DAC
:10384000108280917705882319F0C2010E94D12847
:10385000C701019664EE71E00E94FB308C01009775
:1038600009F442C0019662EE71E00E94FB300097BD
:10387000C9F1B7E0B715B0F1BC016F5F7F4FF62E0D
:10388000F01AD80190E0472D50E09A01E3E0220FB2
:10389000331FEA95E1F7240F351F280D391D06C0A7
:1038A000F901E90FF11D8D9181839F5F9F15C0F391
:1038B000FA0193E0EE0FFF1F9A95E1F7E40FF51F71
:1038C000E80DF91DEF0DF11D11827394FB0181814B
:1038D00089831A8280917705882321F0CE01019691
:1038E0000E94D12800E010E00894A11CB11CD50171
:1038F0008C91882309F05FCF772021F0F40170824A
:1039000081E001C080E0CE5ADF4F0FB6F894DEBFF1
:103910000FBECDBFCF91DF911F910F91FF90EF9020
:10392000DF90CF90BF90AF909F908F907F905F90EF
:103930004F903F902F900895EF92FF920F931F9317
:10394000CF93DF93E82EEB01F42E80917705882347
:1039500021F48EE692E00E94522900E010E020C09F
:103960008E2D63E672E040E652E022E00E94511B99
:10397000009791F06EE572E00E94FB30FC01009729
:1039800059F08181833321F41F5F133029F40AC079
:10399000813351F0853341F00F5FCE010E945128F1
:1039A0000F15F0F280E001C081E0DF91CF911F910F
:1039B0000F91FF90EF900895EF92FF920F931F9356
:1039C000CF93DF93E82EEB01F42E809177058823C7
:1039D00021F48EE892E00E94522910E000E027C016
:1039E00080917705882349F410FF03C081E06CE5DE
:1039F00002C081E06FE20E9419128E2D64E872E02D
:103A000041E852E022E00E94511BFC01009759F06E
:103A10008385833321F40F5F033029F40AC0813397
:103A200051F0853341F01F5FCE010E9451281F15D0
:103A3000B8F280E001C081E0DF91CF911F910F913A
:103A4000FF90EF9008954F925F926F927F928F92C6
:103A50009F92BF92CF92DF92EF92FF920F931F93AC
:103A6000DF93CF93CDB7DEB7E0970FB6F894DEBF04
:103A70000FBECDBFB82E4B011DE8C12E11E0D12ED7
:103A80003E010894611C711CBCEC4B2EB2E05B2E15
:103A9000D601ED90FD900D911C918B2DB801A701E1
:103AA0000E94E31164E670E080E090E00E9431281B
:103AB000EDB7FEB738970FB6F894FEBF0FBEEDBF57
:103AC0003196ADB7BEB712967C926E921197538223
:103AD0004282E482F582068317830E947731EDB734
:103AE000FEB738960FB6F894FEBF0FBEEDBF892B18
:103AF000E9F0C3010E94D1288B2D68EC72E045ECFF
:103B000052E022E00E94511B892B81F0D401ED92FA
:103B1000FD920D931C9313978B2D6FEB72E04CEB82
:103B200052E022E00E94511B81E00BC0E4E0F0E093
:103B3000CE0EDF1EFDEACF16F1E0DF0609F0A8CFBA
:103B400080E0E0960FB6F894DEBF0FBECDBFCF91F8
:103B5000DF911F910F91FF90EF90DF90CF90BF907A
:103B60009F908F907F906F905F904F9008958F926D
:103B70009F92BF92CF92DF92EF92FF920F931F938B
:103B8000DF93CF93CDB7DEB7C956D0400FB6F894C8
:103B9000DEBF0FBECDBFF82E662309F482C0809130
:103BA0007705882319F481E08093810510E091E284
:103BB000C92ED12CCC0EDD1E07C085E090E00E94FE
:103BC00051281F5F143131F08F2DB6010E94A51BC3
:103BD000882399F3B9A0BB2009F45CC08E010E5D67
:103BE0001F4FEE246E010894C11CD11C8EE4882E58
:103BF00082E0982E4CC000D000D000D0EDB7FEB7C8
:103C00003196ADB7BEB71296DC92CE9211979382E1
:103C10008282158304830E9477312DB73EB72A5FD5
:103C20003F4F0FB6F8943EBF0FBE2DBF892B61F1F9
:103C30008F2DB60140E051E025E00E94101B892B3A
:103C400019F165E070E080E090E00E9431288091F9
:103C50008105882311F0109281058F2D6AE070E0B4
:103C60004AE00E94DC1C882359F08F2D6AE070E046
:103C700045E00E949C1C882361F58AE392E002C023
:103C800083E292E00E945229E394075F1F4FEB14F6
:103C900008F4B1CF809181058823E1F0109281056D
:103CA00013C06AE070E04AE00E94DC1C882371F0D7
:103CB0008F2D6AE070E045E00E949C1C882349F447
:103CC0008FE092E00E94522980E004C088EF91E0EA
:103CD000F9CF81E0C759DF4F0FB6F894DEBF0FBEB2
:103CE000CDBFCF91DF911F910F91FF90EF90DF90AB
:103CF000CF90BF909F908F900895AF92BF92DF9228
:103D0000EF92FF920F931F93DF93CF93CDB7DEB760
:103D1000A4970FB6F894DEBF0FBECDBFD82E7A01A0
:103D20008B01BE016F5F7F4F0E94231D882309F422
:103D300040C02DB73EB7285030400FB6F8943EBF74
:103D40000FBE2DBFEDB7FEB7319625E0A22EB12CE8
:103D5000AC0EBD1EADB7BEB71296BC92AE92119717
:103D60008DEA92E093838283E482F582068317834F
:103D70000E9477312DB73EB7285F3F4F0FB6F894BA
:103D80003EBF0FBE2DBF892BA1F08D2DB50140E0A8
:103D900051E025E00E94101B892B59F08D2DB801B0
:103DA000A7010E94E31185E090E00E94512881E084
:103DB00001C080E0A4960FB6F894DEBF0FBECDBF61
:103DC000CF91DF911F910F91FF90EF90DF90BF9007
:103DD000AF9008951F93182F83E593E00E94522916
:103DE000379936C08CE393E00E945229812F63E318
:103DF00073E040E353E025E00E94511B892B51F40E
:103E000089E193E00E945229459A84E090E00E9463
:103E1000512845988FE090E00E946228379904C0AD
:103E20000E945C28892BD1F70E945C28892B61F4C1
:103E30000E94A41A882361F082EF92E00E94522926
:103E4000812F0E94EA1E04C085E090E00E94512864
:103E50008DED92E00E9452291F91089510928105E4
:103E600080E00E94EA1E08951F9387EB93E00E9472
:103E700052290E94D11565597C4080409040E8F05D
:103E8000379B15C08FE993E00E945229459A8AE03A
:103E900090E00E945128459881E090E00E945128CE
:103EA000379B05C00E94A41A10E0882309F411E092
:103EB0008BE893E00E94522905C08AE693E00E94B5
:103EC000522910E081E090E00E945128812F1F913B
:103ED00008950F931F93DF93CF930F92CDB7DEB763
:103EE00082E00E948028809160008068809360005A
:103EF000809160008064809360000E94341F88235A
:103F000009F438C02DE088E190E00FB6F894A89548
:103F1000809360000FBE209360008E010F5F1F4FE3
:103F2000F89480917F05816080937F05789480E08C
:103F3000B8010E94E813882321F081E069810E9482
:103F40001912F89480917F05826080937F057894A0
:103F500081E0B8010E94E813882321F080E06981A4
:103F60000E94191280917F058330D1F6A895109296
:103F70007F05D6CF0F90CF91DF911F910F910895BC
:103F8000089583E895E00895EF92FF920F931F93B1
:103F9000CF93DF938C010EC0C80160E070E00E94F7
:103FA0008307843221F481E0E82EF12C43C0C8015C
:103FB0000E942E07F80184819581892B69F742C000
:103FC000C801B7010E9483078D3089F5B7016F5F83
:103FD0007F4FC8010E9483078A3049F5C8010E94BB
:103FE0002E07C0E0D0E00894E108F1080FC0CF34FC
:103FF000D10540F4C8010E942E07FE01ED57FA4F8B
:10400000808303C0C8010E942E072196CE15DF05CC
:1040100070F383E895E0E80EF91EF7011082C801FD
:104020000E942E07C8010E942E078FEF0CC0089433
:10403000E11CF11CF801848195810197E816F906CD
:1040400008F4BECF80E0DF91CF911F910F91FF90D8
:10405000EF9008951092E2051092E105EA98089514
:104060008091D4059091D50501969093D5058093C4
:10407000D405089590E040E050E0682F70E0292FCB
:10408000220FCB01042E02C0959587950A94E2F782
:10409000982F9170922B4F5F5F4F4830510579F701
:1040A000892F0895282F6AE00E94C82D392F822F6A
:1040B0000E94C82D8295807F832B0895982F82952A
:1040C0008F702AE0829F802D11249F70890F0895A0
:1040D000880F80660E94CF0B08958091DE058E7F49
:1040E0008093DE058091DE058D7F8093DE058091D3
:1040F000DE058B7F8093DE058091DE05877F8093D0
:10410000DE058091DE058F7E8093DE058091DE05E1
:1041100080628093DE058091DE0580648093DE05F9
:104120008091DE0580688093DE0582E661E04EEDD9
:1041300055E00E94CF0B0895DF93CF93CDB7DEB744
:1041400028970FB6F894DEBF0FBECDBF8091DB0578
:104150000E943A2089838091DC050E943A208A835C
:104160008091DD050E943A208B8386E663E0AE01F4
:104170004F5F5F4F0E94CF0B28960FB6F894DEBFBB
:104180000FBECDBFCF91DF910895EF92FF920F93B5
:104190001F93DF93CF93CDB7DEB728970FB6F89470
:1041A000DEBF0FBECDBF00E010E07E010894E11C31
:1041B000F11CF801E952FA4F80810E943A20F70180
:1041C000E00FF11F80830F5F1F4F0730110589F744
:1041D00084E667E0A7010E94CF0B28960FB6F894FB
:1041E000DEBF0FBECDBFCF91DF911F910F91FF902A
:1041F000EF900895880F80660E94EF0B0895EF926C
:10420000FF920F931F93CF93DF937C0184E667E0C7
:1042100047ED55E00E94EF0BC0E0D0E08E0109525F
:104220001A4FD8018C910E943A20F8018083219680
:10423000C730D10599F72091D9052F733091D80552
:104240003F714091D7058DB79EB70A970FB6F89486
:104250009EBF0FBE8DBFEDB7FEB73196ADB7BEB7EF
:104260001296FC92EE92119789EF93E093838283EA
:104270002483158236831782408711860E94773106
:104280008C012091DB052F733091DC053F77409145
:10429000DD054F77EDB7FEB73196E80EF91EADB7E5
:1042A000BEB71296FC92EE92119789EE93E093833B
:1042B00082832483158236831782408711860E9469
:1042C00077319C01200F311FEDB7FEB73A960FB63C
:1042D000F894FEBF0FBEEDBFC901DF91CF911F91D2
:1042E0000F91FF90EF9008950F931F93182F062FB3
:1042F0002A9A22981092D3051092E2051092E105B5
:1043000080E661E043EE55E00E94EF0B82E661E05B
:104310004EED55E00E94EF0B8091DE058E7F80937D
:10432000DE058091DE058D7F8093DE058091DE05C0
:104330008B7F8093DE058091DE05877F8093DE058D
:104340008091DE058F7E8093DE051230D1F0133030
:1043500020F4113009F046C006C01330D9F01430F3
:1043600009F040C02EC08091DE058F7D8093DE0570
:104370008091DE0580648093DE058091DE05806893
:1043800023C08091DE0580648093DE058091DE0588
:104390008F771AC08091DE058F7D8093DE05809136
:1043A000DE058F7B8093DE058091DE05806880933B
:1043B000DE05013059F48091E50588608093E505BC
:1043C00005C08091DE0580618093DE0588E661E0AE
:1043D00045EE55E00E94CF0B82E661E04EED55E0E0
:1043E0000E94CF0B1F910F910895CF93DF932091DF
:1043F00084003091850010928500109284008FEF28
:104400008093D3058091DF05882371F1E901CF5AAC
:10441000D6401A9B0EC082E062E00E948E0ACA3526
:10442000D10520F481E08093E00510C01092E005F2
:104430000DC082E063E00E948E0ACA35D10520F4E7
:1044400081E08093E40502C01092E4058091E405C8
:10445000882341F08091E005882321F08FEF80933D
:104460007A0502C010927A05DF91CF91089582E01B
:1044700062E00E948E0A82E00E94C10A82E060E34C
:1044800070E20E94B60A0895CF92DF92EF92FF92F7
:104490000F931F93DF93CF93CDB7DEB7E0970FB69F
:1044A000F894DEBF0FBECDBFC0906E00D0907000FC
:1044B000E0907A00F090BC000091C1001091C9001A
:1044C00084E060E00E94742180E594E00E9452291B
:1044D0006AEF70E080E090E00E94312810926E0058
:1044E0001092700010927A001092BC001092C100DD
:1044F0001092C9000E9437228091810088608093C9
:1045000081008FE09EE0909389008093880085E091
:104510000E948B0E82E06AE270E20E94DB0E109233
:10452000850010928400B19A80916F008260809320
:104530006F00E29AEA9A78941092D5051092D40509
:1045400081E090E09093E2058093E1058091E105A0
:104550009091E205892BD1F780916F008D7F809338
:104560006F00C0926E00D0927000E0927A00F092DC
:10457000BC000093C1001093C9006AEF70E080E0B6
:1045800090E00E94312880917705882321F08AE20B
:1045900094E00E9452292091D4053091D50500D095
:1045A00000D000D0EDB7FEB731968E010F5F1F4FE0
:1045B000ADB7BEB712961C930E93119789E094E0A5
:1045C00093838283358324830E9477312DB73EB74E
:1045D0002A5F3F4F0FB6F8943EBF0FBE2DBF892B09
:1045E00019F0C8010E94D1288091D4059091D50579
:1045F000892B89F08091D4059091D5058F5A9F47DA
:1046000050F08091D4059091D50520E082559048D6
:1046100018F421E001C020E0822FE0960FB6F89454
:10462000DEBF0FBECDBFCF91DF911F910F91FF90E5
:10463000EF90DF90CF9008951F931092DF050E94B6
:104640006D0B64EF71E080E090E00E94312880E61D
:1046500061E043EE55E00E94EF0B8091E30580930B
:10466000D6058091E30580FD06C08091E30581FDBC
:1046700002C010E020C064EF71E080E090E00E9492
:1046800031288091E30580688093E30580E661E04E
:1046900043EE55E00E94CF0B80E661E043EE55E02B
:1046A0000E94EF0B8091E30580FDEBCF8091E30545
:1046B00081FDE7CF1FEF8091E30580648093E305E0
:1046C0008091E3058B7F8093E3058091E305877FED
:1046D0008093E30580E661E043EE55E00E94CF0B56
:1046E00080E661E043EE55E00E94EF0B8091E30528
:1046F00086FFE1CF812F1F9108951092E80508955C
:1047000080E880BF10927A008FE380937E0083E080
:1047100080937F00089584E694E00E9452290E94CD
:10472000EE15089585E894E00E94522988E794E008
:104730000E945229289A85E090E00E945128299AE7
:1047400064EF71E080E090E00E943128299881E0D8
:104750000E94802885E090E00E94622881E00E940B
:10476000461481E00E943F12882369F460E570E0FE
:1047700080E090E00E94312881E00E9403120E94B4
:10478000C41F882329F40E945C28892B51F7E2CFAB
:104790000E94C11F0E94D128DDCFEF92FF920F939C
:1047A0001F93DF93CF93CDB7DEB7A0970FB6F894E2
:1047B000DEBF0FBECDBF8CE994E00E94522910925B
:1047C0007A0510927905109278055E9A80E00E9431
:1047D00080280E94072A0FEF7E010894E11CF11C3B
:1047E000009378055F9881E0B70140E222E00E94E3
:1047F000BF29182F882371F00093790581E00E946A
:10480000BB29F701E10FF11D1082C7010E94D128D9
:10481000109279055F9A109278058AE090E00E94E4
:104820005128C7010E94FF20892B19F0C7010E945F
:10483000D1280E94581681E090E00E945128D0CFE4
:1048400088EC94E00E94522982EB94E00E94522965
:104850000E946D2064EF71E080E090E00E943128BA
:104860008091C10087728093C1008091C9008772D6
:104870008093C9008091BC008B7F8093BC0080E84E
:1048800080BF10927A008FE380937E0083E0809354
:104890007F001CBA1DBA109268001BBA64E670E073
:1048A00080E090E00E9431288FEF80936400F894BC
:1048B00080EE81B912B893E094B915B887E787B94B
:1048C00098B98AE78AB980E38BB988E893E12CE547
:1048D00030E0F9013197F1F70197D9F72CE530E095
:1048E00083B7817F846083BF83B7816083BF8895EE
:1048F00083B78E7F83BF159A84EC99E0F9013197D5
:10490000F1F70197D9F7ECCF81E00E947808FC011C
:10491000009731F08081813319F481E0809377052D
:10492000109278051092790580E00E942E1583E898
:1049300095E00E94522981E795E00E9452290E9449
:10494000341F882309F444C082E08093790580E114
:1049500080937A0584E595E00E94522980E040E04A
:104960005BE460E070E00E947D1E882389F1109274
:104970007A0580917705882321F48EE495E00E94E2
:10498000522980E06AE475E047E455E022E00E94A5
:10499000511B892BE9F080E00E949F2A8823C1F4F3
:1049A0008DE295E00E94522980E00E94732B8823BB
:1049B00079F480E20E942E158CE095E00E94522945
:1049C00084EF94E00E94522980E00E942E150AC0D4
:1049D0008FE10E942E1585E00E942E158DED94E04A
:1049E0000E94522980E00E942E1580E00E94EA1E5B
:1049F00010927705089581E00E947808FC010097E5
:104A000031F08081813319F481E0809377050E9431
:104A1000F41981EC95E00E9452290E940219882322
:104A200031F480E20E942E158BEA95E008C08FE1F8
:104A30000E942E1585E00E942E1589E995E00E94BE
:104A4000522980E00E942E15109277050895BF929A
:104A5000CF92DF92EF92FF920F931F93DF93CF934A
:104A6000CDB7DEB7C054D0400FB6F894DEBF0FBE4E
:104A7000CDBF81E00E947808FC01009731F0808171
:104A8000893319F481E08093770581E00E947808EA
:104A90007C01009709F48CC06EE676E00E94FB3042
:104AA000009709F485C0982F9E196E010894C11CC7
:104AB000D11CD701F60102C08D9181938A2F8E19E6
:104AC0008917D0F3E92FF0E087010E0F1F1FCE01E9
:104AD0000196E80FF91F10820E94BA300E945220FE
:104AE0008F739091D905907C982B9093D90578017C
:104AF0000894E11CF11CC7016CE676E00E94FB30D3
:104B0000009709F455C08E19B8019601E82FF0E01E
:104B10003196A8014E0F5F1F319705C0DB018C91C4
:104B2000D9018D939D016F5F7F4F64177507B1F7B2
:104B300087010E0F1F1FCE010196E80FF91F10828B
:104B40000E94BA300E9452208F719091D805907EB9
:104B5000982B9093D80578010894E11CF11CC701AB
:104B60006AE676E00E94FB30009711F18E19A801E9
:104B7000E82FF0E0319698012E0F3F1F319705C0C6
:104B8000DA018C91D6018D936D014F5F5F4F421713
:104B90005307B1F7CE010196E80FF91F10820E946A
:104BA000BA300E9452208093D705BB24B39401C031
:104BB000BB2482E00E9478087C01009709F482C03F
:104BC00068E676E00E94FB30009709F47BC0982FDE
:104BD0009E198E010F5F1F4FD701F80102C08D9102
:104BE00081938A2F8E198917D0F3E92FF0E0EE0E0A
:104BF000FF1ECE010196E80FF91F10820E94BA3005
:104C00000E9452208F739091DB05907C982B90939B
:104C1000DB0567010894C11CD11CC60166E676E07D
:104C20000E94FB30009709F44DC08C19F701E82E63
:104C3000FF240894E11CF11C9F012E0D3F1D0894D8
:104C4000E108F10804C08081D8018D938D0131966F
:104C5000E217F307C1F78E010F5F1F4FF801EE0D4A
:104C6000FF1D1082C8010E94BA300E9452208F7727
:104C70009091DC059078982B9093DC05A6014E0D61
:104C80005F1DDA01980103C0E20FF31F90838A2FA2
:104C9000841B11969C9111971196E82FF0E09923AF
:104CA00099F7E20FF31F1082C9010E94BA300E94E7
:104CB00052208F779091DD059078982B9093DD05A9
:104CC00081E001C080E0BB2029F0882319F00E9418
:104CD000C52004C088E396E00E9452297E01089412
:104CE000E11CF11CC7010E94FF20892B61F0F70134
:104CF00001900020E9F73197EE19FF0981E0B70133
:104D0000AF010E946D1388E196E00E9452290E9433
:104D10004422882331F080E20E942E158DEF95E029
:104D200008C08FE10E942E1585E00E942E1582EEAC
:104D300095E00E94522980E00E942E15109277057E
:104D4000C05CDF4F0FB6F894DEBF0FBECDBFCF9172
:104D5000DF911F910F91FF90EF90DF90CF90BF9068
:104D600008950E946B1580E060E00E94AE1483E01D
:104D700097E00E94522983EE96E00E9452298AED24
:104D800096E00E9452298DEC96E00E9452298DEB0C
:104D900096E00E9452298CEA96E00E94522989E905
:104DA00096E00E9452298CE896E00E9452298FE7F3
:104DB00096E00E94522980E796E00E9452290895C9
:104DC0000F931F93DF93CF930F92CDB7DEB70E945F
:104DD0006B1581E060E00E94AE1480E290E00E94DA
:104DE000252E8C01009709F457C000D000D0EDB7F4
:104DF000FEB79283818380E797E0948383830E9448
:104E000077310F900F900F900F90892B19F0C801F8
:104E10000E94D12800D000D0EDB7FEB712830183E5
:104E20008DE597E0948383830E9477310F900F90F4
:104E30000F900F90892B19F0C8010E94D12800D043
:104E400000D0EDB7FEB7128301838BE497E0948323
:104E500083830E9477310F900F900F900F90892BD2
:104E600019F0C8010E94D12800D000D0EDB7FEB7DC
:104E7000128301838BE297E0948383830E947731CE
:104E80000F900F900F900F90892B19F0C8010E947E
:104E9000D128C8010E94D22E0E94D10789E192E157
:104EA0000E94210883E091E06DE773E20E94C6084A
:104EB00085E091E061EB76E20E94C60887E091E030
:104EC00067E275E20E94C60889E091E06BEF74E248
:104ED0000E94C6088BE091E06BE873E20E94C6086E
:104EE0008DE091E06DEC73E20E94C6088FE091E0E6
:104EF00062E973E20E94C60881E191E064E874E22D
:104F00000E94C60883E191E060E274E20E94C60854
:104F10008DE00E9451098FEF8093E8058E010F5FAD
:104F20001F4F0BC089810E94510981E0B8010E9486
:104F3000E8138823B9F70E94F4078091E8058823D5
:104F4000A1F78BE197E00E9452290F90CF91DF915A
:104F50001F910F91089582E00E94802880E592E1E0
:104F60000E949C150E94E02608958091EB05909187
:104F7000EC05A091ED05B091EE050196A11DB11DC6
:104F80008093EB059093EC05A093ED05B093EE05AF
:104F90006091EB057091EC058091ED059091EE0527
:104FA00028EE33E040E050E00E94E82D61157105E5
:104FB0008105910539F58091F3059091F4050196ED
:104FC0009093F4058093F3058091E9059091EA05AB
:104FD000892B49F08091E9059091EA05019790931A
:104FE000EA058093E9058091F7059091F805892BF2
:104FF00049F08091F7059091F80501979093F80595
:105000008093F7058091EF059091F005A091F1054F
:10501000B091F2050097A105B10599F08091EF05D7
:105020009091F005A091F105B091F2050197A109C9
:10503000B1098093EF059093F005A093F105B0932B
:10504000F2058091F5059091F605892B49F0809144
:10505000F5059091F60501979093F6058093F50577
:1050600008956093EF057093F0058093F105909398
:10507000F2058091EF059091F005A091F105B091B6
:10508000F2050097A105B105A1F708952091F50556
:105090003091F605C90108959093F6058093F505C2
:1050A00008959093F8058093F7058091F705909106
:1050B000F805892BD1F708952091E9053091EA058B
:1050C000C90108959093EA058093E9050895109227
:1050D000EB051092EC051092ED051092EE05109282
:1050E000F6051092F5051092F4051092F305109252
:1050F000EA051092E90585EB97E20E94230E0895D8
:105100002BB18295807F922F9F7C982B9BB9822F09
:1051100008958A30910510F4805D0895895C0895A2
:10512000FB01982F92959F709A3010F4905D01C00A
:10513000995C908390E08F7090708A30910510F4A4
:10514000805D01C0895C818312820895CF93DF93D3
:1051500000D000D000D0EDB7FEB73196C3EFD4E059
:10516000ADB7BEB71296DC93CE93119725E131E02F
:1051700033832283848315820E9453319C018DB72F
:105180009EB706960FB6F8949EBF0FBE8DBF232B19
:1051900019F420E030E001C09E01C901DF91CF91F8
:1051A0000895DF92EF92FF920F931F93DF93CF93B7
:1051B000CDB7DEB7C055D0400FB6F894DEBF0FBEF6
:1051C000CDBFBC01FC0101900020E9F73197E81B3D
:1051D000F90BEE34F105ECF58E010F5F1F4FC8019E
:1051E0000E941C310097A9F1C80169E877E00E948C
:1051F000E030892B71F182E00E948028D82EF801DE
:1052000001900020E9F77F010894E108F108E01A15
:10521000F10A81E0B801A7010E946D130027F7FC95
:105220000095102FC801B70120E137E240E050E0BF
:105230000E94A92D20E835E240E050E00E94E82DD0
:105240002B5F3F4F4F4F5F4FCA01B9010E9431287A
:10525000DBB8C05BDF4F0FB6F894DEBF0FBECDBF2B
:10526000CF91DF911F910F91FF90EF90DF90089504
:105270000F931F93CF93DF93062FEC0110E00BC029
:1052800088810E94A628892B21F083EF94E00E9458
:10529000D1281F5F2196101798F3DF91CF911F91AE
:1052A0000F910895AF92BF92DF92EF92FF920F930A
:1052B0001F93DF93CF93CDB7DEB7C055D0400FB665
:1052C000F894DEBF0FBECDBF8C010E94F2308E3449
:1052D00091050CF03FC05E010894A11CB11CC501F2
:1052E000B8010E94EB30892BA9F1C5016CE877E089
:1052F0000E94E030892B71F182E00E948028D82E34
:10530000F50101900020E9F77F010894E108F10818
:10531000EA18FB0881E0B501A7010E946D13002780
:10532000F7FC0095102FC801B70120E137E240E0FB
:1053300050E00E94A92D20E835E240E050E00E94B4
:10534000E82D2B5F3F4F4F4F5F4FCA01B9010E94BD
:105350003128DBB8C05BDF4F0FB6F894DEBF0FBE5D
:10536000CDBFCF91DF911F910F91FF90EF90DF9014
:10537000BF90AF90089565E50E9419120895BF92FD
:10538000CF92DF92EF92FF920F931F93DF93CF9311
:105390000F92CDB7DEB7082F7B01B42E822F90E09D
:1053A0000E946228802F0E944614802F0E943F1284
:1053B0008823E1F410E06E010894C11CD11C802FF9
:1053C000B6010E94E813882361F01B15A0F4F701D1
:1053D000E10FF11D898180831F5F84E690E00E94C8
:1053E0004C280E944628892B51F705C00E945C2852
:1053F000892BD9F610E0812F0F90CF91DF911F916B
:105400000F91FF90EF90DF90CF90BF90089581E0D3
:1054100040E855E260E070E00E94E31108951F93B8
:10542000182F6CEB77E044EB57E025E00E94511B0E
:105430000097D9F062EB77E00E94FB30FC01009707
:10544000A1F08281803311F020E010C0812F66EA44
:1054500077E043EA57E022E00E94511B20E0892BCD
:1054600009F021E081E0282701C021E0822F1F916F
:10547000089564E07BE041E05BE025E00E94511B81
:10548000009799F06FEF7AE00E94FB30009769F087
:10549000FC0134961382CF016BEF7AE00E94FB305F
:1054A00020E0892B19F421E001C02FEF822F08950D
:1054B000CF93DF93EB0166E977E043E957E022E021
:1054C0000E94511B009711F490E01AC061E977E047
:1054D0000E94FB30009799F001966FE877E00E94F8
:1054E000FB30009761F00196BE010E9431319C01B2
:1054F00090E0232B09F091E081E0982701C091E032
:10550000892FDF91CF9108956BE27BE048E25BE069
:1055100025E00E94511B009761F061E27BE00E9450
:10552000FB30FC01009729F08085813311F481E084
:1055300008958DE09BE00E94522980E00895FF923B
:105540000F931F93CF93DF93F82E809177058823D5
:1055500021F084E79CE00E9452298F2D6BE67CE0CD
:1055600048E65CE025E00E94511BEC01009709F43D
:10557000B2C06AE171E00E943131009731F081E000
:105580008093F70483E59CE02CC0CE016DE47CE0C1
:105590000E94FB308C01CE0167E47CE00E94FB306E
:1055A000012B11F4892B31F082E08093F70483E31F
:1055B0009CE017C0CE016DE27CE00E94FB30892B9D
:1055C00009F489C083E08093F704CE0163E27CE0B4
:1055D0000E94FB30892B19F081E08093F8048FE062
:1055E0009CE00E9452298F2D66E07CE043E05CE065
:1055F00022E00E94511B8F2D6AEF7BE047EF5BE0BA
:1056000022E00E94511B8F2D6EEE7BE04BEE5BE0A3
:1056100022E00E94511B8F2D61EE7BE04EED5BE09E
:1056200025E00E94511B80917705882321F084ECAE
:105630009BE00E9452298F2D0E94842A882311F416
:1056400022E04AC08F2D0E94392A8093F9048823D2
:1056500019F089EA9BE002C080E99BE00E94522990
:105660008F2D65E87BE042E85BE022E00E94511B61
:10567000892B89F18091F704823021F08091F70421
:10568000833051F48F2D63E77BE040E75BE022E05D
:105690000E94511B892BF9F08F2D62E67BE04FE5CC
:1056A0005BE022E00E94511B892BA9F08F2D63E55E
:1056B0007BE040E55BE022E00E94511B892B59F022
:1056C0008F2D67E37BE044E35BE025E00E94511B04
:1056D00020E0892B09F421E0822FDF91CF911F91E7
:1056E0000F91FF900895CF92DF92FF920F931F9337
:1056F000DF93CF93CDB7DEB7C054D0400FB6F89448
:10570000DEBF0FBECDBFF82E80917705882319F03C
:1057100087ED9AE002C082ED9AE00E9452298091C2
:10572000F904882319F405EB11E002C00DEA11E039
:1057300080917705882319F4C8010E94D1288F2D04
:10574000B8010E94582A882309F446C08091F904C0
:10575000882319F087EB9AE002C08EE99AE00E9454
:1057600052298091F804813011F021E001C023E03A
:105770008DB79EB708970FB6F8949EBF0FBE8DBF2A
:10578000EDB7FEB731966E010894C11CD11CADB7C0
:10579000BEB71296DC92CE92119789E79AE0938376
:1057A000828324831582178306830E9477312DB765
:1057B0003EB7285F3F4F0FB6F8943EBF0FBE2DBFD8
:1057C000892B51F08F2DB60140E251E025E00E9477
:1057D000101B892B09F41FC18F2D6EE67AE04BE672
:1057E0005AE022E00E94511B85E090E00E9451287F
:1057F0008F2D6091F9040E94B71D882309F40BC115
:1058000080917705882309F460C084E49AE00E94BF
:1058100052298F2D6CE37AE049E35AE022E00E949E
:10582000511B8F2D6FE27AE04CE25AE025E00E9496
:10583000511B009709F441C06AE27AE00E94FB30F4
:105840000097D9F1019668E27AE00E94FB30009758
:10585000A1F1019666E27AE00E94FB30FC0100971C
:1058600061F18181803339F482E09AE00E9452290B
:105870001092F90522C0823319F48DED99E018C019
:10588000833319F486EB99E013C0843319F48DE85F
:1058900099E00EC0853319F484E699E009C0863397
:1058A00019F481E399E004C0873339F48EE099E07C
:1058B0000E94522981E08093F9058F2D65E079E0FF
:1058C00042E059E025E00E94511B81E090E00E94F7
:1058D00051288091F8048130C1F48F2D6BEE78E06F
:1058E00048EE58E022E00E94511B8F2D6AEB78E0D1
:1058F00047EB58E022E00E94511B8F2D6CE978E0C5
:1059000049E958E022E00E94511B8F2D62E878E0BF
:105910004FE758E022E00E94511B8F2D61E578E0AF
:105920004EE458E022E00E94511B8F2D63E378E0A3
:1059300040E358E022E00E94511B10E008C085E0DF
:1059400090E00E9451281F5F153009F464C08F2D2C
:105950000E940F2A882399F710E008C08AE090E09F
:105960000E9451281F5F153009F455C08F2D62E247
:1059700078E04FE158E023E20E94511B892B71F33C
:1059800080917705882321F486E098E00E945229CF
:105990008F2D62EE77E04AED57E02EE10E94511B19
:1059A000892B09F585E090E00E9451288F2D62EE49
:1059B00077E04AED57E02EE10E94511B892B99F4C4
:1059C00085E090E00E9451288F2D62EE77E04AED4D
:1059D00057E02EE10E94511B892B29F485E090E0CD
:1059E0000E94512818C085E090E00E9451288F2D18
:1059F00066ED77E043ED57E025E00E94511B892BCF
:105A000041F08F2D6AEC77E047EC57E025E00E94EB
:105A1000511B80E001C081E0C05CDF4F0FB6F894FD
:105A2000DEBF0FBECDBFCF91DF911F910F91FF90D1
:105A3000DF90CF900895FC0184B714BE80FF02C0B0
:105A40001082089581FF02C081E007C082FF02C07A
:105A500082E003C083FF03C083E08083089584FF56
:105A600002C084E080830895FC01E081EE2319F4F4
:105A700082EC9CE00EC0E13019F485EB9CE009C09B
:105A8000E23019F488EA9CE004C0E33029F48BE9A1
:105A90009CE00E9452290895E43021F482E99CE0C0
:105AA0000E94522908950F931F93DF93CF930F9273
:105AB000CDB7DEB78E010F5F1F4FC8010E941B2DAF
:105AC00080EE81B988E082B983E084B984E085B949
:105AD00087E787B98BE888B98AEF8AB91BB80E9433
